:020000040800F2
:10000000002000208D1F00086D1D00086F1D0008D6
:1000100000000000000000000000000000000000E0
:10002000000000000000000000000000711D00083A
:100030000000000000000000731D0008751D00088E
:10004000DD1F0008DD1F0008D51D0008DD1F0008AA
:10005000DD1F00087D1D0008DD1F0008991D000838
:1000600000000000DD1F0008DD1F0008DD1F000884
:10007000DD1F0008DD1F0008DD1F0008DD1F000870
:10008000DD1F0008E51D0008DD1F0008A51D000894
:1000900000000000B51D0008C51D0008DD1F000898
:1000A000DD1F0008DD1F0008DD1F0008DD1F000840
:0C00B000891D0008DD1F00080000000092
:1000BC0010B5064C2378002B07D1054B002B02D032
:1000CC00044800E000BF0123237010BD5000002045
:1000DC0000000000605B0008044B10B5002B03D03F
:1000EC000349044800E000BF10BDC04600000000FA
:1000FC0054000020605B000802B4714649084900B6
:10010C00095649008E4402BC7047C04602B4714681
:10011C0049084900095C49008E4402BC7047C0463E
:10012C00002243088B4274D303098B425FD3030A2A
:10013C008B4244D3030B8B4228D3030C8B420DD33D
:10014C00FF22090212BA030C8B4202D312120902CB
:10015C0065D0030B8B4219D300E0090AC30B8B4209
:10016C0001D3CB03C01A5241830B8B4201D38B03B7
:10017C00C01A5241430B8B4201D34B03C01A52415C
:10018C00030B8B4201D30B03C01A5241C30A8B429F
:10019C0001D3CB02C01A5241830A8B4201D38B028A
:1001AC00C01A5241430A8B4201D34B02C01A52412E
:1001BC00030A8B4201D30B02C01A5241CDD2C309A0
:1001CC008B4201D3CB01C01A524183098B4201D31C
:1001DC008B01C01A524143098B4201D34B01C01A07
:1001EC00524103098B4201D30B01C01A5241C3087F
:1001FC008B4201D3CB00C01A524183088B4201D3EE
:10020C008B00C01A524143088B4201D34B00C01AD9
:10021C005241411A00D20146524110467047FFE745
:10022C0001B5002000F006F802BDC0460029F7D049
:10023C0076E770477047C046002B11D1002A0FD1CA
:10024C00002900D1002802D00021C943080007B4BE
:10025C00024802A14018029003BDC046D9FFFFFF1F
:10026C0003B4684601B5029800F006F8019B9E465F
:10027C0002B00CBC7047C046F0B557464E464546DA
:10028C00DE46E0B504000D009246994683B08B42E1
:10029C0030D82DD04946504600F0BAF82900060057
:1002AC00200000F0B5F8331A9846203B34D49B4616
:1002BC0053465A46934042461F00534693401E00F5
:1002CC00AF423BD8AF4200D179E05B46A41BBD41A5
:1002DC00002B00DA76E00022002300920193012328
:1002EC005A4693400193012342469340009329E0E0
:1002FC008242CFD900220023009201930C9B002B49
:10030C0001D01C605D600098019903B0F0BCBB4645
:10031C00B246A946A046F0BD42469B4620239B1AF6
:10032C005246DA40414613004A468A40170042467C
:10033C001F43534693401E00AF42C3D900220023F3
:10034C00009201934346002BD8D0FB0772081A4346
:10035C0046467B080EE0AB4201D1A2420CD8A41A4F
:10036C009D41012024196D410021013E24184D416D
:10037C00002E06D0AB42EED9013E24196D41002E61
:10038C00F8D1009801995B4600196941002B24DBD8
:10039C002B005A464446D3402A00E2401C005B46E0
:1003AC001500002B2ADB26009E4033002600474612
:1003BC00BE403200801A9941009001919EE7A34201
:1003CC00BCD882E74246202300219B1A00220091D0
:1003DC0001920122DA40019285E7424620239B1AC2
:1003EC002A0046469A402300F340444613432A0011
:1003FC00E2401C005B461500002BD4DA42462F006D
:10040C002023260097409B1ADE403B003343CDE768
:10041C0010B5002903D100F007F8203002E00800E5
:10042C0000F002F810BDC0461C2101231B049842A9
:10043C0001D3000C10391B0A984201D3000A083969
:10044C001B09984201D30009043902A2105C401820
:10045C007047C046040302020101010100000000C4
:10046C0000000000154B5A6F602A22D05A6F102AD8
:10047C0004D8134A13491268D16315E05A6F102A35
:10048C0006D95A6F302A03D80D4A00211268F3E7B7
:10049C005A6F302A02D95A6F402AEAD95A6F402A29
:1004AC0002D95A6F602AEFD95A6F01325A6701206C
:1004BC00704700225A6778331A70F8E780000020E2
:1004CC00680400203075000010B5054C0021200098
:1004DC0003F0F4FE2368034A01205A6310BDC046A2
:1004EC0068040020102700000022034B01201B6829
:1004FC005A63DA637047C0466804002010B5084C94
:10050C000021200003F0DAFE2368064A08215A6312
:10051C00200003F0D3FE2368034A0120DA6310BDE8
:10052C006804002088130000204E000010B5FFF76F
:10053C00DBFF10BD70B50025084C200003F09CFAC1
:10054C000821200003F0BAFE23682900DD63200097
:10055C0003F0B4FE236801205D6370BD68040020C5
:10056C0070B500250B4C200003F086FA002120000A
:10057C0003F0A4FE236804215D63200003F09EFEBB
:10058C00236808219D63200003F098FE2368012056
:10059C00DD6370BDE005002010B5054C082120007E
:1005AC0003F08CFE2368034A0120DA6310BDC046B9
:1005BC0068040020FFFF000010B51B4C1B4BE26BC6
:1005CC009A422FD0E16B1A4A914214D80122802111
:1005DC001848890001F0DAFEE36B0133E363383429
:1005EC002378DAB2002B04D180211248890001F063
:1005FC00CDFE012010BDE06B0F49904204D9E26B97
:10060C008A4201D80022E2E7E06B0C4A884202D908
:10061C00E16B9142DAD9E16B9142DDD9E26B9A42FE
:10062C00DAD8EFE70023D9E780000020A08601008C
:10063C00204E000000040050409C000060EA0000C6
:10064C00802330B55B008BB01400099301226B46FC
:10065C009B18DA778023DB05079380236D461B06F6
:10066C000593002328706970074869460693EB7060
:10067C00AC70019302F07CFF002801D000F008FC64
:10068C0001200BB030BDC0469C060020802110B567
:10069C004900074802F02EFD00228021054B064838
:1006AC00DA63890038331A7001F070FE012010BD36
:1006BC009C06002080000020000400500123074805
:1006CC0010B50268D1680B43D360002101F0A2FB86
:1006DC00041E01D000F0DCFB200010BDF002002055
:1006EC0010B50D4C86B00D4B0122694620000093CD
:1006FC0002F0EAFE002801D072B6FEE701900490E9
:10070C0005900122200001A902F074FE002801D0FE
:10071C0072B6FEE706B010BD9C0600200202181649
:10072C0010B592B03822002104A805F0E6F9102289
:10073C000021684605F0E1F98020800002F064F8A1
:10074C0002F058F818221A490224CB6D04A89343DE
:10075C00103A1343CB6506230493053B0693FF33F2
:10076C000793002308930D9380239B020F93802300
:10077C009B041093802340219B0509910B940C94AE
:10078C000E92119302F06CF8002801D072B6FEE7BD
:10079C00072302900390210068460093019402F015
:1007AC00C7FA002801D072B6FEE712B010BDC046E1
:1007BC00001002407F220F4810B50F4BC2608032F0
:1007CC000261802203600023D20583604361836150
:1007DC00C3610262436202F075FD011E01D072B664
:1007EC00FEE70200022001F055FC022001F07CFC27
:1007FC0010BDC0469C0600200028004010B59CB0DF
:10080C001022002104A805F078F90C22002101A87F
:10081C0005F073F91C22002108A805F06EF93422AA
:10082C0000210FA805F069F9394C3A4B3A4A23607C
:10083C00E260002380226360A36092006361200069
:10084C0080332261A36103F061FE002801D072B6EF
:10085C00FEE7802320005B0104A9049303F00CFC49
:10086C00002801D072B6FEE7200003F0B7FE002886
:10087C0001D072B6FEE701900290039001A920000E
:10088C0003F040FF021E01D072B6FEE7602308930E
:10089C00FA230A901B010B900C900D900E9008A956
:1008AC002000099303F056FB002801D072B6FEE736
:1008BC000422200008A903F04DFB002801D072B6D9
:1008CC00FEE70822200008A903F044FB002801D011
:1008DC0072B6FEE780239B01149380230F90109037
:1008EC001190129013901590169017909B041990DC
:1008FC001A901B900FA92000189303F037FF0028C3
:10090C0001D072B6FEE7200001F03AF91CB010BD20
:10091C00E0050020002C0140FFFF000010B58CB05A
:10092C001822002106A805F0E8F80C2200216846E0
:10093C0005F0E3F88023144CDB0501220F21236022
:10094C00002352426360A360E26023610332A3611F
:10095C0007910133200003A9039304920593089295
:10096C00099303F06FFE002801D072B6FEE70090E9
:10097C0002906946200003F0C5FE002801D072B633
:10098C00FEE70CB010BDC0462405002010B58EB09B
:10099C001022002103A805F0B0F80C2200216846B3
:1009AC0005F0ABF81C22002107A805F0A6F8264C90
:1009BC00264B2000236000236360A360244BE3607C
:1009CC0080239B002361813BFF3BA36103F09EFDD1
:1009DC00002801D072B6FEE7802320005B0103A93A
:1009EC00039303F049FB002801D072B6FEE7200008
:1009FC0003F0F4FD002801D072B6FEE700900290DF
:100A0C006946200003F07EFE021E01D072B6FEE79E
:100A1C006023089009900B9007A92000079303F01E
:100A2C0099FA002801D072B6FEE70822200007A927
:100A3C0003F090FA002801D072B6FEE7200001F016
:100A4C009FF80EB010BDC0466804002000040040A2
:100A5C00FFFF000010B588B01C22002101A805F092
:100A6C004CF8164C164B200023607823FF33636040
:100A7C000023A360134BE36080239B002361813B25
:100A8C00FF3BA36103F042FD002801D072B6FEE7E4
:100A9C00200003F06FFD021E01D072B6FEE701903C
:100AAC0002900390059001A9200003F021FA002880
:100ABC0001D072B6FEE708B010BDC046AC030020F2
:100ACC0000200040FFFF000010B594B01C22002154
:100ADC00684605F012F83422002107A805F00DF83D
:100AEC001F4C204A204B62602360E260002380226E
:100AFC00A36092006361200080332261A36103F044
:100B0C0005FD002801D072B6FEE7200003F032FD8F
:100B1C00021E01D072B6FEE7009001900290039085
:100B2C000490059006906946200003F0E1F9002836
:100B3C0001D072B6FEE780230790089009900A90C6
:100B4C000B909B010D90139007A920000C9303F0C0
:100B5C000DFE002801D072B6FEE714B010BDC046E1
:100B6C00F0020020FFFF00000044014010B594B0DB
:100B7C001C220021684604F0C0FF3422002107A883
:100B8C0004F0BBFF1F4C204B204A23600323E26080
:100B9C006360802200239200A36063612000803395
:100BAC002261A36103F0B2FC002801D072B6FEE70B
:100BBC00200003F0DFFC021E01D072B6FEE70090AD
:100BCC0001900290039004900590069069462000D5
:100BDC0003F08EF9002801D072B6FEE7802307904F
:100BEC00089009900A900B909B010D90139007A907
:100BFC0020000C9303F0BAFD002801D072B6FEE77A
:100C0C0014B010BD3402002000480140409C00008C
:100C1C000C480D4B10B5036096239B010C224360CE
:100C2C00002342618360C36003618361C36103621B
:100C3C004362836204F050FE002801D072B6FEE7D6
:100C4C0010BDC0460C01002000440040F0B5022647
:100C5C0004248BB00C22002107A804F04EFF2021A5
:100C6C000125314B314F5A6B380032435A635A6B62
:100C7C0032400192019A5A6B22435A635A6B2240BA
:100C8C000292029A5A6B0A435A635A6B0A400392B5
:100C9C00039A5A6B05A92A435A635B6B06952B4042
:100CAC000493049BFF239B00059301F0B7FA882360
:100CBC00059400245B0305A91D480693079401F0D5
:100CCC00ADFAA0201B4A05A9C0050592069507940C
:100CDC00089401F0A3FA882338005B0305A9069356
:100CEC000596079401F09AFA8023A0201B0205A90F
:100CFC00C00505930694079501F090FAFF21220098
:100D0C003800890001F042FBA0202A000949C005E7
:100D1C0001F03CFB22002100052001F0BBF905206D
:100D2C0001F0E2F90BB0F0BD0010024000040050DD
:100D3C0000140050F0180000E0220F48120110B50A
:100D4C0082600E4A0E4B4261802203600023D20364
:100D5C004360036242628362C362036301F04EFB31
:100D6C00011E01D072B6FEE70200112001F092F9CB
:100D7C00112001F0B9F910BDD8010020FFFF0000CF
:100D8C00007C004070B501F04DF9FFF7C9FCFFF78E
:100D9C005DFFFFF70FFDFFF7C1FDFFF7F7FDFFF755
:100DAC0037FFFFF72BFDFFF7E1FEFFF78DFEFFF797
:100DBC0051FEFFF7C1FF0E21254A264802F0AEFF77
:100DCC000E21254A254802F0A9FF0E21244A254868
:100DDC0002F0A4FF244D02212800244A01F0E8FB74
:100DEC00234E00213000234A02F041F9224C03210A
:100DFC002000224A04F0F6F80121214A200004F0D8
:100E0C00F1F8FFF76DFC002301222021300002F0E5
:100E1C00CDFC1C4801F010F800F05CFCFFF74EFC18
:100E2C00012001F09FF83C21174802F051FEFA22F4
:100E3C002800110001F08EFCFFF77CFBFFF790FB04
:100E4C0002222000114904F021FE012070BDC04691
:100E5C00A10E00083402002011120008F00200203C
:100E6C00B1120008AC030020D8010020C912000800
:100E7C009C060020D51500080C010020E115000887
:100E8C00A516000880000020240500200001002089
:100E9C0072B6FEE770B501F031F80023A44CA549F9
:100EAC000A889A4211D82379A34D062B47D023796F
:100EBC00012B21D100F09AFF2878002105280AD8AF
:100ECC00FFF724F9060D12141618C0460133E7E794
:100EDC00631CD97F0909287800F0E2FF2FE0631C1E
:100EEC00D97F0F231940F6E7A31CF2E7A31CF7E701
:100EFC00E31CEEE7E31CF3E72379022B01D1217805
:100F0C00EFE72379032B03D02379072B00D09BE049
:100F1C002978052913D80800FFF7F8F8034A606D03
:100F2C007A8823006E331B78013B5A425341227955
:100F3C00DBB2032A35D1217A0909002BCBD12B78CE
:100F4C000133DBB2062B00D100232B702379012B4C
:100F5C0007D02379022B00D045E16379012B00D017
:100F6C0041E101220821754801F010FA0122734871
:100F7C001021383401F00AFA714A2378126871484A
:100F8C00012B00D036E103886F495C00615A516334
:100F9C009163D163FF2B00D130E101339BB203800D
:100FAC0070BD2279072AC8D1220040321178C3E7DC
:100FBC0023006E331B78013B5A4253412279DBB23A
:100FCC00032A03D1217A0F221140B6E7227900219E
:100FDC00072AB2D1220040321178F4E72379032B8F
:100FEC0001D1617A76E723790021072B00D072E7D3
:100FFC002300413318E02379032B01D1617A70E788
:10100C0023790021072B00D065E72300413319E039
:10101C002379032B01D1A17A5CE723790021072BDB
:10102C0000D058E723004233197853E72379032B78
:10103C0001D1A17A55E723790021072B00D04AE78B
:10104C002300423319784CE72379042B02D02379FF
:10105C00082B5CD12978052900D970E70800FFF727
:10106C0055F8030F1C30444D2379042B01D1217A00
:10107C0030E72379082B00D02DE723004033D3E74A
:10108C002379042B01D1217A2BE723790021082B1A
:10109C0000D020E723004033D4E723006E331B78C5
:1010AC00013B5A4253412279DBB2042A01D1617AC5
:1010BC0042E722790021082A00D03EE72200413283
:1010CC0074E723006E331B78013B5A42534122795B
:1010DC00DBB2042A01D1617A75E722790021082A52
:1010EC0000D02AE72200413276E72379042B92D0F4
:1010FC0023790021082B00D0EDE693E72379042B0C
:10110C0097D023790021082B00D0E4E698E72379C7
:10111C00052B03D02379092B00D010E7297805295A
:10112C0000D90CE70800FEF7F1FF1119222C364A02
:10113C0080000020040100207C00002000040050EE
:10114C00E00500207A000020785B00082379052B4D
:10115C008DD02379092B00D0BDE68EE72379052BA2
:10116C0091D023790021092B00D0B4E692E72379A2
:10117C00052B00D135E723790021092B00D0AAE6F5
:10118C0036E72379052B00D138E723790021092B89
:10119C0000D0A0E639E723006E331B78013B5A429E
:1011AC0053412279DBB2052A01D1A17AC4E6227916
:1011BC000021092A00D0C0E622004232F6E62300C4
:1011CC006E331B78013B5A4253412279DBB2052A1C
:1011DC0001D1A17AF7E622790021092A00D0ACE6E8
:1011EC0022004232F8E600220821054801F0CEF830
:1011FC000022BCE6002353639363D3630023CEE643
:10120C0000040050F8B5224C2379022B24D0022183
:10121C00204800F03FFEE17860781F4EA778013936
:10122C0035681E4A1E4B01308F421AD127788742EF
:10123C0017D10121EA62F260AA625A6915480A4381
:10124C005A611A698A431A616179C9B200F022FEA7
:10125C0000232370A370F8BD23780133DBB2237015
:10126C00D9E7EA62F2601922AA6201255A692A4377
:10127C005A611A69AA431A6123788342EBD1A37885
:10128C009942E8D000232370A3785B19DBB2E1E725
:10129C008000002084000020F0020020FFFF0000EE
:1012AC0000440140044B1A78012A02D100221A7022
:1012BC0070470122FBE7C046EE000020F0B5B14DAF
:1012CC0085B0280000F02CFB2B78AF4C002B00D005
:1012DC0049E1AE4BAE4D00931B78002B00D099E04A
:1012EC00AC4E3378002B00D0D6E0230038331B787B
:1012FC00002B00D01FE1286869680123A64A5B42D5
:10130C0012184B4102920393039B002B31D1FA2309
:10131C00029ADB009A422CD20123009A03219F48A7
:10132C00137000F0B7FD00F0FDFD23002200083320
:10133C00203243CA43C303CA03C3207AC0B202F0AB
:10134C00DFF92077607AC0B202F0DAF96077A07A20
:10135C00C0B202F0D5F9A077FFF7B6F8002200234F
:10136C002A606B60FA228E48110001F0F3F905B087
:10137C00F0BD01238B4A5B4212184B410092019342
:10138C00019B002B31D1FA23009ADB009A422CD21C
:10139C00012307218148337000F07CFD00F0C2FD71
:1013AC00230022004033203243CA43C303CA03C381
:1013BC00230040331878C0B202F0A2F92300543352
:1013CC001870230041331878C0B202F099F9230049
:1013DC00553318702300423318785634C0B202F0DB
:1013EC008FF92070FFF78AF8B8E701236E4A5B4249
:1013FC00801859410029B1D16C4B9842AED82300CA
:10140C0039331B78DEB2012BA8D17834FFF73EF9C3
:10141C002670A3E7012B3FD12868696801235E4A37
:10142C005B4212184B411600002B18D1FA23DB003B
:10143C009E4214D22379032B04D10421574800F087
:10144C0029FD8BE72379042B02D105215348F6E7BC
:10145C002379052B00D081E703215048EFE70127C2
:10146C00504E7F4236184F41002F00D076E7FA23BA
:10147C00DB009E4200D371E70121484800F00AFDD1
:10148C0000F062FD009B012249494A481F7001F09F
:10149C00B1FFFFF729F861E73E4B00931B78012B56
:1014AC0049D12868696801233B4A5B4212184B41B9
:1014BC001600002B16D1FA23DB009E4212D22379A0
:1014CC00072B02D108213548B9E72379082B02D123
:1014DC0009213248B3E72379092B00D03EE70721D5
:1014EC002E48ACE701272F4E7F4236184F41002F74
:1014FC0000D033E7FA23DB009E4200D32EE7012114
:10150C00264800F0C7FC00F01FFD009B1F70230055
:10151C0040331878230041331978230042331A786A
:10152C00C9B2D2B2C0B2FFF78BF8FEF7FFFF0123AE
:10153C003934237012E738342378012B00D00DE7AF
:10154C002A686B6832204042C11712184B411100B7
:10155C00002B00D002E7E1235B00994200D3FDE6AB
:10156C00FFF794F8FAE62B78012B00D0FAE6012469
:10157C00002507490A684B6812196B410A604B60D9
:10158C00F0E6C046EC00002080000020790000202E
:10159C00700000207800002030F8FFFF840000204D
:1015AC00D801002084EAFFFFCCDEFFFFC309000056
:1015BC00880000209C06002010B5002000F0D2FC12
:1015CC00FEF7EAFF10BD00000122014B1A707047B4
:1015DC00B800002070B52B4B2B4C1A78002A1DD16B
:1015EC00230081331A78294B534322001B0A84327F
:1015FC00138001232100250082310B7000238035DC
:10160C0081342B702370224C0122200003F02AFD20
:10161C0029000222200004F039FA70BD1A78012A40
:10162C0014D12300210081331A78883153029B1A7C
:10163C001B0A9BB20B80230086331A780B88D2B21C
:10164C0020219BB2134802F0B1F8D2E71A7800239C
:10165C00022ACFD1220081321178C8B2994208D126
:10166C002300863318701A78230088331B88D2B273
:10167C00E6E71278D1B2012ABCD123008633197067
:10168C00F1E7C0460001002080000020C4090000E2
:10169C000C0100209C0600207047000070B5FFF77D
:1016AC0071FB0A4C0A4D230038331B78012B0AD0EE
:1016BC000A2000F0DDFC00F01FF82B78012BF2D192
:1016CC00FEF7D0FEEFE7FEF777FFF6E7800000208D
:1016DC00F80000200123074810B50268D1680B43BD
:1016EC00D360002100F096FB041E01D0FFF7D0FB65
:1016FC00200010BD3402002070B5874B874C1B684E
:10170C00A26E5B6A21795B086266A366032905D029
:10171C002179042902D02179052926D1217903299F
:10172C0054D19A4242D8257FD0B2AA1AD9B2D31832
:10173C00172B06D9237F183B1B1ACB18DBB2237748
:10174C0004E0237F1B1AC918C9B22177207FC0B2CD
:10175C0001F044FE2072607FC0B201F03FFE607267
:10176C00A07FC0B201F03AFEA0722379072B06D0FD
:10177C002379082B03D02379092B00D09EE0237901
:10178C00072B00D09CE02300A56E616E54338D4274
:10179C006ED31A78EEB2521A5219C8B2172A00D860
:1017AC00A9E01A78183AB218121A6BE0207F11B21D
:1017BC001DB2491B884205DA217F17318A1AD318CA
:1017CC000133BBE7217F8A1AD318B7E721790429A3
:1017DC0025D19A4213D8657FD0B2AA1AD9B2D318A0
:1017EC003B2B06D9637F3C3B1B1ACB18DBB26377D0
:1017FC00ACE7637F1B1AC918C9B26177A6E7607F93
:10180C0011B21DB2491B884205DA617F3B318A1A3D
:10181C00D3180133EAE7617F8A1AD318E6E72179F6
:10182C00052993D19A4213D8A57FD0B2AA1AD9B25E
:10183C00D3183B2B06D9A37F3C3B1B1ACB18DBB22E
:10184C00A37783E7A37F1B1AC918C9B2A1777DE7D9
:10185C00A07F11B21DB2491B884205DAA17F3B3132
:10186C008A1AD3180133EAE7A17F8A1AD318E6E75C
:10187C0018780AB22EB2921B904249DA1A78521991
:10188C00521A1832D2B21A70230054331878C0B2DC
:10189C0001F0A4FD23004033187023005533187851
:1018AC00C0B201F09BFD2300413318702300563366
:1018BC0018784234C0B201F091FD2070012070BD47
:1018CC002379082B0FD12300A56E616E55338D4201
:1018DC0013D31A78EEB2521A5219C8B23B2A0AD94B
:1018EC001A783C3A5FE72379092BCDD12300A56EFA
:1018FC00616E5633EBE71A7855E718780AB22EB2B8
:10190C00921B904204DA1A785219521A3C32B9E7F7
:10191C001A785219521AB5E72405002080000020CD
:10192C0010B580210400A0200902C00500F028FD9C
:10193C00104B00280BD11A78002A01D0013A1A70EA
:10194C001B78002B11D101332370012010BD1978A5
:10195C000E29F5D008480278042A04D1002201315E
:10196C0019700270ECE70132FBE70E2BEDD100236E
:10197C00EAE7C04600000020F806002001210A4BCF
:10198C0082B01A6C0A431A641A6C0A4080210092C5
:10199C00009ADA6B49050A43DA63DB6B0B4001935F
:1019AC00019B02B07047C0460010024010B5040005
:1019BC008CB02822002102A804F09FF8104B22685A
:1019CC009A421BD180239B020293802302A85B00C6
:1019DC000B9301F06BFA002801D0FFF759FA802223
:1019EC00084B1202D96D0A438021DA65DA6BC90003
:1019FC000A43DA63DB6B0B400193019B0CB010BD07
:101A0C000028004000100240064B02689A4208D1A0
:101A1C00054B0649DA6D0A40DA65DA6B04490A406F
:101A2C00DA6370470028004000100240FF7FFFFF80
:101A3C00FFFBFFFF10B5040090B02822002106A880
:101A4C0004F05BF82368324A934215D1802306A830
:101A5C009B03069301F02AFA002801D0FFF718FA2D
:101A6C0080212C4B09011A6C0A431A641B6C0B4025
:101A7C000193019B10B010BD274A934209D102215A
:101A8C00244BDA6B0A43DA63DB6B0B400293029B49
:101A9C00F0E7224A934212D180211E4B09021A6CA4
:101AAC0013200A431A6402221B6C0B40039311008F
:101ABC00039B00F0EFFA132000F016FBDAE7184A4C
:101ACC00934210D18021134B89021A6C15200A43C2
:101ADC001A6402221B6C0B4004931100049B00F04F
:101AEC00D9FA1520E8E70F4A9342C3D18021094B5C
:101AFC00C9021A6C16200A431A6400221B6C0B4094
:101B0C0005931100059B00F0C5FA1620D4E7C046DA
:101B1C00002C014000100240000400400020004056
:101B2C00004401400048014010B5040088B0142264
:101B3C00002103A803F0E1FF80232268DB059A4211
:101B4C001AD101220D4BA020D96BC0051143D963CA
:101B5C00D96B114001910199596B114359635B6B1E
:101B6C0003A913400293029B03230393013B0493A9
:101B7C000592079300F052FB08B010BD0010024014
:101B8C0030B5040089B01422002103A803F0B5FF7E
:101B9C0023681F4A934215D101211E4BA0205A6B7A
:101BAC00C0050A435A635B6B0B400093009BE02318
:101BBC00DB000393022303A90493079300F02EFB8D
:101BCC0009B030BD144A9342FAD1022404210125F4
:101BDC00104B12485A6B22435A635A6B22400192A3
:101BEC00019A5A6B0A435A635B6B03950B40029341
:101BFC0003A9029B0494079500F010FB4023039368
:101C0C0000230748049405930693079503A9D5E789
:101C1C00002C014000100240000400400004005061
:101C2C000008005010B5040088B01422002103A84D
:101C3C0003F063FF154B22689A4224D18021144B88
:101C4C008902DA6BA0200A43DA63DA6B02240A40B9
:101C5C000192019A0122596BC005114359635B6BC8
:101C6C0003A913400293029B0C2305920393079242
:101C7C00049400F0D3FA1C202200210000F00AFA90
:101C8C001C2000F031FA08B010BDC04600440040E2
:101C9C000010024010B5040094B01422002105A8D5
:101CAC0003F02BFF282200210AA803F026FF23684B
:101CBC00284A93421ED180230AA89B000A9301F064
:101CCC00F5F8002801D0FFF7E3F88022224B12062A
:101CDC00D96B0A430221DA63DA6BD20FD207019275
:101CEC00019A5A6B0A435A635B6B0B400293029B3B
:101CFC0014B010BD194A9342FAD180230AA8DB0014
:101D0C000A9301F0D3F8002801D0FFF7C1F8802125
:101D1C00114BC905DA6BA0200A43DA63DA6BC005F4
:101D2C000A4001210392039A5A6B0A435A635B6B74
:101D3C000B400493049B80235B000593FE3B0693AE
:101D4C00002305A9079308930533099300F066FA5D
:101D5C00CEE7C046007C00400010024000940040DA
:101D6C00FEE7FEE77047704710B500F06FF910BD45
:101D7C0010B5022000F010FB10BD000010B5024899
:101D8C0003F0CEF910BDC0460C010020802010B528
:101D9C00000200F001FB10BD10B5024801F0F8FE86
:101DAC0010BDC046AC03002010B5024801F0F0FE97
:101DBC0010BDC046F002002010B5024801F0E8FE4C
:101DCC0010BDC0463402002010B5024801F0F2F9F3
:101DDC0010BDC0469C06002010B5024800F092FBD6
:101DEC0010BDC046D80100207047000010B5064C4D
:101DFC0001222000054901F08DFC0122200004493C
:101E0C0001F0B0FC012010BD9C060020A0000020B9
:101E1C00B400002010B502F055FA041E01D0FFF7F3
:101E2C0037F8200010BD10B502F0D4FA041E01D012
:101E3C00FFF72EF8200010BD09210300002210B579
:101E4C0041700639C17019000270827001206E3128
:101E5C0018715A7108702E391A725A665A729A662B
:101E6C009A720839DA725A619A61094C0A724A728A
:101E7C008A72CA72DA641A650A704831DA630A70B7
:101E8C0088334A708A708C80023108711A8010BDB8
:101E9C00C40900000378DBB2437001700120704765
:101EAC0070B506000D000024104AA300D058104A4B
:101EBC006300D15AE3B201229E4200D100220134C8
:101ECC0000F064FA062CEFD1002401262A002241EE
:101EDC0008496300C95A084BA00018583240013415
:101EEC0000F054FA042CF1D1012070BD2C0000201C
:101EFC0020000020080000201000002010B5002455
:101F0C00064A6300D15A064BA0000122185801342E
:101F1C0000F03CFA062CF3D1012010BD200000206B
:101F2C002C0000200123074810B50268D1680B4330
:101F3C00D3600021FFF76EFF041E01D0FEF7A8FF4F
:101F4C00200010BDAC03002010B500210448FFF7A1
:101F5C006AFF041E01D0FEF79BFF200010BDC04697
:101F6C00AC030020020010B5002800D00122034869
:101F7C00042100F00BFA012010BDC04600040050F3
:101F8C000D488546FFF730FF0C480D490D4A0023DC
:101F9C0002E0D458C4500433C4188C42F9D30A4A12
:101FAC000A4C002301E013600432A242FBD303F07D
:101FBC00ADFDFFF773FBFEE70020002000000020C2
:101FCC004C000020005E000850000020000700209C
:101FDC00FEE7000070B5104B05001978002901D1FF
:101FEC00012070BDFA208000FEF79AF80B4C01001E
:101FFC002068FEF795F800F083F8041EF0D1032D4D
:10200C00EED8020001202900404200F043F8044BB6
:10201C0020001D60E5E7C0464400002004000020BD
:10202C00480000208023084A5B00116810B50B4360
:10203C0000201360FFF7CEFF041E03D1FFF79EFCB8
:10204C00200010BD0124FBE700200240034A044B92
:10205C0011681B785B1813607047C046FC060020A3
:10206C0044000020014B18687047C046FC06002055
:10207C0070B50400FFF7F6FF0500631C02D0044B9B
:10208C001B78E418FFF7EEFF401BA042FAD370BD9B
:10209C004400002010B5FF2403220B002100024055
:1020AC00D20091409B012340C943934000280ADB96
:1020BC00C0240B4A800880008018A40002590A40F2
:1020CC001343035110BD0F2210400838054A8008F5
:1020DC0080008018C26911401943C161F2E7C04603
:1020EC0000E100E000ED00E0002805DB1F231840B4
:1020FC001E3B8340014A13607047C04600E100E07C
:10210C008022431E5204012093420DD2C021074A63
:10211C0007485360036A09061B021B0A0B43036240
:10212C0000200723906013607047C04610E000E069
:10213C0000ED00E0F0B5002808D0841DE37F411DC0
:10214C00022B05D00423C3630023CB770120F0BD01
:10215C000E250268466C1368AB4313603368104D50
:10216C002B403360012316689E431660026C1B33B0
:10217C001A401B3B93400B4E77683B437360C26C19
:10218C00836C5A60036D002B05D01A682A401A60C4
:10219C00436D826D5A6001230020E377C877D6E740
:1021AC00FFFEFFFF00000240F8B5811DCB7F022B24
:1021BC0003D00423C3630120F8BD0E2402681C273E
:1021CC001368456CA3431360012314689C4314608B
:1021DC002A68104C22402A60026C0F4D3A40934002
:1021EC006E6833436B60C26C836C5A60036D002B5A
:1021FC0005D01A6822401A60436D826D5A60012323
:10220C000022CB77431DDA77836B934200D098473B
:10221C000020D1E7FFFEFFFF000002400023F0B5D5
:10222C0085B00A681400DC4001D105B0F0BD012571
:10223C0014009D402C4000942A4200D191E04A6841
:10224C005F0094460322644622400324BC40E443CE
:10225C000194541E012C2ED88668019C2640CC6813
:10226C00BC403443846044680126AC43250064467A
:10227C00240934409C402C434460C568019C254093
:10228C008C68BC402C43C460022A16D107250F264B
:10229C001D40AD00AE40DC08A40004190294246A71
:1022AC0003962600039CA64334000E69AE402643D9
:1022BC00029C266201E0032ADFD1BA400468019D2A
:1022CC0025402A43C02402606246A402224248D020
:1022DC00254A03259C08A400A4180F221D40ED00DC
:1022EC00AA40A027266EFF0596430022B8420CD0C8
:1022FC001E4F0132B84208D01D4F0132B84204D0F3
:10230C001C4F0332B84200D1023AAA40674632430E
:10231C002266154C009A2668009DD2433543FF0275
:10232C0001D435001540674625606668009D35432D
:10233C00BF0201D435001540674665600E4C009D08
:10234C00E66F3543BF0301D4350015406746E5679A
:10235C000A4C009EE56F2E43FF0301D415402E005E
:10236C00E66701335DE7C0460018024000040050E8
:10237C0000080050000C00500818024004180240DD
:10238C0000690840431E9841C0B27047002A01D032
:10239C00816170478162FCE7044B10B5DA6810422A
:1023AC0002D0D860FFF708F910BDC04600180240F3
:1023BC000C4B70B505000C0018680B49FDF7B0FE0E
:1023CC00FA239B004343296800200325013B002B83
:1023DC0000D128000A682240A24201D0002BF5D17E
:1023EC0070BDC04604000020204E000070477047AE
:1023FC00704770477047704770470000F7B504008E
:10240C000120002C5ED0250036352B78DAB2002B5B
:10241C0018D1230035331A702E4B23642E4B636472
:10242C002E4BA3642E4BE3642E4B23652E4B63651E
:10243C002E4BA365A36B002B01D12D4BA363200066
:10244C00A36B984702232B7021686068CB68A66A3F
:10245C00012803D080221204964201D11E229343FC
:10246C006269244FBA4201D0234F3B40234F1F4097
:10247C00A36801979C460300674633431F43236AB6
:10248C003B43676A3B43019F3B4300281BD1E069F8
:10249C0027693843034380200004864215D0154831
:1024AC00824204D0A0690243E06902431343144AF8
:1024BC00CB60E36A914201D1226B13434B6201233F
:1024CC0000202B70FEBD0128E5D1E0682669304361
:1024DC000343E4E7FB230008FD230008FF23000867
:1024EC00012400080324000805240008F92300082F
:1024FC00A11C0008FFFF00003F1FFFFFFEF119FFAA
:10250C00007C00400122036810B5196804001142D8
:10251C0005D09968114202D05A60036C9847022288
:10252C0023681968114206D09968114203D05A6089
:10253C002000636C9847042223681968114206D066
:10254C009968114203D05A602000A36C9847082266
:10255C0023681968114206D09968114203D05A6059
:10256C002000E36C9847102223681968114206D0AA
:10257C009968114203D05A602000236D984720229D
:10258C0023681968114206D09968114203D05A6029
:10259C002000636D9847402223681968114206D0C9
:1025AC009968114203D05A602000A36D984710BD62
:1025BC00030030B50120002A11D01C0036342578D8
:1025CC00E8B2012D1AD1082909D80800FDF79EFDA3
:1025DC00051E080A0C0E101214009A63002030BD60
:1025EC001A64FBE75A64F9E79A64F7E7DA64F5E7EB
:1025FC001A65F3E75A65F1E79A65EFE7247801204D
:10260C00002CECD10029E8D08142E8D1DA63E5E76F
:10261C00F0B5050087B0EFF310830593012383F326
:10262C001088464F0468BC4208D0454B00269C429B
:10263C0009D1444B5E6DC0239B0303E0414B5E6D9F
:10264C00C0231B031E40A3680293E36862690393D3
:10265C00A3690193636A0493BC4243D0384B9C42F8
:10266C004BD0019B13432ED0BC4251D0344B9C42D7
:10267C0054D0002A0FD00123216928000B43236179
:10268C0008216261FFF794FE032802D12B00363338
:10269C00187008236360019B002B0FD00123226963
:1026AC00102113432361019B2800A361FFF780FED7
:1026BC00032801D13635287010236360BC4231D019
:1026CC001F4B9C4235D00122236993432361029B0B
:1026DC00A360039BE360049B6362059B83F31088F8
:1026EC0007B0F0BD802317491B06C86A0343CB62B1
:1026FC00CB6A5B005B08CB62B3E78021114BC90549
:10270C00D86A0143D962D96A0F480140D962A8E757
:10271C000C490E484B6D03404B65AAE709490C4820
:10272C004B6DF8E7074A0949536D0B40334353652A
:10273C00C9E7044A0649536DF7E7C046007C0040E0
:10274C000094004000100240FFFFFFBFFFFFF3FFAB
:10275C00FFFFCFFFF7B50700022336373B7080230E
:10276C0005680192EA685B0313430122EB602B6955
:10277C00040013432B6110236B60A9611900FFF750
:10278C0017FE032801D10320FEBD0826019B6E60B5
:10279C00310020006B61FFF70BFE0328F3D0200003
:1027AC00FFF736FF3B78032BEDD0102123689A6896
:1027BC000A439A609A680E3916439E609A680A43D7
:1027CC009A609A6801390A439A606169084A914291
:1027DC0003D0042299680A439A6001211A690A43BA
:1027EC001A610222186902431A6100203970CBE782
:1027FC00FFFF00008023034A5B0011680B4313604A
:10280C007047C0460070004010B5114C1149236848
:10281C0002000B4003432360802300209B009A425C
:10282C000ED10D4B0D49186806235843FDF778FC63
:10283C008022431CD200616908001040114200D173
:10284C0010BD002B01D0013BF5E70320F8E7C04693
:10285C0000700040FFF9FFFF0400002040420F0011
:10286C00F0B5040085B0002802D1012005B0F0BD00
:10287C000368DB0710D423689B075CD423681B0711
:10288C0000D5C1E023685B0700D5F2E0E369002BBB
:10289C0000D079E10020E9E73822AF4DAB68134056
:1028AC00EA68102B09D1D3439B0708D12B689B03F3
:1028BC00E1D56368002BDED1D7E7082BF6D0802258
:1028CC0063685202934211D12A6813432B60FFF7BD
:1028DC00C9FB80270600BF022B683B42CBD1FFF718
:1028EC00C1FB801B6428F7D90320BFE7A021C902D4
:1028FC008B4208D180232968DB020B432B602B68A9
:10290C001A432A60E3E72A6894490A402A602A6835
:10291C0093490A402A60002BD9D1FFF7A3FB8027EB
:10292C000600BF022B683B42A5D0FFF79BFB801B28
:10293C006428F7D9D8E73822874DAB681340EA688A
:10294C00102B28D103210A40022A26D12A685205CD
:10295C0003D5E268002A00D187E76968626981487B
:10296C00120201400A436A60002B0CD12B687E4A8C
:10297C007E491340226913432B602B687C4A9B04CD
:10298C005B0FDA400A607B4B1868FFF723FB0028CB
:10299C0000D173E769E7002BD8D0E368002B20D077
:1029AC002B68714A802713402269FF0013432B6068
:1029BC0080232A685B0013432B60FFF753FB060050
:1029CC002B683B4207D06A68636966491B020A4060
:1029DC0013436B6052E7FFF745FB801B0228EFD9CE
:1029EC0082E72B68644A802713402B60FFF73AFB81
:1029FC000600FF002B683B4200D13FE7FFF732FB9C
:102A0C00801B0228F6D96FE73822534DAB68134070
:102A1C00182B08D12B6E9B0700D433E7A369002B2E
:102A2C0000D02FE721E7A2690123002A10D02A6EDB
:102A3C00022713432B66FFF715FB06002B6E3B4258
:102A4C0000D01FE7FFF70EFB801B0228F6D94BE7DF
:102A5C002A6E02279A432A66FFF704FB06002B6EA8
:102A6C003B4200D10EE7FFF7FDFA801B0228F6D996
:102A7C003AE73822384DAB681340202B08D1EB6D68
:102A8C009B0700D402E7A368002B00D0FEE6ECE61F
:102A9C0080220021EB6B52050091134208D1EB6BA5
:102AAC001343EB63EB6B13400393039B01230093E2
:102ABC008027324E7F0033683B4215D0A368012B30
:102ACC0022D1EA6D1343EB65FFF7CCFA022706001F
:102ADC00EB6D3B4238D0009B012B00D0D6E6EB6B64
:102AEC00274A1340EB63D1E633683B433360FFF76F
:102AFC00B9FA019033683B42E0D1FFF7B3FA019B7E
:102B0C00C01A0228F6D9EFE6EA6D052B05D1013B78
:102B1C001343EB65EA6D0123D4E701218A43EA658F
:102B2C00EA6D03318A43EA65002BCDD1FFF79AFA9F
:102B3C0002270600EB6D3B42CDD0FFF793FA114B09
:102B4C00801B9842F6D9CFE6FFF78CFA0D4B801B11
:102B5C009842BDD9C8E6C04600100240FFFFFEFFF8
:102B6C00FFFFFBFFFF80FFFFFFC7FFFF04000020FC
:102B7C000024F40048000020FFFEFFFF007000401E
:102B8C00FFFFFFEF881300003821434DAA680A406D
:102B9C00102A53D0414A022B3AD12B68802713407C
:102BAC002B60FFF75FFA0600BF042B683B4229D16C
:102BBC00616A236AEA680B43394980260A40134349
:102BCC00E26AB6041343226B1343626B1343A26A8B
:102BDC0012021343EB6080232A685B0413432B60BF
:102BEC008023EA685B051343EB60FFF73BFA0400B4
:102BFC002B68334200D04DE6FFF734FA001B022855
:102C0C00F6D971E6FFF72EFA801B0228CDD96BE6B8
:102C1C002B68802613402B60FFF724FA0400B604BF
:102C2C002B68334204D1EB681E4A1340EB6031E64B
:102C3C00FFF718FA001B0228F2D955E6012B00D138
:102C4C0013E60322E868216A02408A4200D00CE6AF
:102C5C007022616A02408A4200D006E6FE21A26A16
:102C6C00C90101401202914200D0FEE5F822E16A4E
:102C7C00920302408A4200D0F7E5E022216B120554
:102C8C0002408A4200D0F0E5636B400F4007C01A47
:102C9C00431E9841C0B2E9E500100240FFFFFFFE61
:102CAC008C80C111FCFFFEEE382370B51D4CA26860
:102CBC001A4205D123681C489B045B0FD84070BD99
:102CCC00A2681A40082A27D0A2681A40102A17D1E5
:102CDC00E368E168DB43E5684906490F6F322D0A6A
:102CEC00013115409B0709D11048FDF719FAE1682D
:102CFC006843490F0131FDF713FAE0E70A48F4E79E
:102D0C00A2681A40202A09D0A26800201340182B70
:102D1C00D5D1FA20C001D2E70448D0E780200002C8
:102D2C00CDE7C046001002400024F40000127A00E7
:102D3C00F7B504000D00002801D10120FEBD0727C6
:102D4C00484E33683B408B422AD3226893073BD4CE
:102D5C00D20748D4072733683B40AB420AD93368C3
:102D6C00BB432B433360FFF77DF9019033683B4045
:102D7C00AB4268D123683C4D5B076CD4FFF794FFE2
:102D8C00AB683A491B051B0F9B005B581F210B407E
:102D9C00D840374A374B10601868FFF71BF9CDE75E
:102DAC003368BB430B433360FFF75CF90190336826
:102DBC003B40AB42C9D0FFF755F9019BC01A2E4BD3
:102DCC009842F4D90320B9E72749530704D5E023E7
:102DDC008868DB0103438B608B6828480340A0683C
:102DEC0003438B60B4E760681F4F032829D8FDF7B5
:102DFC008DF920021C243B689B039ED50722BB68DF
:102E0C0093430343BB60FFF72DF901903823BA6855
:102E1C001A406368DB009A429CD0FFF723F9019BB0
:102E2C00C01A154B9842F1D9CCE73B689B01E5D40D
:102E3C0083E73B685B05E1D47FE73B6E9B07DDD402
:102E4C007BE7FB6DFAE7FFF70DF9019BC01A0A4B04
:102E5C0098428BD9B6E7AB68094A1340E268134332
:102E6C00AB608BE70020024000100240985D000828
:102E7C00040000204800002088130000FFF0FFFF32
:102E8C00FF8FFFFF064B07499B68074A5B045B0FEC
:102E9C009B005B581F2110680B40D8407047C04600
:102EAC0000100240785D000804000020F0B50368B3
:102EBC00050085B000209B0352D580225F4C520543
:102ECC00E36B0090134208D1E36B1343E363E36BB2
:102EDC0013400393039B012300938027584E7F00DC
:102EEC0033683B433360FFF7BDF8019033683B42D6
:102EFC0028D0E26DC02310009B00696A514E184027
:102F0C001A4218D0814216D08022E36DE06D190070
:102F1C0052020243E265E26D4B4831400240E265E9
:102F2C00E165DB0707D5FFF79DF807000222E36D8B
:102F3C00134200D17AE0E36D6A6A334013430020F8
:102F4C00E36506E0FFF78EF8019BC01A0228CDD985
:102F5C000320009B012B03D1E36B3C4A1340E3633A
:102F6C002B68DA0706D5032434494A6DA2436C68F2
:102F7C0022434A65DA0606D53049354C4A6D224063
:102F8C00AC6822434A659A0506D52C49314C4A6DEA
:102F9C0022406C6922434A655A0506D527492E4CB6
:102FAC004A6D2240AC6922434A659A0606D52349EC
:102FBC002A4C4A6D2240EC6822434A655A040FD5CC
:102FCC001E49EC694A6D9200920822434A658022A0
:102FDC00D205944204D18022CC6852022243CA60AA
:102FEC009A020FD515491E4E4A6D2C6A3240224367
:102FFC004A658022D203944204D18022CC685204C8
:10300C002243CA601B050FD50C4A164C536D296917
:10301C0023400B4353658023DB01994204D1802369
:10302C00D1685B020B43D36005B0F0BDFFF71AF813
:10303C000D4BC01B984200D878E789E7001002407E
:10304C0000700040FFFCFFFFFFFFFEFFFFFFFFEFE4
:10305C00FFF3FFFFFFFFF3FFFFFFCFFFFFCFFFFFEC
:10306C00FFFFBFFFFF3FFFFF881300007047030007
:10307C0070B508000121002A1BD01C0028342578CB
:10308C004918012D15D01D0029352E78F1B2012ECD
:10309C0025D10F280BD8FDF739F8080E101214168D
:1030AC000A0A0A181A1C1E0A202ADA6200210023B6
:1030BC002370080070BD1A63F8E75A63F6E79A6349
:1030CC00F4E7DA63F2E71A64F0E75A64EEE79A641D
:1030DC00ECE7DA64EAE71A65E8E75A65E6E72D7883
:1030EC000121002DE3D10E28F7D00F28DFD19A65EE
:1030FC00DCE70000F7B50500022728352B78040023
:10310C003800012B25D026000123CA2229362B702A
:10311C00377023685A62773A5A62AD32914228D19D
:10312C009A692049FA270A409A619A691E49BF0098
:10313C000A409A61FEF796FF019001222368DB6832
:10314C00134207D0FF22236800205A6201233370F8
:10315C002870FEBDFEF786FF019BC01AB842ECD961
:10316C00FF22236803205A620323337000232B7041
:10317C00EFE79A690D490A409A619A690C490A402D
:10318C009A61FEF76FFF01902368DB683B42D9D14F
:10319C00FEF768FF019BC01AFA239B009842F3D9F3
:1031AC00DEE7C046FFFEFFFFFFEFFFFFFFFDFFFF67
:1031BC00FFDFFFFF036810B59A690400D20408D53D
:1031CC000122196D114204D0D96D0A43DA65C36A24
:1031DC00984723689A69920409D50222196D114205
:1031EC0005D0D96D20000A43DA65236B984701237B
:1031FC002934237010BD0000F8B50B4A0368040095
:10320C00DA60FEF72FFFFA2705002026BF0023689F
:10321C00DB68334201D00020F8BDFEF723FF401BD2
:10322C00B842F4D90320F7E75F000100F7B5402658
:10323C0003680500DA680024324211D18022D96873
:10324C00FA270A43DA60FEF70DFFBF0000902B68E7
:10325C00DB681A0032400192334201D1032C01D1B8
:10326C002000FEBDFEF7FEFE009B019CC01AB8427A
:10327C00EDD92B00032429331C70E8E7802270B5AC
:10328C000F4C0500E3689343E360A369603A134273
:10329C0007D1FFF7B1FF002802D003202935287091
:1032AC0070BDA3699343A361FFF7A6FF002802D06A
:1032BC000320293528702023A2691343A361EFE76B
:1032CC000028004070B504000120002C35D02500EA
:1032DC0029352B78DAB2002B26D1230028331A702B
:1032EC0088231B026360304BE362304B2363304B0B
:1032FC006363304BA363304BE363304B2364304B3D
:10330C006364304BA364304BE364304B2365636DD3
:10331C00002B01D12E4B6365636D20009847A36D84
:10332C00002B01D12B4BA36502232B702368DA6889
:10333C00D20603D5012300202B7070BDCA225A621D
:10334C00773A20005A62FFF771FF002825D12368D5
:10335C0021499A6960690A409A61A2689969024395
:10336C00E06902430A439A61226920001A61E2680B
:10337C00196912040A431A61FFF780FF00280CD167
:10338C002268266A9369DB00DB089361636A9169A2
:10339C003343A66933430B439361FF2223685A627C
:1033AC000028C7D0C9E7C046793000083D3800086E
:1033BC00B5370008B73700083F3800084138000817
:1033CC0043380008453800084738000849380008D9
:1033DC00B9190008151A0008BFFF8FFB0023092834
:1033EC0003D81B011843C0B270470A380133C0B26E
:1033FC00F5E700000300F0B5283385B00193170002
:10340C001A78022305000C001800012A4AD0012268
:10341C00019928000A702A00293213700292CA22DC
:10342C002B685A62773A5A62FFF700FF00282ED1B8
:10343C0062782E680392B2694023110020781940FB
:10344C00002F31D11A4200D1E170FFF7C7FF0700FE
:10345C000398FFF7C3FF0390A078FFF7BFFFE27854
:10346C00039B920510433F0438431B021843144B33
:10347C00144A18403060B36921691340B361E368A2
:10348C00B2690B4313432800B361FFF7F7FEFF2229
:10349C002B685A62002802D10123029A1370002370
:1034AC00019A137005B0F0BD1A4200D1E170039B74
:1034BC0000041B021843A3781843E3789B05D5E757
:1034CC007F7F7F00FFFFFBFFF0B50600022328364D
:1034DC000D003178040085B0180001292DD027008B
:1034EC000121293731703B70A978E8786B7801910C
:1034FC00297849030291002A21D0019A05040D4331
:10350C0015431B02CA221D43236820005A62773AD6
:10351C005A62FFF78BFE002806D1144A2368154027
:10352C0020005D60FFF7AAFEFF2223685A62002884
:10353C0001D101233B700023337005B0F0BD102284
:10354C00134202D093430A336B70FFF747FF03908B
:10355C006878FFF743FF05000198FFF73FFF039BD7
:10356C00029A1B04104303432D02CBE73FFFFF00DD
:10357C00F7B50D000100022328310E780400180065
:10358C00012E00D191E001384B70087069782668E3
:10359C0000912878AF783E33002A5ED1B2691100D1
:1035AC0019401A4200D1E970FFF718FF01900098FA
:1035BC00FFF714FF00903800FFF710FF07006B1C9B
:1035CC00D87FFFF70BFF6A69EB6900061343EA78B3
:1035DC00920513431F43019B1B041F43009B1B02BB
:1035EC001F430743AB696A681A43CA23009273628C
:1035FC006A6A773B7362AD339A4257D10125B3693E
:10360C003C4A1340B361F36D2B43F365FEF72AFD7F
:10361C00FA260190B6002368DA682A4234D0009A60
:10362C001F645A648022996952000A439A6180226D
:10363C00996952010A439A6180232F4A1B03D16F67
:10364C0000200B43D367FF2223685A622300FE3A03
:10365C00293328341A70207027E0B2691100194000
:10366C001A4200D1E970EB696A69000413431F43E5
:10367C00009B07431B021F43EB789B051F436B1CEE
:10368C00DB7F1B061F43ADE7FEF7ECFC019BC01A6A
:10369C00B042C0D9FF22236803205A622300FC3AAF
:1036AC0029331A70002328342370FEBD0225B36918
:1036BC00124A1340B361F36D2B43F365FEF7D2FC52
:1036CC00FA260190B6002368DA682A420BD0009AD9
:1036DC009F64DA648022996992000A439A6180227D
:1036EC0099699201A6E7FEF7BDFC019BC01AB04296
:1036FC00E9D9CFE7FFFEFFFF04180240FFFDFFFFF3
:10370C00030902000A200F2158430A408018C0B256
:10371C007047000070B50C0001688B6863600B6922
:10372C005B045B0CA3600B680D490B4098021D0AEF
:10373C00DEB2800EEDB29B0D20706570A670E3704A
:10374C00002A0AD1FFF7DCFF20702800FFF7D8FF12
:10375C0060703000FFF7D4FFA070002070BDC04631
:10376C007F7F7F0070B50C0003680E495B680B40CF
:10377C00180CDD04DEB21B04ED0E5B0FE0706570FF
:10378C00A6702370002A0AD1FFF7BAFFE070280058
:10379C00FFF7B6FF60703000FFF7B2FFA07000209B
:1037AC0070BDC0463FFFFF0070477047F0B5050085
:1037BC0085B0039302230191029228352A780400E4
:1037CC001800012A1BD026000122802729362A70D6
:1037DC0033702368C9325A62773A5A62DB687F02C7
:1037EC003B420ED10399029B22680B4301990020A6
:1037FC000B439362FF235362FE3B3370287005B07A
:10380C00F0BDFEF72FFC00902368DB683B42E9D04B
:10381C00FEF728FC009BC01AFA239B009842F3D9B0
:10382C00FF22236803205A62002330702B70E6E7D6
:10383C00704770477047704770477047704700007B
:10384C0070B50124036A026AA24302624468124AF8
:10385C00856915400A681543022293438A6813430D
:10386C000E4A904205D00E4A904202D00D4A904228
:10387C000BD108229343CA688E69134304229343E5
:10388C00094A22404C69344314434A6844608561B8
:10389C004263036270BDC0468CFFFEFF002C0140EA
:1038AC000044014000480140FFFCFFFF70B5174A7F
:1038BC00056A036A134003624268154BC4691C40D5
:1038CC000B681C43134B1D408B681B022B43124D82
:1038DC00A8420ED1114D1D40CB681B022B43104D3D
:1038EC002B40104D8E6915404A69324312012A4310
:1038FC0005E00D4DA842F4D00C4DA842F1D0426029
:10390C004A68C461C263036270BDC046FFFEFFFF1C
:10391C008CFFFEFFFFFDFFFF002C0140FFF7FFFFB8
:10392C00FFFBFFFFFFCFFFFF0044014000480140B9
:10393C0030B5124A046A036A114D1340036243689E
:10394C00C2692A400D682D0215430E4A14408A683C
:10395C00120322430C4CA04205D00C4CA04202D0C6
:10396C000B4CA04204D10B4C1C404B699B012343D4
:10397C0043604B68C5610364026230BDFFEFFFFF1B
:10398C00FF8CFFFEFFDFFFFF002C014000440140D5
:10399C0000480140FFBFFFFF70B5066A104C036A78
:1039AC00104A234003624368456D15400A6815436D
:1039BC000D4A16408A68120432430C4EB04205D0B0
:1039CC000B4EB04202D00B4EB04203D11C404B699F
:1039DC001B02234343604B6845658365026270BDDF
:1039EC00FFFFFEFF8FFFFEFFFFFFFDFF002C0140DE
:1039FC00004401400048014030B5124A046A036A91
:103A0C00114D134003624368426D2A400D682D022C
:103A1C0015430E4A14408A68120522430C4CA042EE
:103A2C0005D00C4CA04202D00B4CA04204D10B4C44
:103A3C001C404B699B02234343604B684565C3653F
:103A4C00026230BDFFFFEFFFFF8FFFFEFFFFDFFFC6
:103A5C00002C01400044014000480140FFFFFBFFE7
:103A6C007047704770477047704770477047704792
:103A7C00704770477047704701000300012010B574
:103A8C003D310C78E2B2844219D1001808701B68E1
:103A9C000C498B4206D08021C9058B4202D00A49C1
:103AAC008B420DD19A6809490A40062A06D007397B
:103ABC008A4203D0012219680A431A60002010BD03
:103ACC001968F9E7002C01400004004007000100D0
:103ADC00F7B53E22030094461F00844462461E0044
:103AEC001D003F3710783A784436D2B201924535F2
:103AFC0034782A78C0B2E4B2D2B2002915D10128A8
:103B0C0044D1012C10D1022261460A7032701A681D
:103B1C00116AA1431162116A214311621A680123CF
:103B2C00002011680B431360FEBD042910D1012045
:103B3C0001998142F8D18242F6D1022210213A70C9
:103B4C002A701A68106A88431062106A0143E4E70D
:103B5C0001281BD101990129E6D1012CE4D1012ABC
:103B6C00E2D16046013101703970317029701968E9
:103B7C00086A90430862086A02430A621022086AC3
:103B8C0090430862086A02430A62C7E70120CBE748
:103B9C000222036870B5DD681E690400164210D05D
:103BAC0015420ED0053A1A61043202779B699B07C5
:103BBC0000D190E0030094331B6820009847002349
:103BCC00237704231E4214D01D4212D005222368F1
:103BDC0052421A61073222779A69C0239B001A421B
:103BEC0000D17FE0230094331B682000984700230A
:103BFC00237708231E4212D01D4210D009222368BD
:103C0C0052421A610D322277DB699B0700D171E0B9
:103C1C00230094331B68200098470023237710233C
:103C2C001E4213D01D4211D01122236852421A6138
:103C3C0019322277DA69C0239B001A4262D0230022
:103C4C0094331B68200098470023237701231E42DE
:103C5C000AD01D4208D00222236852421A61230066
:103C6C0008332000DB6F984782239B011E4209D04A
:103C7C002B0607D52368274A20001A612300B4338A
:103C8C001B689847F30509D52B0607D52368224AEC
:103C9C0020001A612300B8331B68984740231E424A
:103CAC000AD01D4208D04122236852421A612300D7
:103CBC008C3320001B68984720231E420AD01D42DB
:103CCC0008D02122236852421A612300AC33200011
:103CDC001B68984770BD03009C331B6898472300F2
:103CEC00A03369E723009C331B682000984723000E
:103CFC00A03379E723009C331B68200098472300EE
:103D0C00A03387E723009C331B68200098472300CF
:103D1C00A03396E77FDFFFFFFFFEFFFF030030B508
:103D2C0008000121002A1DD01C003D342578E9B281
:103D3C00012D31D11B2815D8FCF7E8F93D3F414343
:103D4C004547494B4D4F51530F550E1116181A1C20
:103D5C001E20222426282A2C0833DA6701E0883317
:103D6C001A600021080030BD8C33F9E79033F7E777
:103D7C009433F5E79833F3E79C33F1E7A033EFE79F
:103D8C00A433EDE7A833EBE7AC33E9E7B033E7E76F
:103D9C00B433E5E7B833E3E724780121002CE1D113
:103DAC000D28DFD8FCF7A8F907090B0D0F11131517
:103DBC0017191B1DD91FDA64D3E71A65D1E75A65A9
:103DCC00CFE79A65CDE7DA65CBE71A66C9E75A669D
:103DDC00C7E79A66C5E7DA66C3E71A67C1E75A67A9
:103DEC00BFE79A67BDE70433B7E7000010B51C4C7A
:103DFC000368A04206D08022D205904202D0194A14
:103E0C00904208D1702293434A681343164A1A40D1
:103E1C00CB68134308E0154A9042F7D0144A9042FD
:103E2C00F4D0144A9042F1D0802293434A69134350
:103E3C0003608B68C3620B688362A04205D00C4B95
:103E4C00984202D00B4B984201D10B6903630122BB
:103E5C0042610369134202D003699343036110BDAD
:103E6C00002C014000040040FFFCFFFF002000403C
:103E7C000044014000480140102270B5056A036AF5
:103E8C00164C934303624268836923400C682402F6
:103E9C001C4320239D438B681B012B43104DA842D0
:103EAC000FD18025AB431E00CB68403D1B01334333
:103EBC00AB430C4D8E6915404A69324392002A433C
:103ECC0005E0094DA842F4D0084DA842F1D042605B
:103EDC004A6884618263036270BDC046FF8CFFFE3A
:103EEC00002C0140FFF3FFFF00440140004801405B
:103EFC0070B504003C34257803000220012D0BD052
:103F0C000C2A1FD009D8042A14D0082A16D0002A4B
:103F1C000BD001200023237070BD102A16D0142A58
:103F2C00F7D11868FFF768FD02E01868FFF788FC06
:103F3C000020EFE71868FFF79FFFF9E71868FFF715
:103F4C00B5FCF5E71868FFF7F3FCF1E71868FFF725
:103F5C0023FDEDE7F8B507003C3715003A78030070
:103F6C000C000220012A0CD0013838700C2D51D0D5
:103F7C0008D8042D2DD0082D3CD0002D17D00023AF
:103F8C003B70F8BD102D58D0142DF8D11D682800A9
:103F9C00FFF732FD80236A6D1B0113436B656B6D5C
:103FAC002E4A13406B6523696A6D1B0253E01D6832
:103FBC002800FFF745FC0823AA6913430422AB61D0
:103FCC00AB699343AB61AB6922691343AB610020CE
:103FDC00D5E71D682800FFF74FFF8023AA691B0156
:103FEC001343AB61AB691D4A1340AB612369AA69EA
:103FFC001B02EAE71E683000FFF758FC0422F36945
:10400C001D43F561F3699343F361F369226913432B
:10401C00F361DCE71D682800FFF78AFC8023EA695E
:10402C001B011343EB61EB690C4A1340EB612369F1
:10403C00EA691B021343EB61C9E71D682800FFF70F
:10404C00ABFC08236A6D134304226B656B6D9343C1
:10405C006B656B6D226913436B65B8E7FFFBFFFF64
:10406C0030B58468034D0A431B022C401343234391
:10407C00836030BDFF00FFFFF8B5050002223C3520
:10408C002C7803001000012C1BD01E0001383D368B
:10409C00287032701C68414AA3681340A3600B68F7
:1040AC00602B4ED02DD8402B62D013D8202B0BD0A8
:1040BC0008D810221900914306D001233370002335
:1040CC002B70F8BD302BF8D1A26835490A40134348
:1040DC00072228E0502BF0D14A68CB68216A276A66
:1040EC001B0187432762F027A069B84303430A20CA
:1040FC0081430A43A3612262294BA2681A405723C9
:10410C0011E08022520193420FD0802292019342FF
:10411C000DD0702BD1D1CB684A6820008968FFF78D
:10412C009FFF7723A2681343A3600020C5E7CB68E9
:10413C004A6820008968FFF793FF8023A268DB019F
:10414C00F1E710274B68CA68216A206A1203B8434A
:10415C002062A069134F1B0138400243A020814309
:10416C000B43A2612362A2680D4B1A406723DAE766
:10417C004A68CB68216A276A1B0187432762F027AC
:10418C00A069B84303430A2081430A43A361226216
:10419C00034BA2681A404723C5E7C0468800CEFFF0
:1041AC008FFFCFFFFF0FFFFF1F2310B50124194016
:1041BC008C408A40036AA3430362036A1A43026277
:1041CC0010BD0000020010B508291CD006D800292B
:1041DC000BD0042914D01300433308E00C2915D05C
:1041EC001029F8D10300423301E003003E331B7861
:1041FC00013B581E8341DBB20120002B09D010BDBE
:10420C0003003F33F3E703004033F0E7030041338F
:10421C00EDE70223082930D006D800290BD0042959
:10422C0028D01000433008E00C2929D01029F8D1EF
:10423C001000423001E010003E300370146801227F
:10424C002000FFF7B1FF184A944205D0174B9C424F
:10425C0002D0174B9C4216D18023616C1B020B437E
:10426C006364944216D1A368124A1340062B16D1EC
:10427C000020C4E710003F30DFE710004030DCE7DF
:10428C0010004130D9E78023DB059C42EBD00A4B70
:10429C009C42E8D00123226813432360E8E7802284
:1042AC0052029342F6D1E3E7002C01400044014056
:1042BC0000480140070001000004004010B5FFF762
:1042CC0081FF10BD10B508291CD006D800290BD0D1
:1042DC00042914D00300433308E00C2915D010290D
:1042EC00F8D10300423301E003003E331B78013B5D
:1042FC005A1E9341DBB2002B0AD001203BE0030095
:10430C003F33F3E703004033F0E703004133EDE7BD
:10431C000223082938D005D800290AD004292BD02B
:10432C00433004E00C2932D01029F9D1423003700B
:10433C00E3E702003E3213700468E2681343E36063
:10434C00046801222000FFF72FFF1D4A944205D07C
:10435C001C4B9C4202D01C4B9C4220D18023616C94
:10436C001B020B436364944220D1A368174A134089
:10437C00062B20D1002010BD02003F3213700268C2
:10438C00D3680B43D360DBE702004032F6E7020050
:10439C004132137010230268D4682343F2E7802360
:1043AC00DB059C42E1D00A4B9C42DED00123226803
:1043BC0013432360DEE7802252029342F6D1D9E701
:1043CC00002C01400044014000480140070001005E
:1043DC000004004070B504000E00082911D005D867
:1043EC00002909D004290CD0012070BD0C29FBD167
:1043FC0002681021D36802E002210268D3688B4363
:10440C0002E02268D368B3432568D36031000022F0
:10441C002800FFF7C9FE184B184A9D4205D0184BCF
:10442C009D4202D0174B9D420AD12B6A134207D1F1
:10443C00296A154B194203D16B6C14490B406B6400
:10444C002B6A134207D12A6A0F4B1A4203D101225D
:10445C002B6893432B600123002E03D13E340020A4
:10446C002370C2E7042E01D13F34F8E7082E01D1A6
:10447C004034F4E74134F2E7002C01401111000004
:10448C00004401400048014044040000FF7FFFFF4E
:10449C000300104A0833DA670F4A80331A600F4A58
:1044AC00B8305A600E4A9A600E4ADA600E4A1A61A7
:1044BC000E4A5A610E4A9A610E4ADA610E4A1A6223
:1044CC000E4A5A620E4A9A620E4ADA620E4B036028
:1044DC007047C046713A0008733A00087F3A0008EA
:1044EC00813A0008773A0008793A0008753A0008D2
:1044FC007B3A00087D3A0008833A000835480008EA
:10450C0037480008394800083B48000870B50400DB
:10451C000120002C2BD025003D352B78DAB2002B56
:10452C000DD123003C331A702000FFF7B1FFE36C70
:10453C00002B01D10E4BE3642000E36C984702235F
:10454C002B702068211DFFF751FC22000123002055
:10455C004832137047340A3A137053709370D37007
:10456C00137153719371D371137223702B7070BDCF
:10457C00411A000870B504000120002C2BD0250036
:10458C003D352B78DAB2002B0DD123003C331A7059
:10459C002000FFF77DFFE36D002B01D10E4BE3658F
:1045AC002000E36D984702232B702068211DFFF734
:1045BC001DFC2200012300204832137047340A3AB4
:1045CC00137053709370D370137153719371D371C3
:1045DC00137223702B7070BD6D3A000870B5040017
:1045EC000120002C2BD025003D352B78DAB2002B86
:1045FC000DD123003C331A702000FFF749FF636E86
:10460C00002B01D10E4B63662000636E984702238A
:10461C002B702068211DFFF7E9FB220001230020ED
:10462C004832137047340A3A137053709370D37036
:10463C00137153719371D371137223702B7070BDFE
:10464C006F3A0008F7B504000D000120002C4FD084
:10465C0026003D363378DAB2002B0DD123003C33E3
:10466C001A702000FFF714FF636F002B01D1214B50
:10467C0063672000636F984702232100337080C961
:10468C001D4ABB6838001340BB60FFF7AFFBB9682D
:10469C002A68BB691143194A01911340AA69A96898
:1046AC0012020A431A43164B29691A40EB69090195
:1046BC001B020B43E968386A0B43296A09030B4355
:1046CC001343AA2290436A696D68120101992A4327
:1046DC000243B960BB613A622200012300204832D8
:1046EC00137045340A3A13705370937123703370FE
:1046FC00FEBDC046351B0008F8BFFEFFFCFCFFFFEB
:10470C000303FFFFF0B5040002223C3425780300BC
:10471C001000012D23D01D003D352A701A68104E53
:10472C0053689068B24203D10E4F3B404F683B43F5
:10473C007027BB430F683B435360B24206D08023C3
:10474C00DB059A4202D0084B9A4204D1802398434D
:10475C008B6818439060012300202B702070F0BDF3
:10476C00002C0140FFFF0FFF0004004010B50400B7
:10477C003C34237802000220012B39D01D48CB6831
:10478C000340886803431C480340486803431B48A4
:10479C000340086803431A48034008690343194857
:1047AC0003404869034318480340086B0343174808
:1047BC00034088690004034315480340C869034358
:1047CC001068144A904210D1134A13408A6A120599
:1047DC001A43124B1A400B6A1A43114B1A404B6A7C
:1047EC001A43104B1A40CB6A1343436400202070C9
:1047FC0010BDC046FFFCFFFFFFFBFFFFFFF7FFFFF5
:10480C00FFEFFFFFFFDFFFFFFFBFFFFFFFFFF0FF2B
:10481C00FFFFFFEF002C0140FFFF0FFFFFFFFFFE2C
:10482C00FFFFFFFDFFFFFFDF7047704770477047CA
:10483C007047000030B5EFF31084012282F310882A
:10484C000168134D0B682B400B6084F31088EFF359
:10485C00108182F3108802680E4C93682340936099
:10486C0081F31088C36E012B0AD1EFF3108183F30F
:10487C001088102402681368A343136081F3108816
:10488C00030020228C331A600023C366436730BDBB
:10489C00DFFEFFFFFEFFFFEF806A002302005E32A7
:1048AC0010B5083A138113800300A4331B68984792
:1048BC0010BD00000100F8B503008C310C686033AA
:1048CC001A880368222C5DD15B6A846D1340020048
:1048DC002370836D5E32013383651388013B9BB279
:1048EC00138013889CB2002B46D1EFF31086013352
:1048FC0083F310880568264F2A683A402A6086F3AD
:10490C001088EFF3108683F310880568AA689A4321
:10491C00AA6086F3108820220A6002681D49446749
:10492C0004678A420DD0526812020AD5EFF3108147
:10493C0083F310880268184C13682340136081F3CA
:10494C001088C36E012B18D10022C266EFF31084BD
:10495C0083F3108801680F330A689A430A6084F362
:10496C0010880268D169194200D0136203005C33CD
:10497C00198864331B689847F8BD0300A0331B6883
:10498C009847F9E7082299690A439A61F4E7C04607
:10499C00DFFEFFFF00800040FFFFFFFB0300F0B5D0
:1049AC0060331B8885B0029303680400DD691A68C4
:1049BC0003929A68019202008C321268222A00D06B
:1049CC00CCE0030068331B88002B02D020231D424F
:1049DC0008D123005E331B889AB2002B00D09DE0D7
:1049EC0005B0F0BD2600236802995B6AA26D0B40EE
:1049FC001370A36D5E360133A36533882268013BC7
:104A0C009BB233800723D5691D4231D0063B1D4232
:104A1C0008D00399C90505D52100136290310868A7
:104A2C0003430B6002231D4209D00199C90706D527
:104A3C002100136290310868DB1803430B600423D8
:104A4C001D4209D00199C90706D513622200903284
:104A5C001168023B0B431360270090373B68002B17
:104A6C0006D02300A4331B682000984700233B602A
:104A7C00338899B2002BA9D1EFF31086013383F35D
:104A8C0010882068384F02683A40026086F310881C
:104A9C00EFF3108683F310882068344F82683A4015
:104AAC00826086F31088220020208C3210606167AF
:104ABC00216722682E498A420DD0526812020AD50B
:104ACC00EFF3108183F3108822682A48136803409F
:104ADC00136081F31088E36E012B19D10022E2667A
:104AEC00EFF3108083F3108821680F330A689A4320
:104AFC000A6080F310882268D169194200D01362D1
:104B0C0023005C331988643320001B6898475DE7E9
:104B1C002300A03320001B68984757E72300683315
:104B2C001B88934200D85BE7EFF31080012282F3DD
:104B3C0010882168104D8B682B408B6080F3108897
:104B4C000E4B6367EFF3108182F3108820232268E9
:104B5C0010680343136081F3108841E708229969B8
:104B6C000A439A613CE7C046FFFEFFFFFEFFFFEFE2
:104B7C0000800040FFFFFFFBFFFFFFEFC148000874
:104B8C000300F0B560331B8885B002930368040002
:104B9C00DD691A6803929A68019202008C321268DD
:104BAC00222A00D0CAE0030068331B88002B02D0F5
:104BBC0020231D4208D123005E331B889AB2002BA0
:104BCC0000D09BE005B0F0BD260023680298596A1E
:104BDC00A26D014011800232A2655E363288013A24
:104BEC0092B232800722DD69154231D0063A154265
:104BFC0008D00399C90505D521001A6290310868BF
:104C0C0002430A600222154209D00199C90706D550
:104C1C0021001A6290310868921802430A6004223B
:104C2C00154209D00199C90706D51A622200022340
:104C3C00903211680B431360270090373B68002BB0
:104C4C0006D02300A4331B682000984700233B6048
:104C5C00338899B2002BABD1EFF31086013383F379
:104C6C0010882068384F02683A40026086F310883A
:104C7C00EFF3108683F310882068344F82683A4033
:104C8C00826086F31088220020208C3210606167CD
:104C9C00216722682E498A420DD0526812020AD529
:104CAC00EFF3108183F3108822682A4813680340BD
:104CBC00136081F31088E36E012B19D10022E26698
:104CCC00EFF3108083F3108821680F330A689A433E
:104CDC000A6080F310882268D169194200D01362EF
:104CEC0023005C331988643320001B6898475FE706
:104CFC002300A03320001B68984759E72300683332
:104D0C001B88934200D85DE7EFF31080012282F3F9
:104D1C0010882168104D8B682B408B6080F31088B5
:104D2C000E4B6367EFF3108182F310882023226807
:104D3C0010680343136081F3108843E708229969D4
:104D4C000A439A613EE7C046FFFEFFFFFEFFFFEFFE
:104D5C0000800040FFFFFFFBFFFFFFEFFD4E000850
:104D6C0030B5EFF31084012282F31088802501689E
:104D7C000B68AB430B6084F31088EFF3108182F364
:104D8C0010884023026810680343136081F3108875
:104D9C0030BD030088331B6810B5212B06D10200EF
:104DAC0056321388002B02D1FFF7DAFF10BD036DCA
:104DBC0001681C7801338C6203651388013B9BB23C
:104DCC001380F3E7030088331B6810B5212B06D141
:104DDC00010056310B88002B02D1FFF7C1FF10BD2B
:104DEC00026D046813880232DB05DB0DA3620265D9
:104DFC000B88013B9BB20B80F1E70000030088336A
:104E0C001B6870B5212B21D10300010080246A336B
:104E1C001B885631002B19D00A88002A17D1EFF3C2
:104E2C001084013282F310880168114D8B682B407D
:104E3C008B6084F31088EFF3108182F31088402389
:104E4C00026810680343136081F3108870BD056815
:104E5C00EA69224208D0026D16780132AE62026510
:104E6C000A88013A92B20A80013B9BB2D2E7C04653
:104E7C00FFFF7FFF030088331B6870B5212B21D106
:104E8C000300010080246A331B885631002B19D093
:104E9C000A88002A17D1EFF31084013282F31088AC
:104EAC000168124D8B682B408B6084F31088EFF3F4
:104EBC00108182F31088402302681068034313604A
:104ECC0081F3108870BD0668F26922420AD0056D24
:104EDC002A880235D205D20DB26205650A88013ADC
:104EEC0092B20A80013B9BB2D0E7C046FFFF7FFF26
:104EFC000200F8B503008C32116860331C8803681B
:104F0C0022295CD1596A836D21401980010002333A
:104F1C0083655E310B88013B9BB20B800B889CB286
:104F2C00002B46D1EFF31086013383F3108805680C
:104F3C00254F29683940296086F31088EFF31086D5
:104F4C0083F310880568A9689943A96086F31088D3
:104F5C002021116002681D49446704678A420DD004
:104F6C00526812020AD5EFF3108183F3108802689D
:104F7C00174C13682340136081F31088C36E012B08
:104F8C0018D10022C266EFF3108483F310880168F5
:104F9C000F330A689A430A6084F310880268D16957
:104FAC00194200D0136203005C33198864331B6808
:104FBC009847F8BD0300A0331B689847F9E708220F
:104FCC0099690A439A61F4E7DFFEFFFF0080004015
:104FDC00FFFFFFFB70477047704770477047704783
:104FEC0070477047030010B50800002A06D1402214
:104FFC009033196801200A431A6012E019008831B5
:10500C000C68202C24D10C28F1D8FBF77FF8070B67
:10501C000D0F11131517191B1D1F28009433002099
:10502C001A6010BD9833FAE79C33F8E7A033F6E723
:10503C00A433F4E7A833F2E7AC33F0E7B033EEE790
:10504C00B433ECE7B833EAE7BC33E8E7C433E6E75C
:10505C0009680029CBD10B28F8D00C28C7D1C8334C
:10506C00DDE7000030B5050088352C680300022010
:10507C00202C38D10138002935D0002A33D080209B
:10508C009C684001844205D11869002802D1013086
:10509C00014228D11965190054310A804A801A003E
:1050AC00002190321160212280212A608022586ECA
:1050BC0092054901904217D1154A8C4204D11969C5
:1050CC00144A002900D0124A9A67EFF3108101228A
:1050DC0082F310881A68802390681B040343936042
:1050EC0081F31088002030BD0B4A8C4204D1196921
:1050FC000A4A002900D0084A9A67EFF3108101226E
:10510C0082F310881A688023106803431360E7E762
:10511C00094E0008814E00089F4D0008D14D000833
:10512C00F7B50168C24DCB6904000A6888682B4248
:10513C0010D120252B4200D19EE08026760515400B
:10514C000640354300D197E0636F002B00D192E00D
:10515C00200084E0B74D05400095B74D009E1540EA
:10516C00354300D188E0250001269035334205D027
:10517C00D70503D50E622F683E432E6002263342BC
:10518C000CD0C7070AD527000E6290373E680197EE
:10519C00B446042667463E43019F3E6004263342D4
:1051AC000CD0C7070AD527000E6290373E680197CE
:1051BC00B446022667463E43019F3E600826B4462D
:1051CC00334209D02027009E1740374304D066464F
:1051DC000E622F683E432E6080263601334206D085
:1051EC00570104D50E6220212E68314329602968AD
:1051FC00002940D020210B420AD080235B051140AE
:10520C000340194304D0636F002B01D02000984752
:10521C0022682B684027966828223E4013401E4384
:10522C0023D02000FFF706FB23689B683B4218D075
:10523C00EFF31081012383F31088250004CD9368CC
:10524C00BB43936081F31088E86F002809D07B4B37
:10525C008363FCF7A9FF00280DD0E86F836B984798
:10526C0009E02300A4331B6872E72300A433200059
:10527C001B6898472E60F7BDE56E012D00D0A1E0AC
:10528C001026334200D19DE0324200D19AE00E62EA
:10529C00896840230A001A40194259D0211DCA6F4F
:1052AC001068426892B2002AE5D027005C373F882C
:1052BC009742E0D927005E373A8002682020844666
:1052CC00104000906046024232D1EFF3108785F314
:1052DC00108820685A4E02683240026087F31088AA
:1052EC00EFF3108785F3108820688268AA438260E8
:1052FC0087F31088EFF3108785F310882068826895
:10530C009A43826087F31088230062468C331A60BC
:10531C00009BE366EFF3108085F3108822680F354D
:10532C001368AB43136080F31088C86FFCF702FF5F
:10533C0002232200236723005C325E331B88118812
:10534C00C91A89B22300C03320001B68984792E722
:10535C00230020005C335E301988038800889BB2E0
:10536C00002800D187E7C91A89B2002900D182E749
:10537C00EFF3108785F310882068324E03683340B2
:10538C00036087F31088EFF3108785F3108820688B
:10539C002D4E83683340836087F3108823002020D0
:1053AC008C331860E2666267EFF3108085F3108827
:1053BC00102522681368AB43136080F31088022316
:1053CC002367BFE780256D032B4205D0460203D52A
:1053DC0023000D62B43346E780210B4207D08025B1
:1053EC002D0411402840014301D0A36FADE64021AC
:1053FC000B4215D00A4213D0EFF31080012383F334
:10540C001088226813688B43136080F31088230084
:10541C00202288331A600023A3672300983322E7E5
:10542C00190213D5510011D52300BC331BE7C0461C
:10543C000F0800000100001020010004A54800081E
:10544C00FFFEFFFFDFFEFFFFFEFFFFEFDB0100D4DF
:10545C0011E7002A00DB0EE72300B83303E7C04650
:10546C0003000D4A94331A600C4AC0305A600C4A3F
:10547C009A600C4ADA600C4A1A610C4A5A610C4A5E
:10548C009A610C4ADA610C4A1A620C4A5A620C4A4A
:10549C009A620C4B03607047E54F0008E34F00081D
:1054AC00E94F0008E74F0008EB4F0008ED4F0008EC
:1054BC00EF4F0008E14F0008015B0008035B000898
:1054CC00055B00083D480008F8B504002569A26892
:1054DC0023682A4365691968C0692A43664D0243EB
:1054EC0029400A431A605A686449A5690A40E16870
:1054FC000A4363495A608B4201D0226A15439A6869
:10550C00604E32402A430F259A60DA6AAA43656AD4
:10551C002A43DA625C4A934214D15C4B5A6D0323E2
:10552C001A4080231B02022A00D195E0032A00D1E5
:10553C009EE0012A00D196E0984200D078E0FDF779
:10554C00A1FC55E0524A934200D189E08B4210D124
:10555C00C02280214D4B12015B6D090113408B421F
:10556C0014D004D8002B06D1FDF78CFC05E0934237
:10557C0039D0012004E0FDF797FB061E07D100206F
:10558C00444BA36600236367A367F8BD424E626A6F
:10559C00424B5200D75A30003900FAF7C1FD0323B1
:1055AC0065686B438342E4D82B038342E1D3002329
:1055BC003A0030001900FAF73FFE0027060E0B02E6
:1055CC00334302026E0892197B41100019002A0025
:1055DC003B00FAF731FE324BC218324B9A42C8D814
:1055EC002368D860CBE780263602D0E7FDF75CFB5A
:1055FC000028C4D0626A294B5200D15AFAF790FDA8
:10560C00656840006B08C0182900FAF789FD020094
:10561C00254B103A9A42ACD80F23020000079A434C
:10562C0093B2400F22680343D360A8E71A48E1E71E
:10563C00FDF728FC0028A2D0626A184B5200D15A00
:10564C00FAF76EFD65686B08C0182900FAF768FD5B
:10565C000200154B103AC1E79842E7D00E48EBE731
:10566C0080231B0268E79842C0D0FDF71DFBE1E7E1
:10567C009842BFD01800DFE7F369FFCFFFCFFFFFE1
:10568C0000800040FFF4FF11003801400010024080
:10569C0000440040010001000024F400D85D000823
:1056AC0000FDFFFFFFFC0F00EFFF0000836A30B529
:1056BC001A0706D50168284C4A682240846B22439D
:1056CC004A60DA0706D50168244C4A682240C46A4D
:1056DC0022434A609A0706D50168214C4A68224049
:1056EC00046B22434A605A0706D501681D4C4A6870
:1056FC002240446B22434A60DA0606D501681A4CF4
:10570C008A682240C46B22438A609A0606D50168D7
:10571C00164C8A682240046C22438A605A0610D5C3
:10572C000168134D4A68446C2A4022434A60802227
:10573C005203944205D14A680E4C2240846C224399
:10574C004A601B0606D502680B4953680B40C16CB6
:10575C000B43536030BDC046FF7FFFFFFFFFFDFFD3
:10576C00FFFFFEFFFFFFFBFFFFEFFFFFFFDFFFFF72
:10577C00FFFFEFFFFFFF9FFFFFFFF7FFF7B50400F1
:10578C000D00170000932268D3692B405B1B594214
:10579C004B41BB4201D0002026E0089B0133F3D0E3
:1057AC00FCF760FC009BC01A089B98422DD8002B7C
:1057BC002BD023681A685207E5D52A004021403ABD
:1057CC008A43E0D0DA690826110031400191324257
:1057DC000BD020001E62FFF72DF8230090331E60C3
:1057EC000023012084342370FEBD8022D96912016C
:1057FC001142C8D01A622000FFF71CF823002022A7
:10580C0090331A60019B843423700320ECE7000072
:10581C00030073B50026040090331E60FCF722FCD5
:10582C00236805001B681B071FD58021284B3200FD
:10583C000093890303002000FFF7A0FFB04214D0AF
:10584C00EFF31081012383F3108880202268136802
:10585C008343136081F310882300202288331A605D
:10586C00032000238434237076BD260023688C36F5
:10587C001B685B0723D58021154B00220093200069
:10588C002B00C903FFF77AFF002818D0EFF3108024
:10589C00012282F3108821680E4D0B682B400B609F
:1058AC0080F31088EFF3108082F3108821688B68E6
:1058BC0093438B6080F3108820233360D0E7230060
:1058CC002022002088331A603260E0662067C8E727
:1058DC00FFFFFF01DFFEFFFF70B5041E01D10120A9
:1058EC0070BD050088352B68002B0ED10200843268
:1058FC001370FFF7B5FD2300C4331A68002A01D1D9
:10590C00134A1A6020001B6898472423012122683F
:10591C002B6013688B431360A36A002B02D020000A
:10592C00FFF7C4FE2000FFF7CFFD0128D7D0236876
:10593C0008495A6820000A402A215A609A688A430A
:10594C009A60012219680A431A60FFF761FFC7E7E2
:10595C00311C0008FFB7FFFF03005C3370B5816595
:10596C0080241A805A800023816843676401A14215
:10597C003CD1036959424B411B02FF33010060319A
:10598C000B8003000021903319602231043B196015
:10599C00EFF31084012383F3108801688D682B4387
:1059AC008B6084F3108880258021466E846803699F
:1059BC00AD054901AE423FD1050068352D889542B1
:1059CC003AD88C4233D1002B22D12C4B4367EFF3C6
:1059DC001081012383F31088802302685B05906893
:1059EC000343936081F31088002070BD002905D11A
:1059FC000169FF230029C1D0803BBFE780246405E7
:105A0C00A142BBD101697F230029B7D0403BB5E748
:105A1C001B4B4367EFF31081012383F3108802685B
:105A2C00FF3314682343136081F31088CFE7144AC3
:105A3C004267002BCBD0EDE78C421AD1002B0AD158
:105A4C00104B4367EFF31081012383F31088026836
:105A5C001F3310680AE00C4B4367EFF310810123EE
:105A6C0083F31088026820331068FF3303431360FC
:105A7C00B8E7054A4267002BEFD1E3E78D4B0008EE
:105A8C00A9490008FD4E0008C148000803008C30ED
:105A9C0070B504680220202C28D10138002925D0AB
:105AAC00002A23D080209C684001844205D11869CB
:105ABC00002802D10130014218D100200C4CD866CC
:105ACC001868A0420FD0406800020CD5EFF3108587
