:020000040800F2
:1000000000200020BD1C00081D1C00081F1C00084B
:1000100000000000000000000000000000000000E0
:10002000000000000000000000000000211C00088B
:100030000000000000000000231C0008251C000830
:100040000D1D00080D1D0008751C00080D1D000881
:100050000D1D00082D1C00080D1D0008371C000890
:10006000000000000D1D00080D1D00080D1D0008FA
:100070000D1D00080D1D00080D1D00080D1D0008B8
:100080000D1D0008851C00080D1D0008451C0008FA
:1000900000000000551C0008651C00080D1D00082C
:1000A0000D1D00080D1D00080D1D00080D1D000888
:0C00B0000D1D00080D1D000800000000E0
:1000BC0010B5064C2378002B07D1054B002B02D032
:1000CC00044800E000BF0123237010BD5000002045
:1000DC0000000000544A0008044B10B5002B03D05C
:1000EC000349044800E000BF10BDC04600000000FA
:1000FC0054000020544A000802B4714649084900D3
:10010C00095649008E4402BC7047C04602B4714681
:10011C0049084900095C49008E4402BC7047C0463E
:10012C00002243088B4274D303098B425FD3030A2A
:10013C008B4244D3030B8B4228D3030C8B420DD33D
:10014C00FF22090212BA030C8B4202D312120902CB
:10015C0065D0030B8B4219D300E0090AC30B8B4209
:10016C0001D3CB03C01A5241830B8B4201D38B03B7
:10017C00C01A5241430B8B4201D34B03C01A52415C
:10018C00030B8B4201D30B03C01A5241C30A8B429F
:10019C0001D3CB02C01A5241830A8B4201D38B028A
:1001AC00C01A5241430A8B4201D34B02C01A52412E
:1001BC00030A8B4201D30B02C01A5241CDD2C309A0
:1001CC008B4201D3CB01C01A524183098B4201D31C
:1001DC008B01C01A524143098B4201D34B01C01A07
:1001EC00524103098B4201D30B01C01A5241C3087F
:1001FC008B4201D3CB00C01A524183088B4201D3EE
:10020C008B00C01A524143088B4201D34B00C01AD9
:10021C005241411A00D20146524110467047FFE745
:10022C0001B5002000F006F802BDC0460029F7D049
:10023C0076E770477047C046002B11D1002A0FD1CA
:10024C00002900D1002802D00021C943080007B4BE
:10025C00024802A14018029003BDC046D9FFFFFF1F
:10026C0003B4684601B5029800F006F8019B9E465F
:10027C0002B00CBC7047C046F0B557464E464546DA
:10028C00DE46E0B504000D009246994683B08B42E1
:10029C0030D82DD04946504600F0BAF82900060057
:1002AC00200000F0B5F8331A9846203B34D49B4616
:1002BC0053465A46934042461F00534693401E00F5
:1002CC00AF423BD8AF4200D179E05B46A41BBD41A5
:1002DC00002B00DA76E00022002300920193012328
:1002EC005A4693400193012342469340009329E0E0
:1002FC008242CFD900220023009201930C9B002B49
:10030C0001D01C605D600098019903B0F0BCBB4645
:10031C00B246A946A046F0BD42469B4620239B1AF6
:10032C005246DA40414613004A468A40170042467C
:10033C001F43534693401E00AF42C3D900220023F3
:10034C00009201934346002BD8D0FB0772081A4346
:10035C0046467B080EE0AB4201D1A2420CD8A41A4F
:10036C009D41012024196D410021013E24184D416D
:10037C00002E06D0AB42EED9013E24196D41002E61
:10038C00F8D1009801995B4600196941002B24DBD8
:10039C002B005A464446D3402A00E2401C005B46E0
:1003AC001500002B2ADB26009E4033002600474612
:1003BC00BE403200801A9941009001919EE7A34201
:1003CC00BCD882E74246202300219B1A00220091D0
:1003DC0001920122DA40019285E7424620239B1AC2
:1003EC002A0046469A402300F340444613432A0011
:1003FC00E2401C005B461500002BD4DA42462F006D
:10040C002023260097409B1ADE403B003343CDE768
:10041C0010B5002903D100F007F8203002E00800E5
:10042C0000F002F810BDC0461C2101231B049842A9
:10043C0001D3000C10391B0A984201D3000A083969
:10044C001B09984201D30009043902A2105C401820
:10045C007047C046040302020101010100000000C4
:10046C000000000070B501F029F8A74EC046013E0F
:10047C00002EFBD1A54CA64D2379062B45D0237914
:10048C00012B1DD101F0A8F828783100052808D8D7
:10049C002300FFF73BFE030A0D0F111340331978AD
:1004AC000909287800F0DCFF2FE0403319780BE0C5
:1004BC004133F4E74133F9E74233F0E74233F5E7F0
:1004CC002379022B03D121780F231940E9E72379F3
:1004DC00032B03D02379072B00D099E02978052929
:1004EC0013D80800FFF712FE034A606D7A872300C9
:1004FC006E331B78013B5A4253412279DBB2032AFB
:10050C0035D1217A0909002BCBD12B780133DBB201
:10051C00062B00D100232B702379012B07D02379D4
:10052C00022B00D043E16379012B00D03FE1012283
:10053C000821784801F04EFD012276481021013443
:10054C0001F048FD744AE37F12687448012B00D017
:10055C0034E1038872495C00615A51639163D16341
:10056C00FF2B00D12EE101339BB2038070BD2279A9
:10057C00072AC8D1220028321178C3E723006E3332
:10058C001B78013B5A4253412279DBB2032A03D137
:10059C00217A0F221140B6E722790021072AB2D125
:1005AC00220028321178F4E72379032B01D1617AE8
:1005BC0076E723790021072B00D072E7230029333B
:1005CC006DE72379032B01D1617A7DE72379002133
:1005DC00072B00D065E72300293367E72379032B2A
:1005EC0001D1A17A5CE723790021072B00D058E7D1
:1005FC0023002A3353E72379032B01D1A17A63E734
:10060C0023790021072B00D04BE723002A334DE739
:10061C002379042B02D02379082B5CD12978052966
:10062C0000D972E70800FFF771FD030F1C30444D31
:10063C002379042B01D1217A32E72379082B00D0BE
:10064C002FE7230028332AE72379042B01D1217AC1
:10065C003AE723790021082B00D022E72300283326
:10066C0024E723006E331B78013B5A425341227915
:10067C00DBB2042A01D1617A44E722790021082AED
:10068C0000D040E72200293276E723006E331B7836
:10069C00013B5A4253412279DBB2042A01D1617ADF
:1006AC0077E722790021082A00D02CE72200293292
:1006BC0078E72379042B94D023790021082B00D0E0
:1006CC00EFE695E72379042B98D023790021082BAA
:1006DC0000D0E6E699E72379052B03D02379092B83
:1006EC0000D012E72978052900D90EE70800FFF79A
:1006FC000DFD0319222C364A2379052B9BD0237927
:10070C00092B00D0CDE69CE7881300008000002068
:10071C007C00002000040050C40500207A0000205A
:10072C006C4A00082379052B91D023790021092BE1
:10073C0000D0B6E692E72379052B00D137E7237971
:10074C000021092B00D0ACE638E72379052B00D12A
:10075C003AE723790021092B00D0A2E63BE72300DE
:10076C006E331B78013B5A4253412279DBB2052A86
:10077C0001D1A17AC6E622790021092A00D0C2E66D
:10078C0022002A32F8E623006E331B78013B5A42D2
:10079C0053412279DBB2052A01D1A17AF9E62279FB
:1007AC000021092A00D0AEE622002A32FAE6002205
:1007BC000821054801F00EFC0022BEE6002353631D
:1007CC009363D3630023D0E600040050F8B5224CA9
:1007DC002379022B24D00221204800F0E8FEE17896
:1007EC0060781F4EA778013935681E4A1E4B0130C0
:1007FC008F421AD12778874217D10121EA62F26021
:10080C00AA625A6915480A435A611A698A431A61DD
:10081C006179C9B200F0CBFE00232370A370F8BD40
:10082C0023780133DBB22370D9E7EA62F260192234
:10083C00AA6201255A692A435A611A69AA431A61A4
:10084C0023788342EBD1A3789942E8D0002323701C
:10085C00A3785B19DBB2E1E7800000208400002064
:10086C00D4020020FFFF000000440140044B1A7822
:10087C00012A02D100221A7070470122FBE7C04600
:10088C00EE000020F0B5A24D85B0280000F0B8FEB7
:10089C002B78A04C002B00D02BE19F4B9F4D01934C
:1008AC001B78002B00D080E09D4E3378002B00D0BD
:1008BC00BCE0631CDB7F002B00D002E12868696878
:1008CC000123984A5B4212184B4102920393039BFB
:1008DC00002B31D1FA23029ADB009A422CD201234D
:1008EC00019A03219048137000F061FE00F01EFE87
:1008FC00230022000833403243CA43C303CA03C354
:10090C00207AC0B202F020FD2077607AC0B202F0EB
:10091C001BFD6077A07AC0B202F016FDA07700F044
:10092C00EBFE002200232A606B60FA227F48110044
:10093C0001F034FD05B0F0BD01237D4A5B42121875
:10094C004B411100002BECD1FA23DB009942E8D289
:10095C00012307217448337000F029FE00F0E6FDF6
:10096C00230022002833403243CA43C303CA03C3C3
:10097C00230028331878C0B202F0E6FC23003C3385
:10098C001870230029331878C0B202F0DDFC230064
:10099C003D33187023002A3318783E34C0B202F06D
:1009AC00D3FC207000F0C2FEBBE7012B3ED12868BF
:1009BC00696801235B4A5B4212184B411600002BFD
:1009CC0017D1FA23DB009E4213D22379032B04D1D7
:1009DC000421554800F0EBFDA3E72379042B02D149
:1009EC0005215148F6E72379052B9AD103214E486E
:1009FC00F0E701274E4E7F4236184F41002F00D0B2
:100A0C008FE7FA23DB009E4200D38AE70121464898
:100A1C0000F0CDFD00F09CFD019B012245494648AC
:100A2C001F7002F00BFB00F077FE7AE73C4B019352
:100A3C001B78012B45D1286869680123394A5B4230
:100A4C0012184B411600002B16D1FA23DB009E42E4
:100A5C0012D22379072B02D108213348BAE7237924
:100A6C00082B02D109213048B4E72379092B00D097
:100A7C0057E707212C48ADE701272D4E7F4236184A
:100A8C004F41002F00D04CE7FA23DB009E4200D3ED
:100A9C0047E70121244800F08AFD00F059FD019B35
:100AAC001F7023002833187823002A34293319782F
:100ABC002278C9B2D2B2C0B200F0E0FD00F04EFE16
:100ACC002FE70134E37F012B00D02AE72A686B68FB
:100ADC0032204042C11712184B411100002B00D09C
:100AEC001FE7E1235B00994200D31AE700F0ECFD0D
:100AFC0017E72B78012B00D017E7012400250749B5
:100B0C000A684B6812196B410A604B600DE7C046CE
:100B1C00EC000020800000207900002070000020F4
:100B2C007800002030F8FFFF84000020BC0100207A
:100B3C0084EAFFFF880000208006002010B500200A
:100B4C0000F03CFD00F08AFD10BD00000122014BBD
:100B5C00DA7770478100002010B50D4C86B00D4B34
:100B6C00012269462000009302F0D2FA002801D03D
:100B7C0072B6FEE70190049005900122200001A9B5
:100B8C0002F05CFA002801D072B6FEE706B010BD88
:100B9C00800600200202181610B592B038220021EF
:100BAC0004A803F024FF10220021684603F01FFF65
:100BBC008020800001F04CFC01F040FC1823194A05
:100BCC000224D16D04A80B43D36506230493053B83
:100BDC000693FF330793002308930D9308330E936A
:100BEC0080239B020F9380239B041093802340222D
:100BFC009B0509920B940C94119301F055FC002861
:100C0C0001D072B6FEE707230290039021006846DC
:100C1C000093019401F0B0FE002801D072B6FEE7FB
:100C2C0012B010BD00100240F0B502270424A1B090
:100C3C0001F090F8FFF7B0FF0C22002115A803F08B
:100C4C00D6FE20210125CD4BCD485A6B88263A4340
:100C5C005A635A6B76033A400192019A5A6B2243BB
:100C6C005A635A6B22400292029A5A6B0A435A6395
:100C7C005A6B0A400392039A5A6B13A92A435A637C
:100C8C005B6B14952B400493049BFF239B001393E5
:100C9C0001F0E8F813940024BA4813A9159414969B
:100CAC0001F0E0F8A020B84B13A9C00513931594DC
:100CBC001694149501F0D6F8B14813A9159413970E
:100CCC00149601F0CFF88023A0201B0213A9C005B5
:100CDC0013931494159501F0C5F8FF212200A84830
:100CEC00890001F077F9A0202A00A749C00501F07E
:100CFC0071F922002100052001F064F8052001F0B3
:100D0C008BF8A248A24B846003607F23C3608033BE
:100D1C0003618023DB0544618461C4614462036226
:100D2C0002F0F4F8041E01D072B6FEE702000100D6
:100D3C00380001F047F8380001F06EF81822210055
:100D4C0016A803F054FE21000C220CA803F04FFE51
:100D5C008023904EDB05336001235B42F36030004F
:100D6C00103313A97460B4603461B4611395149793
:100D7C00159517931897199503F088FA002801D048
:100D8C0072B6FEE70C900E900CA9300003F0DEFA60
:100D9C00041E01D072B6FEE7010010220CA803F06D
:100DAC0026FE0C22210008A803F021FE1C222100A3
:100DBC0013A803F01CFE784D784B28002B60784B61
:100DCC006C60EB6080239B002B61813BFF3BAC6034
:100DDC00AB6103F0BFF9002801D072B6FEE78023A7
:100DEC0028005B010CA90C9302F06AFF002801D0CB
:100DFC0072B6FEE7280003F015FA002801D072B68F
:100E0C00FEE708900A9008A9280003F09FFA021E3A
:100E1C0001D072B6FEE7602314901590179013A9B9
:100E2C002800139302F0BAFE002801D072B6FEE738
:100E3C000822280013A902F0B1FE041E01D072B6DC
:100E4C00FEE7280000F0FCFD5648574B8460036019
:100E5C0096239B0143600C23C4600461436184614D
:100E6C00C46104624462846203F07EFD002801D0F8
:100E7C0072B6FEE71022002108A803F0B8FD0C2280
:100E8C00002105A803F0B3FD1C2200210CA803F0DF
:100E9C00AEFD3422002113A803F0A9FD434C444BB2
:100EAC0080278026236000233D4ABF00200063601A
:100EBC00A360E26027616361A66103F04BF900282F
:100ECC0001D072B6FEE7802320005B0108A90893CD
:100EDC0002F0F6FE002801D072B6FEE7200003F007
:100EEC00A1F9002801D072B6FEE705900690079094
:100EFC0005A9200003F02AFA021E01D072B6FEE703
:100F0C0060230C93FA230E901B010F9010901190FC
:100F1C0012900CA920000D9302F040FE002801D085
:100F2C0072B6FEE7042220000CA902F037FE00285E
:100F3C0001D072B6FEE7082220000CA902F02EFEAA
:100F4C00002801D072B6FEE780239B011893802302
:100F5C001390149015901690179019901A901B904E
:100F6C009B041D901E901F9013A920001C9303F04E
:100F7C0021FA051E1ED072B6FEE7C04600100240D4
:100F8C000004005000140050F018000080060020EF
:100F9C0000280040080500204C04002000040040FC
:100FAC00FFFF0000F000002000440040C4050020BA
:100FBC00002C0140200000F043FD1C2229000CA84D
:100FCC0003F015FD3422290013A803F010FDCE4CBC
:100FDC00CE4B2000236003236360CD4BA560E36000
:100FEC0027616561A66103F0B5F8002801D072B6DF
:100FFC00FEE7200003F0E2F8002801D072B6FEE70D
:10100C00002220000CA90C920D920E920F921092BD
:10101C001192129202F090FD002801D072B6FEE7F8
:10102C0080271390149015901690179019901F907C
:10103C00BF01200013A9189703F0BCF9051E01D0BD
:10104C0072B6FEE701001C220CA803F0D0FC34227F
:10105C00290013A803F0CBFCAE4EAF4B300033602D
:10106C00AE4BB5607360F36080239B003361813BB2
:10107C00FF3B7561B36103F06DF8002801D072B6C7
:10108C00FEE7300003F09AF8021E01D072B6FEE7BC
:10109C000C900D900E900F901090119012900CA936
:1010AC00300002F049FD002801D072B6FEE7139023
:1010BC00149015901690179019901F9013A930004A
:1010CC00189703F077F9051E01D072B6FEE7010000
:1010DC001C2213A803F08BFC914F924B38003B6001
:1010EC007823FF337B608D4BBD60FB6080239B00BE
:1010FC003B61813BFF3BBB6103F02CF8002801D026
:10110C0072B6FEE7380003F059F8021E01D072B631
:10111C00FEE7139014901590179013A9380002F065
:10112C000BFD002801D072B6FEE77F4D7F4B686047
:10113C002B60E0231B01AB60784B28626B61802332
:10114C00A862DB03E862286328006B6200F07AFF78
:10115C00002801D072B6FEE700221120110000F029
:10116C0031FE112000F058FE0E212000704A02F0D2
:10117C00F9FB0E2130006F4A02F0F4FB0E216E4A8F
:10118C00380002F0EFFB02216C4A280001F034F821
:10119C006B4C00216B4A200001F08DFDFFF7DCFC4D
:1011AC00002320211A00200002F024F9664C2000B4
:1011BC0000F0DCF900F096F900F0A6F9012000F03F
:1011CC00FDF9624E3C21300002F0A6FAFA2228000A
:1011DC00110001F0E3F800F0C5FA00F0D9FA631C35
:1011EC00DB7F012B00D135E1322000F0D9FD3368D3
:1011FC00A26E5B6A21795B086266A366032905D03F
:10120C002179042902D02179052926D121790329B4
:10121C0054D19A4242D8257FD0B2AA1AD9B2D31847
:10122C00172B06D9237F183B1B1ACB18DBB223775D
:10123C0004E0237F1B1AC918C9B22177207FC0B2E2
:10124C0001F0F0FE2072607FC0B201F0EBFE607224
:10125C00A07FC0B201F0E6FEA0722379072B05D067
:10126C002379082B02D02379092BB8D12379072BAA
:10127C0000D0C3E02300A76E606E3C33874200D2DF
:10128C0094E01A78FDB2121AD219C1B2172A00D8FA
:10129C00CFE01A78183AAA18521A91E0207F11B2AE
:1012AC001DB2491B884205DA217F17318A1AD318DF
:1012BC000133BBE7217F8A1AD318B7E721790429B8
:1012CC004AD19A4213D8657FD0B2AA1AD9B2D31890
:1012DC003B2B06D9637F3C3B1B1ACB18DBB26377E5
:1012EC00ACE7637F1B1AC918C9B26177A6E7607FA8
:1012FC0011B21DB2491B88422ADA617F3B318A1A2E
:10130C00D3180133EAE7C046180200200048014018
:10131C00409C0000D402002000440140FFFF00006C
:10132C009003002000200040BC010020007C004005
:10133C0071040008D9070008790800089108000812
:10134C0080060020590B00088000002008050020B2
:10135C00617F8A1AD318C1E72179052900D06DE77E
:10136C009A4213D8A57FD0B2AA1AD9B2D3183B2B64
:10137C0006D9A37F3C3B1B1ACB18DBB2A3775DE7E6
:10138C00A37F1B1AC918C9B2A17757E7A07F11B266
:10139C001DB2491B884205DAA17F3B318A1AD3184A
:1013AC000133EAE7A17F8A1AD318E6E7197802B26B
:1013BC003DB2521B914249DA1A78D219121A1832DC
:1013CC00D2B21A7023003C331878C0B201F02AFE56
:1013DC0023002833187023003D331878C0B201F075
:1013EC0021FE23002933187023003E331878C0B235
:1013FC0001F018FE23002A331870F0E62379082B2D
:10140C000FD12300A76E606E3D33874213D31A7839
:10141C00FDB2121AD219C1B23B2A0AD91A783C3A37
:10142C0039E72379092BCDD12300A76E606E3E33AB
:10143C00EBE71A782FE7197802B23DB2521B9142B2
:10144C0004DA1A78D219121A3C32B9E71A78D2197E
:10145C00121AB5E700F0B8F9C1E6C04672B6FEE75D
:10146C0070B506000D000024104AA300D058104A95
:10147C006300D15AE3B201229E4200D10022013412
:10148C0000F0A8FD062CEFD1002401262A002241F1
:10149C0008496300C95A084BA0001858324001345F
:1014AC0000F098FD042CF1D1012070BD2800002023
:1014BC001C000020020000200C00002010B50024AD
:1014CC00064A6300D15A064BA00001221858013479
:1014DC0000F080FD062CF3D1012010BD1C00002073
:1014EC00280000200123074810B50268D1680B437F
:1014FC00D360002100F0C9FB041E01D0FFF7AEFF42
:10150C00200010BD180200200123074810B5026806
:10151C00D1680B43D360002100F0B7FB041E01D04F
:10152C00FFF79CFF200010BDD402002001230748C8
:10153C0010B50268D1680B43D360002100F0A5FB05
:10154C00041E01D0FFF78AFF200010BD900300207D
:10155C0010B50021044800F0A1FB041E01D0FFF7D8
:10156C007DFF200010BDC046900300200921030020
:10157C00002241700639C17019000270827001207E
:10158C006E3118715A71087046391A725A665A724D
:10159C009A669A72DA725A619A610A704A708A7003
:1015AC00CA7019185A639A63CA775A6270470378DB
:1015BC00DBB243700170012070470000020010B5CF
:1015CC00002800D001220348042100F003FD012073
:1015DC0010BDC0460004005010B5064C012220007E
:1015EC00054901F0BBFE01222000044901F0DEFE9A
:1015FC00012010BD80060020C0000020D400002077
:10160C0010B580210400A0200902C00500F0DCFC0C
:10161C00104B00280BD11A78002A01D0013A1A700D
:10162C001B78002B11D101332370012010BD1978C8
:10163C000E29F5D008480278042A04D10022013181
:10164C0019700270ECE70132FBE70E2BEDD1002391
:10165C00EAE7C04600000020DC06002010B5054C6F
:10166C000821200002F04EFC2368034A0120DA63B3
:10167C0010BDC0464C040020FFFF0000802330B595
:10168C005B008BB01400099301226B469B18DA7730
:10169C008023DB05079380236D461B0605930023EF
:1016AC0028706970074869460693EB70AC7001931B
:1016BC0001F082FD002801D0FFF7D0FE01200BB015
:1016CC0030BDC04680060020802110B54900074877
:1016DC0001F034FB00228021054B06485A62890038
:1016EC000133DA7700F076FC012010BD8006002073
:1016FC00800000200004005010B5054C0021200093
:10170C0002F000FC2368034A01205A6310BDC04656
:10171C004C040020102700000022034B01201B6802
:10172C005A63DA637047C0464C04002010B5084C6D
:10173C000021200002F0E6FB2368064A08215A63C8
:10174C00200002F0DFFB2368034A0120DA6310BD9E
:10175C004C04002088130000204E000010B5FFF749
:10176C00DBFF10BD70B50025084C200001F0A8FF70
:10177C000821200002F0C6FB23682900DD6320004D
:10178C0002F0C0FB236801205D6370BD4C04002097
:10179C0070B500250B4C200001F092FF00212000B9
:1017AC0002F0B0FB236804215D63200002F0AAFB69
:1017BC00236808219D63200002F0A4FB236801200C
:1017CC00DD6370BDC405002010B5164C164B626A63
:1017DC009A4225D0616A154A91420AD80122802189
:1017EC001348890000F0F6FB636A01330120636241
:1017FC0010BD606A0F49904204D9626A8A4201D8CE
:10180C000022ECE7606A0C4A884202D9616A914274
:10181C00E4D9616A9142E7D9626A9A42E4D8EFE767
:10182C000023E3E780000020A0860100204E00008A
:10183C0000040050409C000060EA000001210A4BAB
:10184C0082B01A6C0A431A641A6C0A408021009206
:10185C00009ADA6B49050A43DA63DB6B0B400193A0
:10186C00019B02B07047C0460010024010B5040046
:10187C008CB02822002102A803F0B9F8104B226882
:10188C009A421BD180239B020293802302A85B0007
:10189C000B9301F02FF9002801D0FFF7DFFD802218
:1018AC00084B1202D96D0A438021DA65DA6BC90044
:1018BC000A43DA63DB6B0B400193019B0CB010BD48
:1018CC000028004000100240064B02689A4208D1E2
:1018DC00054B0649DA6D0A40DA65DA6B04490A40B1
:1018EC00DA6370470028004000100240FF7FFFFFC2
:1018FC00FFFBFFFF10B5040090B02822002106A8C2
:10190C0003F075F82368324A934215D1802306A858
:10191C009B03069301F0EEF8002801D0FFF79EFD23
:10192C0080212C4B09011A6C0A431A641B6C0B4066
:10193C000193019B10B010BD274A934209D102219B
:10194C00244BDA6B0A43DA63DB6B0B400293029B8A
:10195C00F0E7224A934212D180211E4B09021A6CE5
:10196C0013200A431A6402221B6C0B4003931100D0
:10197C00039B00F027FA132000F04EFADAE7184A1E
:10198C00934210D18021134B89021A6C15200A4303
:10199C001A6402221B6C0B4004931100049B00F090
:1019AC0011FA1520E8E70F4A9342C3D18021094B65
:1019BC00C9021A6C16200A431A6400221B6C0B40D5
:1019CC0005931100059B00F0FDF91620D4E7C046E5
:1019DC00002C014000100240000400400020004098
:1019EC00004401400048014010B5040088B01422A6
:1019FC00002103A802F0FBFF80232268DB059A423A
:101A0C001AD101220D4BA020D96BC0051143D9630B
:101A1C00D96B114001910199596B114359635B6B5F
:101A2C0003A913400293029B03230393013B0493EA
:101A3C000592079300F016FA08B010BD0010024092
:101A4C0030B5040089B01422002103A802F0CFFFA6
:101A5C0023681F4A934215D101211E4BA0205A6BBB
:101A6C00C0050A435A635B6B0B400093009BE02359
:101A7C00DB000393022303A90493079300F0F2F90C
:101A8C0009B030BD144A9342FAD102240421012535
:101A9C00104B12485A6B22435A635A6B22400192E4
:101AAC00019A5A6B0A435A635B6B03950B40029382
:101ABC0003A9029B0494079500F0D4F940230393E7
:101ACC0000230748049405930693079503A9D5E7CB
:101ADC00002C0140001002400004004000040050A3
:101AEC000008005010B5040088B01422002103A88F
:101AFC0002F07DFF114B22689A421CD18021104BC1
:101B0C008902DA6BA0200A43DA63DA6BC0050A405B
:101B1C000192019A0122596B114359635B6B03A922
:101B2C0013400293029B0C2303930A3B04930592EC
:101B3C00079200F097F908B010BDC0460044004071
:101B4C000010024010B5040094B01422002105A826
:101B5C0002F04DFF282200210AA802F048FF23685A
:101B6C00284A93421ED180230AA89B000A9300F0B6
:101B7C00C1FF002801D0FFF771FC8022224B120616
:101B8C00D96B0A430221DA63DA6BD20FD2070192C6
:101B9C00019A5A6B0A435A635B6B0B400293029B8C
:101BAC0014B010BD194A9342FAD180230AA8DB0065
:101BBC000A9300F09FFF002801D0FFF74FFC802113
:101BCC00114BC905DA6BA0200A43DA63DA6BC00546
:101BDC000A4001210392039A5A6B0A435A635B6BC6
:101BEC000B400493049B80235B000593FE3B069300
:101BFC00002305A9079308930533099300F032F9E4
:101C0C00CEE7C046007C004000100240009400402B
:101C1C00FEE7FEE77047704710B500F0AFF810BD57
:101C2C0010B5022000F0DCF910BD802010B50002C8
:101C3C0000F0D6F910BD000010B5024801F0CCFD43
:101C4C0010BDC0469003002010B5024801F0C4FD41
:101C5C0010BDC046D402002010B5024801F0BCFDF6
:101C6C0010BDC0461802002010B5024801F0C6F89D
:101C7C0010BDC0468006002010B5024800F066FA80
:101C8C0010BDC046BC010020704710B502F03EF9F3
:101C9C00041E01D0FFF7E2FB200010BD10B502F0CE
:101CAC00BDF9041E01D0FFF7D9FB200010BD0000C8
:101CBC000D488546FFF7E8FF0C480D490D4A0023F7
:101CCC0002E0D458C4500433C4188C42F9D30A4AE5
:101CDC000A4C002301E013600432A242FBD302F051
:101CEC008FFEFEF7A1FFFEE7002000200000002081
:101CFC004C000020F44C000850000020E4060020AA
:101D0C00FEE7000070B5104B05001978002901D1D1
:101D1C00012070BDFA208000FEF702FA0B4C010086
:101D2C002068FEF7FDF900F083F8041EF0D1032DB6
:101D3C00EED8020001202900404200F043F8044B89
:101D4C0020001D60E5E7C046440000204000002054
:101D5C00480000208023084A5B00116810B50B4333
:101D6C0000201360FFF7CEFF041E03D1FFF766FDC2
:101D7C00200010BD0124FBE700200240034A044B65
:101D8C0011681B785B1813607047C046E006002092
:101D9C0044000020014B18687047C046E006002044
:101DAC0070B50400FFF7F6FF0500631C02D0044B6E
:101DBC001B78E418FFF7EEFF401BA042FAD370BD6E
:101DCC004400002010B5FF2403220B002100024028
:101DDC00D20091409B012340C943934000280ADB69
:101DEC00C0240B4A800880008018A40002590A40C5
:101DFC001343035110BD0F2210400838054A8008C8
:101E0C0080008018C26911401943C161F2E7C046D5
:101E1C0000E100E000ED00E0002805DB1F23184086
:101E2C001E3B8340014A13607047C04600E100E04E
:101E3C008022431E5204012093420DD2C021074A36
:101E4C0007485360036A09061B021B0A0B43036213
:101E5C0000200723906013607047C04610E000E03C
:101E6C0000ED00E00023F0B585B00A681400DC40FA
:101E7C0001D105B0F0BD012514009D402C4000940B
:101E8C002A4200D191E04A685F00944603226446DE
:101E9C0022400324BC40E4430194541E012C2ED850
:101EAC008668019C2640CC68BC40344384604468FE
:101EBC000126AC4325006446240934409C402C4345
:101ECC004460C568019C25408C68BC402C43C460B0
:101EDC00022A16D107250F261D40AD00AE40DC08A6
:101EEC00A40004190294246A03962600039CA643BA
:101EFC0034000E69AE402643029C266201E0032AA0
:101F0C00DFD1BA400468019D25402A43C0240260F9
:101F1C006246A402224248D0254A03259C08A4000C
:101F2C00A4180F221D40ED00AA40A027266EFF0525
:101F3C0096430022B8420CD01E4F0132B84208D052
:101F4C001D4F0132B84204D01C4F0332B84200D1AD
:101F5C00023AAA40674632432266154C009A26681C
:101F6C00009DD2433543FF0201D43500154067462E
:101F7C0025606668009D3543BF0201D435001540CD
:101F8C00674665600E4C009DE66F3543BF0301D478
:101F9C00350015406746E5670A4C009EE56F2E43F9
:101FAC00FF0301D415402E00E66701335DE7C04600
:101FBC00001802400004005000080050000C0050B3
:101FCC00081802400418024000690840431E98415A
:101FDC00C0B27047002A01D0816170478162FCE772
:101FEC00044B10B5DA68104202D0D860FEF7A6FD9B
:101FFC0010BDC046001802400C4B70B505000C001B
:10200C0018680B49FEF78CF8FA239B0043432968A8
:10201C0000200325013B002B00D128000A68224038
:10202C00A24201D0002BF5D170BDC046400000206B
:10203C00204E0000704770477047704770477047DC
:10204C0070470000F7B504000120002C5ED025007D
:10205C0036352B78DAB2002B18D1230035331A70B1
:10206C002E4B23642E4B63642E4BA3642E4BE364E4
:10207C002E4B23652E4B63652E4BA365A36B002B58
:10208C0001D12D4BA3632000A36B984702232B7027
:10209C0021686068CB68A66A012803D080221204EC
:1020AC00964201D11E2293436269244FBA4201D059
:1020BC00234F3B40234F1F40A36801979C460300CE
:1020CC00674633431F43236A3B43676A3B43019F85
:1020DC003B4300281BD1E069276938430343802028
:1020EC000004864215D01548824204D0A0690243F0
:1020FC00E06902431343144ACB60E36A914201D175
:10210C00226B13434B62012300202B70FEBD012870
:10211C00E5D1E068266930430343E4E74320000837
:10212C004520000847200008492000084B200008E3
:10213C004D20000841200008511B0008FFFF000043
:10214C003F1FFFFFFEF119FF007C004001220368D6
:10215C0010B519680400114205D09968114202D0DB
:10216C005A60036C9847022223681968114206D002
:10217C009968114203D05A602000636C984704227E
:10218C0023681968114206D09968114203D05A602D
:10219C002000A36C9847082223681968114206D0C6
:1021AC009968114203D05A602000E36C98471022C2
:1021BC0023681968114206D09968114203D05A60FD
:1021CC002000236D9847202223681968114206D0FD
:1021DC009968114203D05A602000636D98474022E1
:1021EC0023681968114206D09968114203D05A60CD
:1021FC002000A36D984710BD030030B50120002AC4
:10220C0011D01C0036342578E8B2012D1AD10829DA
:10221C0009D80800FDF77AFF051E080A0C0E1012EB
:10222C0014009A63002030BD1A64FBE75A64F9E786
:10223C009A64F7E7DA64F5E71A65F3E75A65F1E7AC
:10224C009A65EFE724780120002CECD10029E8D026
:10225C008142E8D1DA63E5E7F0B5050087B0EFF32A
:10226C0010830593012383F31088464F0468BC4206
:10227C0008D0454B00269C4209D1444B5E6DC023CF
:10228C009B0303E0414B5E6DC0231B031E40A36800
:10229C000293E36862690393A3690193636A0493ED
:1022AC00BC4243D0384B9C424BD0019B13432ED0A5
:1022BC00BC4251D0344B9C4254D0002A0FD0012345
:1022CC00216928000B43236108216261FFF794FE0A
:1022DC00032802D12B003633187008236360019B4E
:1022EC00002B0FD001232269102113432361019B82
:1022FC002800A361FFF780FE032801D13635287032
:10230C0010236360BC4231D01F4B9C4235D001225C
:10231C00236993432361029BA360039BE360049BAB
:10232C006362059B83F3108807B0F0BD80231749C7
:10233C001B06C86A0343CB62CB6A5B005B08CB62AB
:10234C00B3E78021114BC905D86A0143D962D96A18
:10235C000F480140D962A8E70C490E484B6D034069
:10236C004B65AAE709490C484B6DF8E7074A094940
:10237C00536D0B4033435365C9E7044A0649536D0B
:10238C00F7E7C046007C004000940040001002407B
:10239C00FFFFFFBFFFFFF3FFFFFFCFFFF7B5070006
:1023AC00022336373B70802305680192EA685B0391
:1023BC0013430122EB602B69040013432B611023A0
:1023CC006B60A9611900FFF717FE032801D10320E8
:1023DC00FEBD0826019B6E60310020006B61FFF78B
:1023EC000BFE0328F3D02000FFF736FF3B78032BBE
:1023FC00EDD0102123689A680A439A609A680E39C6
:10240C0016439E609A680A439A609A6801390A4397
:10241C009A606169084A914203D0042299680A4380
:10242C009A6001211A690A431A610222186902434F
:10243C001A6100203970CBE7FFFF00008023034AAC
:10244C005B0011680B4313607047C046007000407E
:10245C0010B5114C1149236802000B400343236053
:10246C00802300209B009A420ED10D4B0D49186819
:10247C0006235843FDF754FE8022431CD2006169A9
:10248C0008001040114200D110BD002B01D0013BBF
:10249C00F5E70320F8E7C04600700040FFF9FFFFA6
:1024AC004000002040420F00F0B5040085B0002829
:1024BC0002D1012005B0F0BD0368DB0710D42368FE
:1024CC009B075CD423681B0700D5C1E023685B071E
:1024DC0000D5F2E0E369002B00D079E10020E9E7B8
:1024EC003822AF4DAB681340EA68102B09D1D343A7
:1024FC009B0708D12B689B03E1D56368002BDED1C9
:10250C00D7E7082BF6D0802263685202934211D190
:10251C002A6813432B60FFF73DFC80270600BF029F
:10252C002B683B42CBD1FFF735FC801B6428F7D9D5
:10253C000320BFE7A021C9028B4208D18023296860
:10254C00DB020B432B602B681A432A60E3E72A68F3
:10255C0094490A402A602A6893490A402A60002B51
:10256C00D9D1FFF717FC80270600BF022B683B422E
:10257C00A5D0FFF70FFC801B6428F7D9D8E73822C9
:10258C00874DAB681340EA68102B28D103210A4011
:10259C00022A26D12A68520503D5E268002A00D106
:1025AC0087E7696862698148120201400A436A60E0
:1025BC00002B0CD12B687E4A7E49134022691343B1
:1025CC002B602B687C4A9B045B0FDA400A607B4BC8
:1025DC001868FFF797FB002800D173E769E7002B19
:1025EC00D8D0E368002B20D02B68714A8027134089
:1025FC002269FF0013432B6080232A685B0013437E
:10260C002B60FFF7C7FB06002B683B4207D06A68BC
:10261C00636966491B020A4013436B6052E7FFF77C
:10262C00B9FB801B0228EFD982E72B68644A80270C
:10263C0013402B60FFF7AEFB0600FF002B683B42FC
:10264C0000D13FE7FFF7A6FB801B0228F6D96FE706
:10265C003822534DAB681340182B08D12B6E9B07B7
:10266C0000D433E7A369002B00D02FE721E7A26940
:10267C000123002A10D02A6E022713432B66FFF782
:10268C0089FB06002B6E3B4200D01FE7FFF782FB55
:10269C00801B0228F6D94BE72A6E02279A432A663A
:1026AC00FFF778FB06002B6E3B4200D10EE7FFF7DD
:1026BC0071FB801B0228F6D93AE73822384DAB68FB
:1026CC001340202B08D1EB6D9B0700D402E7A368C5
:1026DC00002B00D0FEE6ECE680220021EB6B5205CD
:1026EC000091134208D1EB6B1343EB63EB6B13407C
:1026FC000393039B012300938027324E7F003368A2
:10270C003B4215D0A368012B22D1EA6D1343EB6534
:10271C00FFF740FB02270600EB6D3B4238D0009BD5
:10272C00012B00D0D6E6EB6B274A1340EB63D1E6C6
:10273C0033683B433360FFF72DFB019033683B421A
:10274C00E0D1FFF727FB019BC01A0228F6D9EFE670
:10275C00EA6D052B05D1013B1343EB65EA6D0123B3
:10276C00D4E701218A43EA65EA6D03318A43EA65BD
:10277C00002BCDD1FFF70EFB02270600EB6D3B4281
:10278C00CDD0FFF707FB114B801B9842F6D9CFE653
:10279C00FFF700FB0D4B801B9842BDD9C8E6C04625
:1027AC0000100240FFFFFEFFFFFFFBFFFF80FFFF5B
:1027BC00FFC7FFFF400000200024F4004800002069
:1027CC00FFFEFFFF00700040FFFFFFEF88130000CB
:1027DC003821434DAA680A40102A53D0414A022B93
:1027EC003AD12B68802713402B60FFF7D3FA0600F1
:1027FC00BF042B683B4229D1616A236AEA680B4308
:10280C00394980260A401343E26AB6041343226B0B
:10281C001343626B1343A26A12021343EB608023CF
:10282C002A685B0413432B608023EA685B0513431F
:10283C00EB60FFF7AFFA04002B68334200D04DE693
:10284C00FFF7A8FA001B0228F6D971E6FFF7A2FAE7
:10285C00801B0228CDD96BE62B68802613402B6099
:10286C00FFF798FA0400B6042B68334204D1EB68E6
:10287C001E4A1340EB6031E6FFF78CFA001B02286E
:10288C00F2D955E6012B00D113E60322E868216A40
:10289C0002408A4200D00CE67022616A02408A42F1
:1028AC0000D006E6FE21A26AC90101401202914243
:1028BC0000D0FEE5F822E16A920302408A4200D081
:1028CC00F7E5E022216B120502408A4200D0F0E5C8
:1028DC00636B400F4007C01A431E9841C0B2E9E534
:1028EC0000100240FFFFFFFE8C80C111FCFFFEEECA
:1028FC00382370B51D4CA2681A4205D123681C48B8
:10290C009B045B0FD84070BDA2681A40082A27D0E0
:10291C00A2681A40102A17D1E368E168DB43E56826
:10292C004906490F6F322D0A013115409B0709D119
:10293C001048FDF7F5FBE1686843490F0131FDF7DD
:10294C00EFFBE0E70A48F4E7A2681A40202A09D016
:10295C00A26800201340182BD5D1FA20C001D2E771
:10296C000448D0E780200002CDE7C04600100240AA
:10297C000024F40000127A00F7B504000D000028C2
:10298C0001D10120FEBD0727484E33683B408B42E6
:10299C002AD3226893073BD4D20748D4072733683D
:1029AC003B40AB420AD93368BB432B433360FFF740
:1029BC00F1F9019033683B40AB4268D123683C4D40
:1029CC005B076CD4FFF794FFAB683A491B051B0FF0
:1029DC009B005B581F210B40D840374A374B106087
:1029EC001868FFF78FF9CDE73368BB430B433360AF
:1029FC00FFF7D0F9019033683B40AB42C9D0FFF7E9
:102A0C00C9F9019BC01A2E4B9842F4D90320B9E79F
:102A1C002749530704D5E0238868DB0103438B6007
:102A2C008B6828480340A06803438B60B4E7606858
:102A3C001F4F032829D8FDF769FB20021C243B6893
:102A4C009B039ED50722BB6893430343BB60FFF7F0
:102A5C00A1F901903823BA681A406368DB009A42E6
:102A6C009CD0FFF797F9019BC01A154B9842F1D9EE
:102A7C00CCE73B689B01E5D483E73B685B05E1D47D
:102A8C007FE73B6E9B07DDD47BE7FB6DFAE7FFF737
:102A9C0081F9019BC01A0A4B98428BD9B6E7AB68F7
:102AAC00094A1340E2681343AB608BE700200240F5
:102ABC00001002408C4C0008400000204800002010
:102ACC0088130000FFF0FFFFFF8FFFFF064B074945
:102ADC009B68074A5B045B0F9B005B581F211068C7
:102AEC000B40D8407047C046001002406C4C0008A8
:102AFC0040000020F0B50368050085B000209B0362
:102B0C0052D580225F4C5205E36B0090134208D1E2
:102B1C00E36B1343E363E36B13400393039B0123C6
:102B2C0000938027584E7F0033683B433360FFF798
:102B3C0031F9019033683B4228D0E26DC02310007C
:102B4C009B00696A514E18401A4218D0814216D027
:102B5C008022E36DE06D190052020243E265E26DE2
:102B6C004B4831400240E265E165DB0707D5FFF7D2
:102B7C0011F907000222E36D134200D17AE0E36DF4
:102B8C006A6A334013430020E36506E0FFF702F95D
:102B9C00019BC01A0228CDD90320009B012B03D125
:102BAC00E36B3C4A1340E3632B68DA0706D5032436
:102BBC0034494A6DA2436C6822434A65DA0606D54D
:102BCC003049354C4A6D2240AC6822434A659A051F
:102BDC0006D52C49314C4A6D22406C6922434A651A
:102BEC005A0506D527492E4C4A6D2240AC69224322
:102BFC004A659A0606D523492A4C4A6D2240EC6850
:102C0C0022434A655A040FD51E49EC694A6D92005D
:102C1C00920822434A658022D205944204D1802234
:102C2C00CC6852022243CA609A020FD515491E4E37
:102C3C004A6D2C6A324022434A658022D203944268
:102C4C0004D18022CC6852042243CA601B050FD5E4
:102C5C000C4A164C536D296923400B435365802352
:102C6C00DB01994204D18023D1685B020B43D36012
:102C7C0005B0F0BDFFF78EF80D4BC01B984200D885
:102C8C0078E789E70010024000700040FFFCFFFF6E
:102C9C00FFFFFEFFFFFFFFEFFFF3FFFFFFFFF3FF61
:102CAC00FFFFCFFFFFCFFFFFFFFFBFFFFF3FFFFF88
:102CBC00881300007047030070B508000121002A3A
:102CCC001BD01C00283425784918012D15D01D0067
:102CDC0029352E78F1B2012E25D10F280BD8FDF70E
:102CEC0015FA080E101214160A0A0A181A1C1E0AD3
:102CFC00202ADA62002100232370080070BD1A63B9
:102D0C00F8E75A63F6E79A63F4E7DA63F2E71A64D2
:102D1C00F0E75A64EEE79A64ECE7DA64EAE71A65DE
:102D2C00E8E75A65E6E72D780121002DE3D10E285E
:102D3C00F7D00F28DFD19A65DCE70000F7B5050066
:102D4C00022728352B7804003800012B25D02600CB
:102D5C000123CA2229362B70377023685A62773ABE
:102D6C005A62AD32914228D19A692049FA270A4019
:102D7C009A619A691E49BF000A409A61FFF70AF8E6
:102D8C00019001222368DB68134207D0FF222368DD
:102D9C0000205A62012333702870FEBDFEF7FAFF43
:102DAC00019BC01AB842ECD9FF22236803205A6257
:102DBC000323337000232B70EFE79A690D490A4007
:102DCC009A619A690C490A409A61FEF7E3FF0190F7
:102DDC002368DB683B42D9D1FEF7DCFF019BC01AAC
:102DEC00FA239B009842F3D9DEE7C046FFFEFFFFB3
:102DFC00FFEFFFFFFFFDFFFFFFDFFFFF036810B5D5
:102E0C009A690400D20408D50122196D114204D02C
:102E1C00D96D0A43DA65C36A984723689A699204A4
:102E2C0009D50222196D114205D0D96D20000A4333
:102E3C00DA65236B984701232934237010BD0000F9
:102E4C00F8B50B4A03680400DA60FEF7A3FFFA2713
:102E5C0005002026BF002368DB68334201D0002028
:102E6C00F8BDFEF797FF401BB842F4D90320F7E7F3
:102E7C005F000100F7B5402603680500DA680024FE
:102E8C00324211D18022D968FA270A43DA60FEF760
:102E9C0081FFBF0000902B68DB681A003240019262
:102EAC00334201D1032C01D12000FEBDFEF772FF8D
:102EBC00009B019CC01AB842EDD92B000324293386
:102ECC001C70E8E7802270B50F4C0500E368934353
:102EDC00E360A369603A134207D1FFF7B1FF002802
:102EEC0002D003202935287070BDA3699343A361D8
:102EFC00FFF7A6FF002802D00320293528702023D5
:102F0C00A2691343A361EFE70028004070B50400E9
:102F1C000120002C35D0250029352B78DAB2002B76
:102F2C0026D1230028331A7088231B026360304B90
:102F3C00E362304B2363304B6363304BA363304B02
:102F4C00E363304B2364304B6364304BA364304BEE
:102F5C00E364304B2365636D002B01D12E4B63650D
:102F6C00636D20009847A36D002B01D12B4BA365FB
:102F7C0002232B702368DA68D20603D501230020C4
:102F8C002B7070BDCA225A62773A20005A62FFF742
:102F9C0071FF002825D1236821499A6960690A408C
:102FAC009A61A26899690243E06902430A439A61F3
:102FBC00226920001A61E268196912040A431A6135
:102FCC00FFF780FF00280CD12268266A9369DB008A
:102FDC00DB089361636A91693343A66933430B43FE
:102FEC009361FF2223685A620028C7D0C9E7C04604
:102FFC00C12C000885340008FD330008FF3300089D
:10300C0087340008893400088B3400088D3400089C
:10301C008F3400089134000879180008D51800087E
:10302C00BFFF8FFB0023092803D81B011843C0B234
:10303C0070470A380133C0B2F5E700000300F0B561
:10304C00283385B0019317001A78022305000C0071
:10305C001800012A4AD00122019928000A702A007E
:10306C00293213700292CA222B685A62773A5A623A
:10307C00FFF700FF00282ED162782E680392B26908
:10308C004023110020781940002F31D11A4200D171
:10309C00E170FFF7C7FF07000398FFF7C3FF03902A
:1030AC00A078FFF7BFFFE278039B920510433F0423
:1030BC0038431B021843144B144A18403060B36950
:1030CC0021691340B361E368B2690B4313432800D1
:1030DC00B361FFF7F7FEFF222B685A62002802D17A
:1030EC000123029A13700023019A137005B0F0BDEE
:1030FC001A4200D1E170039B00041B021843A37811
:10310C001843E3789B05D5E77F7F7F00FFFFFBFF2C
:10311C00F0B50600022328360D003178040085B086
:10312C00180001292DD027000121293731703B705F
:10313C00A978E8786B780191297849030291002AE3
:10314C0021D0019A05040D4315431B02CA221D43CD
:10315C00236820005A62773A5A62FFF78BFE0028E8
:10316C0006D1144A2368154020005D60FFF7AAFEC3
:10317C00FF2223685A62002801D101233B700023EF
:10318C00337005B0F0BD1022134202D093430A33C2
:10319C006B70FFF747FF03906878FFF743FF05005C
:1031AC000198FFF73FFF039B029A1B041043034354
:1031BC002D02CBE73FFFFF00F7B50D000100022306
:1031CC0028310E7804001800012E00D191E001384E
:1031DC004B7008706978266800912878AF783E3378
:1031EC00002A5ED1B269110019401A4200D1E9706F
:1031FC00FFF718FF01900098FFF714FF00903800BC
:10320C00FFF710FF07006B1CD87FFFF70BFF6A69F5
:10321C00EB6900061343EA78920513431F43019BA5
:10322C001B041F43009B1B021F430743AB696A68C7
:10323C001A43CA23009273626A6A773B7362AD3396
:10324C009A4257D10125B3693C4A1340B361F36DDF
:10325C002B43F365FEF79EFDFA260190B60023681A
:10326C00DA682A4234D0009A1F645A648022996921
:10327C0052000A439A618022996952010A439A6169
:10328C0080232F4A1B03D16F00200B43D367FF22EF
:10329C0023685A622300FE3A293328341A702070AE
:1032AC0027E0B269110019401A4200D1E970EB69AC
:1032BC006A69000413431F43009B07431B021F430F
:1032CC00EB789B051F436B1CDB7F1B061F43ADE795
:1032DC00FEF760FD019BC01AB042C0D9FF222368E3
:1032EC0003205A622300FC3A29331A700023283435
:1032FC002370FEBD0225B369124A1340B361F36D0E
:10330C002B43F365FEF746FDFA260190B6002368C1
:10331C00DA682A420BD0009A9F64DA648022996999
:10332C0092000A439A61802299699201A6E7FEF7FE
:10333C0031FD019BC01AB042E9D9CFE7FFFEFFFF78
:10334C0004180240FFFDFFFF030902000A200F21B1
:10335C0058430A408018C0B27047000070B50C008A
:10336C0001688B6863600B695B045B0CA3600B6882
:10337C000D490B4098021D0ADEB2800EEDB29B0D7A
:10338C0020706570A670E370002A0AD1FFF7DCFF8D
:10339C0020702800FFF7D8FF60703000FFF7D4FFD3
:1033AC00A070002070BDC0467F7F7F0070B50C0000
:1033BC0003680E495B680B40180CDD04DEB21B047D
:1033CC00ED0E5B0FE0706570A6702370002A0AD1B9
:1033DC00FFF7BAFFE0702800FFF7B6FF607030000F
:1033EC00FFF7B2FFA070002070BDC0463FFFFF008A
:1033FC0070477047F0B5050085B003930223019127
:10340C00029228352A7804001800012A1BD02600C5
:10341C000122802729362A7033702368C9325A62F8
:10342C00773A5A62DB687F023B420ED10399029BCA
:10343C0022680B43019900200B439362FF235362D4
:10344C00FE3B3370287005B0F0BDFEF7A3FC009076
:10345C002368DB683B42E9D0FEF79CFC009BC01A5A
:10346C00FA239B009842F3D9FF22236803205A6267
:10347C00002330702B70E6E7704770477047704739
:10348C00704770477047000070B50124036A026AE8
:10349C00A24302624468124A856915400A681543C2
:1034AC00022293438A6813430E4A904205D00E4A77
:1034BC00904202D00D4A90420BD108229343CA6825
:1034CC008E69134304229343094A22404C693443C6
:1034DC0014434A68446085614263036270BDC04610
:1034EC008CFFFEFF002C01400044014000480140CD
:1034FC00FFFCFFFF70B5174A056A036A13400362AD
:10350C004268154BC4691C400B681C43134B1D408F
:10351C008B681B022B43124DA8420ED1114D1D403E
:10352C00CB681B022B43104D2B40104D8E69154060
:10353C004A69324312012A4305E00D4DA842F4D0EA
:10354C000C4DA842F1D042604A68C461C263036268
:10355C0070BDC046FFFEFFFF8CFFFEFFFFFDFFFFAF
:10356C00002C0140FFF7FFFFFFFBFFFFFFCFFFFF2A
:10357C00004401400048014030B5124A046A036A15
:10358C00114D134003624368C2692A400D682D0235
:10359C0015430E4A14408A68120322430C4CA04275
:1035AC0005D00C4CA04202D00B4CA04204D10B4CC9
:1035BC001C404B699B01234343604B68C56103640A
:1035CC00026230BDFFEFFFFFFF8CFFFEFFDFFFFF4E
:1035DC00002C01400044014000480140FFBFFFFFA8
:1035EC0070B5066A104C036A104A234003624368A4
:1035FC00456D15400A6815430D4A16408A68120439
:10360C0032430C4EB04205D00B4EB04202D00B4EA2
:10361C00B04203D11C404B691B02234343604B68EF
:10362C0045658365026270BDFFFFFEFF8FFFFEFFE5
:10363C00FFFFFDFF002C0140004401400048014009
:10364C0030B5124A046A036A114D13400362436891
:10365C00426D2A400D682D0215430E4A14408A68AB
:10366C00120522430C4CA04205D00C4CA04202D0B7
:10367C000B4CA04204D10B4C1C404B699B022343C6
:10368C0043604B684565C365026230BDFFFFEFFFC9
:10369C00FF8FFFFEFFFFDFFF002C014000440140C5
:1036AC0000480140FFFFFBFF7047704770477047B1
:1036BC007047704770477047704770477047704746
:1036CC0001000300012010B53D310C78E2B28442B8
:1036DC0019D1001808701B680C498B4206D0802148
:1036EC00C9058B4202D00A498B420DD19A6809490F
:1036FC000A40062A06D007398A4203D001221968EB
:10370C000A431A60002010BD1968F9E7002C01402B
:10371C000004004007000100F7B53E220300944668
:10372C001F00844462461E001D003F3710783A7813
:10373C004436D2B20192453534782A78C0B2E4B21C
:10374C00D2B2002915D1012844D1012C10D102226A
:10375C0061460A7032701A68116AA1431162116ACB
:10376C00214311621A680123002011680B43136076
:10377C00FEBD042910D1012001998142F8D1824269
:10378C00F6D1022210213A702A701A68106A884306
:10379C001062106A0143E4E701281BD10199012949
:1037AC00E6D1012CE4D1012AE2D16046013101704D
:1037BC003970317029701968086A90430862086A78
:1037CC0002430A621022086A90430862086A0243A4
:1037DC000A62C7E70120CBE70222036870B5DD68F7
:1037EC001E690400164210D015420ED0053A1A611B
:1037FC00043202779B699B0700D190E0030094335D
:10380C001B68200098470023237704231E4214D002
:10381C001D4212D00522236852421A6107322277C8
:10382C009A69C0239B001A4200D17FE02300943395
:10383C001B68200098470023237708231E4212D0D0
:10384C001D4210D00922236852421A610D32227790
:10385C00DB699B0700D171E0230094331B682000C7
:10386C0098470023237710231E4213D01D4211D0FA
:10387C001122236852421A6119322277DA69C02365
:10388C009B001A4262D0230094331B682000984797
:10389C000023237701231E420AD01D4208D00222A6
:1038AC00236852421A61230008332000DB6F9847CB
:1038BC0082239B011E4209D02B0607D52368274A79
:1038CC0020001A612300B4331B689847F30509D50F
:1038DC002B0607D52368224A20001A612300B8332F
:1038EC001B68984740231E420AD01D4208D0412233
:1038FC00236852421A6123008C3320001B689847BE
:10390C0020231E420AD01D4208D021222368524295
:10391C001A612300AC3320001B68984770BD03006C
:10392C009C331B6898472300A03369E723009C3322
:10393C001B68200098472300A03379E723009C33B1
:10394C001B68200098472300A03387E723009C3393
:10395C001B68200098472300A03396E77FDFFFFF0A
:10396C00FFFEFFFF030030B508000121002A1DD027
:10397C001C003D342578E9B2012D31D11B2815D816
:10398C00FCF7C4FB3D3F41434547494B4D4F515319
:10399C000F550E1116181A1C1E20222426282A2C0C
:1039AC000833DA6701E088331A600021080030BD63
:1039BC008C33F9E79033F7E79433F5E79833F3E773
:1039CC009C33F1E7A033EFE7A433EDE7A833EBE743
:1039DC00AC33E9E7B033E7E7B433E5E7B833E3E713
:1039EC0024780121002CE1D10D28DFD8FCF784FBD1
:1039FC0007090B0D0F11131517191B1DD91FDA64AD
:103A0C00D3E71A65D1E75A65CFE79A65CDE7DA6552
:103A1C00CBE71A66C9E75A66C7E79A66C5E7DA665E
:103A2C00C3E71A67C1E75A67BFE79A67BDE7043374
:103A3C00B7E7000010B51C4C0368A04206D08022EA
:103A4C00D205904202D0194A904208D17022934379
:103A5C004A681343164A1A40CB68134308E0154AC8
:103A6C009042F7D0144A9042F4D0144A9042F1D0CC
:103A7C00802293434A69134303608B68C3620B68CB
:103A8C008362A04205D00C4B984202D00B4B98425B
:103A9C0001D10B690363012242610369134202D015
:103AAC0003699343036110BD002C014000040040E6
:103ABC00FFFCFFFF00200040004401400048014093
:103ACC00102270B5056A036A164C93430362426870
:103ADC00836923400C6824021C4320239D438B687C
:103AEC001B012B43104DA8420FD18025AB431E0068
:103AFC00CB68403D1B013343AB430C4D8E691540E5
:103B0C004A69324392002A4305E0094DA842F4D099
:103B1C00084DA842F1D042604A6884618263036216
:103B2C0070BDC046FF8CFFFE002C0140FFF3FFFF71
:103B3C00004401400048014070B504003C34257835
:103B4C0003000220012D0BD00C2A1FD009D8042A07
:103B5C0014D0082A16D0002A0BD001200023237081
:103B6C0070BD102A16D0142AF7D11868FFF768FD1B
:103B7C0002E01868FFF788FC0020EFE71868FFF7F1
:103B8C009FFFF9E71868FFF7B5FCF5E71868FFF732
:103B9C00F3FCF1E71868FFF723FDEDE7F8B5070034
:103BAC003C3715003A7803000C000220012A0CD097
:103BBC00013838700C2D51D008D8042D2DD0082D7B
:103BCC003CD0002D17D000233B70F8BD102D58D0E1
:103BDC00142DF8D11D682800FFF732FD80236A6D83
:103BEC001B0113436B656B6D2E4A13406B65236988
:103BFC006A6D1B0253E01D682800FFF745FC082383
:103C0C00AA6913430422AB61AB699343AB61AB6903
:103C1C0022691343AB610020D5E71D682800FFF72C
:103C2C004FFF8023AA691B011343AB61AB691D4A8B
:103C3C001340AB612369AA691B02EAE71E683000D6
:103C4C00FFF758FC0422F3691D43F561F3699343B4
:103C5C00F361F36922691343F361DCE71D68280003
:103C6C00FFF78AFC8023EA691B011343EB61EB69C4
:103C7C000C4A1340EB612369EA691B021343EB61A5
:103C8C00C9E71D682800FFF7ABFC08236A6D1343D6
:103C9C0004226B656B6D93436B656B6D22691343EB
:103CAC006B65B8E7FFFBFFFF30B58468034D0A4333
:103CBC001B022C4013432343836030BDFF00FFFFE6
:103CCC00F8B5050002223C352C7803001000012CBD
:103CDC001BD01E0001383D36287032701C68414ADA
:103CEC00A3681340A3600B68602B4ED02DD8402BDB
:103CFC0062D013D8202B0BD008D810221900914376
:103D0C0006D00123337000232B70F8BD302BF8D173
:103D1C00A26835490A401343072228E0502BF0D102
:103D2C004A68CB68216A276A1B0187432762F02700
:103D3C00A069B84303430A2081430A43A36122626A
:103D4C00294BA2681A40572311E08022520193425A
:103D5C000FD08022920193420DD0702BD1D1CB6821
:103D6C004A6820008968FFF79FFF7723A2681343F6
:103D7C00A3600020C5E7CB684A6820008968FFF77C
:103D8C0093FF8023A268DB01F1E710274B68CA6818
:103D9C00216A206A1203B8432062A069134F1B01E9
:103DAC0038400243A02081430B43A2612362A268E6
:103DBC000D4B1A406723DAE74A68CB68216A276AF9
:103DCC001B0187432762F027A069B84303430A20ED
:103DDC0081430A43A3612262034BA2681A40472322
:103DEC00C5E7C0468800CEFF8FFFCFFFFF0FFFFF58
:103DFC001F2310B5012419408C408A40036AA34349
:103E0C000362036A1A43026210BD0000020010B57F
:103E1C0008291CD006D800290BD0042914D0130073
:103E2C00433308E00C2915D01029F8D10300423394
:103E3C0001E003003E331B78013B581E8341DBB28B
:103E4C000120002B09D010BD03003F33F3E7030022
:103E5C004033F0E703004133EDE70223082930D06B
:103E6C0006D800290BD0042928D01000433008E0D4
:103E7C000C2929D01029F8D11000423001E0100093
:103E8C003E300370146801222000FFF7B1FF184A7E
:103E9C00944205D0174B9C4202D0174B9C4216D132
:103EAC008023616C1B020B436364944216D1A3689C
:103EBC00124A1340062B16D10020C4E710003F30E5
:103ECC00DFE710004030DCE710004130D9E78023F9
:103EDC00DB059C42EBD00A4B9C42E8D001232268C4
:103EEC0013432360E8E7802252029342F6D1E3E7C2
:103EFC00002C014000440140004801400700010033
:103F0C000004004010B5FFF781FF10BD10B5082963
:103F1C001CD006D800290BD0042914D0030043333D
:103F2C0008E00C2915D01029F8D10300423301E028
:103F3C0003003E331B78013B5A1E9341DBB2002B2E
:103F4C000AD001203BE003003F33F3E7030040338A
:103F5C00F0E703004133EDE70223082938D005D8F8
:103F6C0000290AD004292BD0433004E00C2932D08C
:103F7C001029F9D142300370E3E702003E3213708E
:103F8C000468E2681343E360046801222000FFF731
:103F9C002FFF1D4A944205D01C4B9C4202D01C4B57
:103FAC009C4220D18023616C1B020B4363649442BE
:103FBC0020D1A368174A1340062B20D1002010BD36
:103FCC0002003F3213700268D3680B43D360DBE707
:103FDC0002004032F6E702004132137010230268EF
:103FEC00D4682343F2E78023DB059C42E1D00A4BE3
:103FFC009C42DED00123226813432360DEE780223B
:10400C0052029342F6D1D9E7002C01400044014002
:10401C0000480140070001000004004070B5040096
:10402C000E00082911D005D8002909D004290CD07C
:10403C00012070BD0C29FBD102681021D36802E06D
:10404C0002210268D3688B4302E02268D368B34331
:10405C002568D360310000222800FFF7C9FE184BF9
:10406C00184A9D4205D0184B9D4202D0174B9D42D9
:10407C000AD12B6A134207D1296A154B194203D175
:10408C006B6C14490B406B642B6A134207D12A6A80
:10409C000F4B1A4203D101222B6893432B6001234F
:1040AC00002E03D13E3400202370C2E7042E01D130
:1040BC003F34F8E7082E01D14034F4E74134F2E7FD
:1040CC00002C014011110000004401400048014047
:1040DC0044040000FF7FFFFF0300104A0833DA6737
:1040EC000F4A80331A600F4AB8305A600E4A9A60F1
:1040FC000E4ADA600E4A1A610E4A5A610E4A9A61E9
:10410C000E4ADA610E4A1A620E4A5A620E4A9A62D4
:10411C000E4ADA620E4B03607047C046B93600088F
:10412C00BB360008C7360008C9360008BF36000881
:10413C00C1360008BD360008C3360008C536000875
:10414C00CB3600087D4400087F44000881440008F9
:10415C008344000870B504000120002C2BD02500EE
:10416C003D352B78DAB2002B0DD123003C331A707D
:10417C002000FFF7B1FFE36C002B01D10E4BE36481
:10418C002000E36C984702232B702068211DFFF759
:10419C0051FC2200012300204832137047340A3AA4
:1041AC00137053709370D370137153719371D371E7
:1041BC00137223702B7070BD0119000870B50400C8
:1041CC000120002C2BD025003D352B78DAB2002BAA
:1041DC000DD123003C331A702000FFF77DFFE36DF7
:1041EC00002B01D10E4BE3652000E36D98470223B1
:1041FC002B702068211DFFF71DFC220001230020DD
:10420C004832137047340A3A137053709370D3705A
:10421C00137153719371D371137223702B7070BD22
:10422C00B536000870B504000120002C2BD02500F9
:10423C003D352B78DAB2002B0DD123003C331A70AC
:10424C002000FFF749FF636E002B01D10E4B636614
:10425C002000636E984702232B702068211DFFF706
:10426C00E9FB2200012300204832137047340A3A3C
:10427C00137053709370D370137153719371D37116
:10428C00137223702B7070BDB7360008F7B504009D
:10429C000D000120002C4FD026003D363378DAB2C9
:1042AC00002B0DD123003C331A702000FFF714FFB4
:1042BC00636F002B01D1214B63672000636F98471C
:1042CC0002232100337080C91D4ABB68380013409B
:1042DC00BB60FFF7AFFBB9682A68BB691143194A89
:1042EC0001911340AA69A96812020A431A43164B9A
:1042FC0029691A40EB6909011B020B43E968386A0A
:10430C000B43296A09030B431343AA2290436A699E
:10431C006D68120101992A430243B960BB613A628C
:10432C002200012300204832137045340A3A1370DE
:10433C005370937123703370FEBDC046F51900089D
:10434C00F8BFFEFFFCFCFFFF0303FFFFF0B504000A
:10435C0002223C34257803001000012D23D01D00CF
:10436C003D352A701A68104E53689068B24203D1DA
:10437C000E4F3B404F683B437027BB430F683B439A
:10438C005360B24206D08023DB059A4202D0084B20
:10439C009A4204D1802398438B6818439060012380
:1043AC0000202B702070F0BD002C0140FFFF0FFF90
:1043BC000004004010B504003C34237802000220B5
:1043CC00012B39D01D48CB680340886803431C4837
:1043DC000340486803431B480340086803431A48DA
:1043EC0003400869034319480340486903431848CC
:1043FC000340086B034317480340886900040343D8
:10440C0015480340C86903431068144A904210D100
:10441C00134A13408A6A12051A43124B1A400B6A4C
:10442C001A43114B1A404B6A1A43104B1A40CB6A71
:10443C00134343640020207010BDC046FFFCFFFFF7
:10444C00FFFBFFFFFFF7FFFFFFEFFFFFFFDFFFFFAC
:10445C00FFBFFFFFFFFFF0FFFFFFFFEF002C01404E
:10446C00FFFF0FFFFFFFFFFEFFFFFFFDFFFFFFDF63
:10447C0070477047704770477047000030B5EFF3D6
:10448C001084012282F310880168134D0B682B40B5
:10449C000B6084F31088EFF3108182F310880268AC
:1044AC000E4C93682340936081F31088C36E012BEC
:1044BC000AD1EFF3108183F310881024026813687B
:1044CC00A343136081F31088030020228C331A60FD
:1044DC000023C366436730BDDFFEFFFFFEFFFFEF27
:1044EC007047704770477047704770477047704708
:1044FC0003000D4A94331A600C4AC0305A600C4ABF
:10450C009A600C4ADA600C4A1A610C4A5A610C4ADD
:10451C009A610C4ADA610C4A1A620C4A5A620C4AC9
:10452C009A620C4B03607047F1440008EF4400089A
:10453C00F5440008F3440008F7440008F944000867
:10454C00FB440008ED440008F5490008F749000851
:10455C00F949000885440008F8B504002569A268EB
:10456C0023682A4365691968C0692A43664D02436A
:10457C0029400A431A605A686449A5690A40E168EF
:10458C000A4363495A608B4201D0226A15439A68E8
:10459C00604E32402A430F259A60DA6AAA43656A54
:1045AC002A43DA625C4A934214D15C4B5A6D032362
:1045BC001A4080231B02022A00D195E0032A00D165
:1045CC009EE0012A00D196E0984200D078E0FEF7F8
:1045DC007DFA55E0524A934200D189E08B4210D1CA
:1045EC00C02280214D4B12015B6D090113408B429F
:1045FC0014D004D8002B06D1FEF768FA05E09342DC
:10460C0039D0012004E0FEF773F9061E07D1002013
:10461C00444BA36600236367A367F8BD424E626AEE
:10462C00424B5200D75A30003900FBF779FD032377
:10463C0065686B438342E4D82B038342E1D30023A8
:10464C003A0030001900FBF7F7FD0027060E0B02AD
:10465C00334302026E0892197B41100019002A00A4
:10466C003B00FBF7E9FD324BC218324B9A42C8D8DB
:10467C002368D860CBE780263602D0E7FEF738F9FE
:10468C000028C4D0626A294B5200D15AFBF748FD6E
:10469C00656840006B08C0182900FBF741FD02005B
:1046AC00254B103A9A42ACD80F23020000079A43CC
:1046BC0093B2400F22680343D360A8E71A48E1E79E
:1046CC00FEF704FA0028A2D0626A184B5200D15AA5
:1046DC00FBF726FD65686B08C0182900FBF720FD69
:1046EC000200154B103AC1E79842E7D00E48EBE7B1
:1046FC0080231B0268E79842C0D0FEF7F9F8E1E787
:10470C009842BFD01800DFE7F369FFCFFFCFFFFF60
:10471C0000800040FFF4FF110038014000100240FF
:10472C0000440040010001000024F400CC4C0008BF
:10473C0000FDFFFFFFFC0F00EFFF0000836A30B5A8
:10474C001A0706D50168284C4A682240846B22431C
:10475C004A60DA0706D50168244C4A682240C46ACC
:10476C0022434A609A0706D50168214C4A682240C8
:10477C00046B22434A605A0706D501681D4C4A68EF
:10478C002240446B22434A60DA0606D501681A4C73
:10479C008A682240C46B22438A609A0606D5016857
:1047AC00164C8A682240046C22438A605A0610D543
:1047BC000168134D4A68446C2A4022434A608022A7
:1047CC005203944205D14A680E4C2240846C224319
:1047DC004A601B0606D502680B4953680B40C16C36
:1047EC000B43536030BDC046FF7FFFFFFFFFFDFF53
:1047FC00FFFFFEFFFFFFFBFFFFEFFFFFFFDFFFFFF2
:10480C00FFFFEFFFFFFF9FFFFFFFF7FFF7B5040070
:10481C000D00170000932268D3692B405B1B594293
:10482C004B41BB4201D0002026E0089B0133F3D062
:10483C00FDF7B0FA009BC01A089B98422DD8002BAC
:10484C002BD023681A685207E5D52A004021403A3C
:10485C008A43E0D0DA6908261100314001913242D6
:10486C000BD020001E62FFF709FE230090331E6060
:10487C000023012084342370FEBD8022D9691201EB
:10488C001142C8D01A622000FFF7F8FD2300202245
:10489C0090331A60019B843423700320ECE70000F2
:1048AC00030073B50026040090331E60FDF772FA06
:1048BC00236805001B681B071FD58021284B32007D
:1048CC000093890303002000FFF7A0FFB04214D02F
:1048DC00EFF31081012383F3108880202268136882
:1048EC008343136081F310882300202288331A60DD
:1048FC00032000238434237076BD260023688C3675
:10490C001B685B0723D58021154B002200932000E8
:10491C002B00C903FFF77AFF002818D0EFF31080A3
:10492C00012282F3108821680E4D0B682B400B601E
:10493C0080F31088EFF3108082F3108821688B6865
:10494C0093438B6080F3108820233360D0E72300DF
:10495C002022002088331A603260E0662067C8E7A6
:10496C00FFFFFF01DFFEFFFF70B5041E01D1012028
:10497C0070BD050088352B68002B0ED102008432E7
:10498C001370FFF7B5FD2300C4331A68002A01D158
:10499C00134A1A6020001B689847242301212268BF
:1049AC002B6013688B431360A36A002B02D020008A
:1049BC00FFF7C4FE2000FFF7CFFD0128D7D02368F6
:1049CC0008495A6820000A402A215A609A688A438A
:1049DC009A60012219680A431A60FFF761FFC7E762
:1049EC00F11A0008FFB7FFFF7047704770470300CC
:1049FC008218934200D1704719700133F9E7000017
:104A0C0070B500260C4C0D4D641BA410A64209D1A8
:104A1C00002600F019F80A4C0A4D641BA410A6429B
:104A2C0005D170BDB300EB5898470136EEE7B300E3
:104A3C00EB5898470136F2E7EC4C0008EC4C0008B8
:104A4C00F04C0008EC4C0008F8B5C046F8BC08BCAB
:104A5C009E467047F8B5C046F8BC08BC9E467047E9
:104A6C0000000002000400060008000A000C000E02
:104A7C0000100012001400160018001A001C001E72
:104A8C0000200022002400260028002A002C002EE2
:104A9C0000300032003400360038003A003C003E52
:104AAC0000400042004400460048004A004C004EC2
:104ABC0000500052005400560058005A005C005E32
:104ACC0000600062006400660068006A006C006EA2
:104ADC0000700072007400760078007A007C007E12
:104AEC0000800082008400860088008A008C008E82
:104AFC0000900092009400960098009A009C009EF2
:104B0C0000A000A200A400A600A800AA00AC00AE61
:104B1C0000B000B200B400B600B800BA00BC00BED1
:104B2C0000C000C200C400C600C800CA00CC00CE41
:104B3C0000D000D200D400D600D800DA00DC00DEB1
:104B4C0000E000E200E400E600E800EA00EC00EE21
:104B5C0000F000F200F400F600F800FA00FC00FE91
:104B6C00FFFF00FE00FC00FA00F800F600F400F273
:104B7C0000F000EE00EC00EA00E800E600E400E2E1
:104B8C0000E000DE00DC00DA00D800D600D400D251
:104B9C0000D000CE00CC00CA00C800C600C400C2C1
:104BAC0000C000BE00BC00BA00B800B600B400B231
:104BBC0000B000AE00AC00AA00A800A600A400A2A1
:104BCC0000A0009E009C009A009800960094009211
:104BDC000090008E008C008A008800860084008281
:104BEC000080007E007C007A0078007600740072F1
:104BFC000070006E006C006A006800660064006261
:104C0C000060005E005C005A0058005600540052D0
:104C1C000050004E004C004A004800460044004240
:104C2C000040003E003C003A0038003600340032B0
:104C3C000030002E002C002A002800260024002220
:104C4C000020001E001C001A001800160014001290
:104C5C000010000E000C000A000800060004000200
:104C6C000000000000000000000000000000000038
:104C7C00010000000200000003000000040000001E
:104C8C000000000000000000000000000000000018
:104C9C000000000000000000000000000000000008
:104CAC0001000000020000000300000004000000EE
:104CBC0006000000070000000800000009000000CA
:104CCC00010002000400060008000A000C0010009D
:084CDC002000400080000001EF
:084CE400A0B5FF7F01000000F4
:044CEC00E5000008D7
:044CF000BD000008FB
:104CF4000E0000012000400080000000000400506D
:104D04000004005000040050000400501000200073
:104D14004000800000080010000000500000005017
:104D2400000000500000005000000050000000503F
:0C4D34000024F400010000000400000056
:0400000508001CBD16
:00000001FF
