:020000040800F2
:1000000000200020A13C0008153800081D38000819
:1000100000000000000000000000000000000000E0
:10002000000000000000000000000000253800086B
:1000300000000000000000002F38000839380008D8
:10004000F13C0008F13C0008CD380008F13C000804
:10005000F13C000847380008F13C000871380008FE
:1000600000000000F13C0008F13C0008F13C0008F1
:10007000F13C0008F13C0008F13C0008F13C0008AC
:10008000F13C0008E5380008F13C0008853800081C
:10009000000000009D380008B5380008F13C000859
:1000A000F13C0008F13C0008F13C0008F13C00087C
:0C00B00059380008F13C00080000000076
:1000BC0010B5064C2378002B07D1054B002B02D032
:1000CC00044800E000BF0123237010BD5000002045
:1000DC000000000058AE0008044B10B5002B03D0F4
:1000EC000349044800E000BF10BDC04600000000FA
:1000FC005400002058AE0008002243088B4274D3F1
:10010C0003098B425FD3030A8B4244D3030B8B420C
:10011C0028D3030C8B420DD3FF22090212BA030C15
:10012C008B4202D31212090265D0030B8B4219D3F6
:10013C0000E0090AC30B8B4201D3CB03C01A524116
:10014C00830B8B4201D38B03C01A5241430B8B425E
:10015C0001D34B03C01A5241030B8B4201D30B0347
:10016C00C01A5241C30A8B4201D3CB02C01A52416E
:10017C00830A8B4201D38B02C01A5241430A8B4231
:10018C0001D34B02C01A5241030A8B4201D30B021A
:10019C00C01A5241CDD2C3098B4201D3CB01C01A34
:1001AC00524183098B4201D38B01C01A524143093E
:1001BC008B4201D34B01C01A524103098B4201D32C
:1001CC000B01C01A5241C3088B4201D3CB00C01A99
:1001DC00524183088B4201D38B00C01A5241430811
:1001EC008B4201D34B00C01A5241411A00D2014636
:1001FC00524110467047FFE701B5002000F006F8A9
:10020C0002BDC0460029F7D076E770477047C0465C
:10021C00002B11D1002A0FD1002900D1002802D0C7
:10022C000021C943080007B4024802A140180290FB
:10023C0003BDC046D9FFFFFF03B4684601B5029861
:10024C0000F006F8019B9E4602B00CBC7047C046FD
:10025C00F0B557464E464546DE46E0B504000D0067
:10026C009246994683B08B4230D82DD049465046A1
:10027C0000F0BAF829000600200000F0B5F8331A97
:10028C009846203B34D49B4653465A4693404246AC
:10029C001F00534693401E00AF423BD8AF4200D1E3
:1002AC0079E05B46A41BBD41002B00DA76E000220E
:1002BC0000230092019301235A469340019301239A
:1002CC0042469340009329E08242CFD9002200237A
:1002DC00009201930C9B002B01D01C605D60009878
:1002EC00019903B0F0BCBB46B246A946A046F0BD8E
:1002FC0042469B4620239B1A5246DA404146130045
:10030C004A468A40170042461F43534693401E00FC
:10031C00AF42C3D900220023009201934346002B25
:10032C00D8D0FB0772081A4346467B080EE0AB4256
:10033C0001D1A2420CD8A41A9D41012024196D416F
:10034C000021013E24184D41002E06D0AB42EED9BF
:10035C00013E24196D41002EF8D1009801995B469D
:10036C0000196941002B24DB2B005A464446D3402C
:10037C002A00E2401C005B461500002B2ADB2600FD
:10038C009E40330026004746BE403200801A9941F9
:10039C00009001919EE7A342BCD882E742462023FD
:1003AC0000219B1A0022009101920122DA40019255
:1003BC0085E7424620239B1A2A0046469A40230092
:1003CC00F340444613432A00E2401C005B461500F0
:1003DC00002BD4DA42462F002023260097409B1A8C
:1003EC00DE403B003343CDE710B5002903D100F0CC
:1003FC0007F8203002E0080000F002F810BDC046FB
:10040C001C2101231B04984201D3000C10391B0A38
:10041C00984201D3000A08391B09984201D30009FC
:10042C00043902A2105C40187047C0460403020253
:10043C0001010101000000000000000080B500AFC8
:10044C00214B5B6F602B34D01F4B5B6F102B04D890
:10045C001E4B1B681E4ADA6325E01B4B5B6F102B8F
:10046C0008D9194B5B6F302B04D8184B1B68002232
:10047C00DA6318E0144B5B6F302B08D9124B5B6FAF
:10048C00402B04D8114B1B68114ADA630BE00E4B5E
:10049C005B6F402B07D90C4B5B6F602B03D80B4B5E
:1004AC001B680022DA63084B5B6F5A1C064B5A67B9
:1004BC0006E0054B00225A67034B78220021995421
:1004CC0001231800BD4680BD6C060020540200209C
:1004DC003075000080B500AF064B0021180006F007
:1004EC0055FD044B1B68044A5A6301231800BD4692
:1004FC0080BDC046540200201027000080B500AF1C
:10050C00054B1B6800225A63034B1B680022DA63FD
:10051C0001231800BD4680BD5402002080B500AFF9
:10052C000A4B0021180006F031FD084B1B68084AE5
:10053C005A63064B0821180006F028FD034B1B6874
:10054C00044ADA6301231800BD4680BD5402002022
:10055C0088130000204E000080B500AF054B1B68CF
:10056C0000225A63034B1B680022DA630123180034
:10057C00BD4680BD5402002080B500AF0C4B180066
:10058C0006F0EAF90A4B0821180006F0FFFC084BAC
:10059C001B680022DA63064B0021180006F0F6FCFB
:1005AC00034B1B6800225A6301231800BD4680BD13
:1005BC005402002080B500AF114B180006F0CCF9A6
:1005CC000F4B0021180006F0E1FC0D4B1B680022BC
:1005DC005A630B4B0421180006F0D8FC084B1B681F
:1005EC0000229A63064B0821180006F0CFFC044B3E
:1005FC001B680022DA6301231800BD4680BDC0468B
:10060C00DC00002080B500AF064B0821180006F076
:10061C00BDFC044B1B68044ADA6301231800BD4679
:10062C0080BDC04654020020FFFF000080B584B09E
:10063C0000AF3D4BFB603C4BBB603C4B7B603C4B91
:10064C00DB6B3C4A934259D0394BDB6BFA689A42CC
:10065C0007D380239B0038480122190003F019FFAF
:10066C0046E0334BDB6BFA689A420ED2304BDA6BB6
:10067C00F968BB68CB189A4207D880239B002E4898
:10068C000022190003F005FF32E0294BDA6BF96800
:10069C00BB68CB189A4210D9254BDA6BF968BB684A
:1006AC00C918FB68CB189A4207D880239B002248B4
:1006BC000122190003F0EDFE1AE01D4BDA6BF9680C
:1006CC00BB68C918FB68CB189A4211D9184BDA6B66
:1006DC00F968BB68C918FB68C9187B68CB189A42C3
:1006EC0006D880239B0014480022190003F0D1FE89
:1006FC000F4BDB6B5A1C0E4BDA6302E00C4B0022E7
:10070C00DA630B4B38229B5CDBB2002B06D18023C7
:10071C009B0009480022190003F0BBFE01231800BE
:10072C00BD4604B080BDC046204E0000409C000079
:10073C006C060020A08601000004005090B58DB01E
:10074C0000AF040008001100FB1D221C1A70BB1D19
:10075C00021C1A707B1D0A1C1A7008203B18802280
:10076C0052005A623B1820220121995401007B1837
:10077C008022D205DA617B18802212065A617B181E
:10078C0000229A617B180022DA707B18FA1D12780D
:10079C001A707B18BA1D12785A707B187A1D127851
:1007AC009A707B1800225A607918074B01221800A6
:1007BC0005F0A8FC031E01D000F00EFE012318006A
:1007CC00BD460DB090BDC0468000002080B500AF86
:1007DC0080235A000B4B1100180005F0D3FD0A4B77
:1007EC000022DA63084B38220021995480239B00A5
:1007FC0006480022190003F04CFE01231800BD46E8
:10080C0080BDC046800000206C0600200004005013
:10081C0090B583B000AF0E4B1B68DA680C4B1B68AD
:10082C0001210A43DA60FC1D094B0021180003F07A
:10083C007DF803002370FB1D1B78002B01D000F00A
:10084C00CBFDFB1D1B781800BD4603B090BDC04608
:10085C00CC03002080B500AF03F046FA00F0C8F8D6
:10086C0000F0C8FC00F030F900F048FA00F0A8FAEB
:10087C0000F08CFC00F05EF900F002FC00F07AFB5A
:10088C0000F02AFB00F070FD2B4A2C4B0E211800B7
:10089C0007F064F92A4A2B4B0E21180007F05EF979
:1008AC00294A2A4B0E21180007F058F9284A294BDF
:1008BC000221180004F04CF8274A284B002118009C
:1008CC0005F0AEF9264A274B0321180008F014F85E
:1008DC00254A244B0121180008F00EF800F04CF8C2
:1008EC0082235B001D480022202105F034FF1F4BA2
:1008FC00180003F053F801F07DFDFFF789FF01208C
:10090C0003F0A6F91A4B3C21180006F0D3FC114B4E
:10091C00FA22FA21180003F0A5FEFFF72DFEFFF7CF
:10092C0049FE14490F4B0222180008F03DF901232F
:10093C001800BD4680BDC046F11300088804002095
:10094C009D1C0008CC030020BD1D000810030020D6
:10095C00F11D0008440500202D2200088000002015
:10096C0049220008A0050020A92300086C060020DD
:10097C0098010020EC06002080B586B000AF3B004B
:10098C001622DA703B0002225A703B0018229A7031
:10099C003B0002221A703900144B0122180005F09A
:1009AC00D1FA031E01D000F017FD3B1D00221A7076
:1009BC003B1D00225A703B1D00229A703B1D0022E9
:1009CC00DA703B1D0022DA603B1D00221A61391DD2
:1009DC00064B0122180005F0B1F9031E01D000F0FE
:1009EC00FBFCC046BD4606B080BDC0468000002062
:1009FC0090B593B000AF10243B19180038231A009F
:100A0C0000210AF0F7F93B00180010231A0000210E
:100A1C000AF0F0F980239B00180004F08FF904F021
:100A2C007FF9284BDA6D274B18210A43DA653B19FD
:100A3C0006221A603B1901229A603B19802252004F
:100A4C00DA6021007B1800221A617B1840225A615F
:100A5C007B180222DA617B1802221A627B180022B0
:100A6C005A627B1808229A627B1880229202DA6200
:100A7C007B18802292041A637B18802292055A6399
:100A8C007B18180004F0A6F9031E01D000F0A4FC9A
:100A9C003B0007221A603B0002225A603B000022F6
:100AAC009A603B000022DA603B000221180004F03F
:100ABC00ABFC031E01D000F08FFCC046BD4613B04A
:100ACC0090BDC0460010024080B500AF174B184ACD
:100ADC001A60164B00229A60144B7F22DA60134B7B
:100AEC00FF221A61114B00225A61104B00229A61AD
:100AFC000E4B0022DA610D4B8022D2051A620B4B91
:100B0C0000225A62094B180004F0A2FF031E01D008
:100B1C0000F062FC00220021022003F03BFA0220CC
:100B2C0003F04DFAC046BD4680BDC0468000002093
:100B3C000028004080B59CB000AF6023FB18180063
:100B4C0010231A0000210AF055F95423FB18180041
:100B5C000C231A0000210AF04DF93823FB18180059
:100B6C001C231A0000210AF045F93B1D1800342300
:100B7C001A0000210AF03EF95D4B5E4A1A605C4B8C
:100B8C0000225A605A4B00229A60594B5A4ADA603A
:100B9C00574B802292001A61554B00225A61544BDC
:100BAC0080229A61524B180005F070FE031E01D092
:100BBC0000F012FC60217B18802252011A607A1816
:100BCC004B4B1100180006F0A3FE031E01D000F0E1
:100BDC0003FC474B180006F06BF9031E01D000F024
:100BEC00FBFB54217B1800221A607B1800225A60F0
:100BFC007B1800229A607A183D4B1100180007F000
:100C0C00EFFC031E01D000F0E7FB38217B186022BB
:100C1C001A607B18FA2212015A607B1800229A6023
:100C2C007B180022DA607B1800221A617B180022E4
:100C3C005A617B1800229A6179182D4B00221800FA
:100C4C0006F066FD031E01D000F0C6FB3823F91830
:100C5C00274B0422180006F05BFD031E01D000F0A8
:100C6C00BBFB3823F918224B0822180006F050FD64
:100C7C00031E01D000F0B0FB3B1D00221A603B1D8F
:100C8C0000225A603B1D00229A603B1D0022DA6054
:100C9C003B1D00221A613B1D802292015A613B1DB3
:100CAC0000229A613B1D0022DA613B1D00221A6270
:100CBC003B1D802292045A623B1D00229A623B1D0E
:100CCC000022DA623B1D00221A633A1D084B110008
:100CDC00180007F0EDFC031E01D000F07DFB044B67
:100CEC00180002F01DFCC046BD461CB080BDC046BD
:100CFC00DC000020002C0140FFFF000090B58DB0FF
:100D0C0000AF0C243B19180024231A0000210AF010
:100D1C0071F83B0018000C231A0000210AF06AF845
:100D2C00264B8022D2051A60244B00225A60234B9A
:100D3C0000229A60214B01225242DA601F4B0022A2
:100D4C001A611E4B00229A6121007B1801221A6045
:100D5C007B1802225A607B1801229A607B180022B1
:100D6C00DA607B180F221A617B1802225A617B18F9
:100D7C0001229A617B180022DA617B1800221A6228
:100D8C007A180E4B1100180006F0DEF9031E01D084
:100D9C0000F022FB3B0000221A603B0000229A600C
:100DAC003A00064B1100180007F01AFC031E01D084
:100DBC0000F012FBC046BD460DB090BD980100205E
:100DCC0080B58EB000AF2823FB18180010231A0032
:100DDC0000210AF00FF81C23FB1818000C231A0032
:100DEC0000210AF007F83B0018001C231A00002110
:100DFC000AF000F8354B364A1A60344B00225A6020
:100E0C00324B00229A60314B324ADA602F4B8022EF
:100E1C0092001A612D4B80229A612C4B180005F020
:100E2C0035FD031E01D000F0D7FA28217B18802253
:100E3C0052011A607A18254B1100180006F068FD53
:100E4C00031E01D000F0C8FA204B180006F030F851
:100E5C00031E01D000F0C0FA1C217B1800221A607E
:100E6C007B1800229A607A18184B1100180007F0B2
:100E7C00B7FB031E01D000F0AFFA3B0060221A60F2
:100E8C003B0000225A603B0000229A603B0000228B
:100E9C001A6139000D4B0022180006F039FC031EB4
:100EAC0001D000F099FA3900084B0822180006F01E
:100EBC002FFC031E01D000F08FFA044B180002F037
:100ECC002FFBC046BD460EB080BDC046540200206C
:100EDC0000040040FFFF000080B588B000AF3B1D50
:100EEC0018001C231A00002109F084FF1E4B1F4A16
:100EFC001A601D4B7822FF325A601B4B00229A60FD
:100F0C00194B1B4ADA60184B802292001A61164B5F
:100F1C0080229A61144B180005F0B8FC031E01D016
:100F2C0000F05AFA104B180005F062FD031E01D0B8
:100F3C0000F052FA3B1D00221A603B1D00225A6041
:100F4C003B1D00229A603B1D00221A61391D064B85
:100F5C000022180006F07CFB031E01D000F03CFAC6
:100F6C00C046BD4608B080BD1003002000200040E4
:100F7C00FFFF000080B594B000AF3423FB181800BD
:100F8C001C231A00002109F035FF3B001800342304
:100F9C001A00002109F02EFF364B374A1A60354BE8
:100FAC00364A5A60334B00229A60324B334ADA602D
:100FBC00304B802292001A612E4B00225A612D4B2D
:100FCC0080229A612B4B180005F060FC031E01D0A7
:100FDC0000F002FA274B180005F00AFD031E01D0A1
:100FEC0000F0FAF934217B1800221A607B180022D9
:100FFC005A607B1800229A607B180022DA607B18FA
:10100C0000221A617B1800225A617B1800229A6117
:10101C007918184B0022180006F01AFB031E01D099
:10102C0000F0DAF93B0000221A603B0000225A6003
:10103C003B0000229A603B000022DA603B00002259
:10104C001A613B00802292015A613B0000229A6196
:10105C003B0000221A633A00064B1100180007F0FF
:10106C0027FB031E01D000F0B7F9C046BD4614B0F3
:10107C0080BDC046CC03002000440140FFFF0000AF
:10108C0080B594B000AF3423FB1818001C231A0051
:10109C00002109F0AFFE3B00180034231A00002198
:1010AC0009F0A8FE364B374A1A60354B03225A60BA
:1010BC00334B00229A60324B334ADA60304B802239
:1010CC0092001A612E4B00225A612D4B80229A619C
:1010DC002B4B180005F0DAFB031E01D000F07CF955
:1010EC00274B180005F084FC031E01D000F074F9A6
:1010FC0034217B1800221A607B1800225A607B185E
:10110C0000229A607B180022DA607B1800221A6198
:10111C007B1800225A617B1800229A617918184BAF
:10112C000022180006F094FA031E01D000F054F9C6
:10113C003B0000221A603B0000225A603B00002258
:10114C009A603B000022DA603B0000221A613B00EF
:10115C00802292015A613B0000229A613B000022DE
:10116C001A633A00064B1100180007F0A1FA031E8F
:10117C0001D000F031F9C046BD4614B080BDC04668
:10118C008804002000480140B888000080B500AFFA
:10119C00164B174A1A60154B962292015A60134B44
:1011AC0000229A60114B0022DA60104B00221A6167
:1011BC000E4B0C225A610D4B00229A610B4B0022F4
:1011CC00DA610A4B00221A62084B00225A62074B62
:1011DC0000229A62054B180007F026FB031E01D073
:1011EC0000F0FAF8C046BD4680BDC046A005002000
:1011FC000044004090B58BB000AF14243B1918008C
:10120C0014231A00002109F0F5FD534B5A6B524B75
:10121C0002210A435A63504B5B6B022213403B6121
:10122C003B694D4B5A6B4C4B04210A435A634A4B56
:10123C005B6B04221340FB60FB68474B5A6B464BBD
:10124C0020210A435A63444B5B6B20221340BB6042
:10125C00BB68414B5A6B404B01210A435A633E4BCE
:10126C005B6B012213407B607B683B19FF22920071
:10127C001A603B1901225A603B1900229A603B19F3
:10128C000022DA603B19354A1900100002F080FF89
:10129C0021007B1804221A607B18882252035A60A2
:1012AC000C003B1900229A603B192D4A19001000C2
:1012BC0002F06EFF3B192B4A1A603B1901225A604F
:1012CC003B1900229A603B190022DA603A19A023DC
:1012DC00DB051100180002F05BFF21007B180222D5
:1012EC001A607B18882252035A607B1800229A607D
:1012FC000C007B18194A1900100002F049FF21005C
:10130C007B18802212021A607B1800225A607B180C
:10131C0001229A607A18A023DB051100180002F054
:10132C0037FFFF239B000D480022190003F0B1F892
:10133C000C49A023DB050122180003F0AAF80022B7
:10134C000021052002F026FE052002F038FEC046E2
:10135C00BD460BB090BDC0460010024000040050CA
:10136C0000140050F018000080B500AF174B184A5D
:10137C001A60164B00225A60144BE02212019A603C
:10138C00124B144A5A61114B00221A620F4B8022E5
:10139C00D2035A620D4B00229A620C4B0022DA6285
:1013AC000A4B00221A63094B180003F0ABF8031E1A
:1013BC0001D000F011F800220021112002F0EAFD0A
:1013CC00112002F0FCFDC046BD4680BD4405002046
:1013DC00007C0040FFFF000080B500AF72B6C04635
:1013EC00C046FDE780B584B000AF78600F23FB18D2
:1013FC0000221A700E23FB1800221A7002F0C4FB94
:10140C000023BB6003E0C046BB680133BB60CB4B21
:10141C0084229B5A9BB21A00BB689342F3D3C74BEE
:10142C001B79DBB2062B05D10E23FB1800221A7098
:10143C0000F09CFBC14B1B79DBB2012B63D102F09A
:10144C005DFA0E23FB1801221A70BD4B1B78002B82
:10145C000CD1BA4B20229B5CDBB21B09DAB20F23F6
:10146C00FB180F210A401A7000F080FBB44B1B785C
:10147C00012B0AD1B14B20229B5CDAB20F23FB1853
:10148C000F210A401A7000F071FBAD4B1B78022B38
:10149C000CD1AA4B21229B5CDBB21B09DAB20F23C5
:1014AC00FB180F210A401A7000F060FBA44B1B784C
:1014BC00032B09D1A14B21229B5CDAB20F23FB1821
:1014CC000F210A401A7051E39D4B1B78042B0BD152
:1014DC009A4B22229B5CDBB21B09DAB20F23FB185E
:1014EC000F210A401A7041E3954B1B78052B00D055
:1014FC003CE3924B22229B5CDAB20F23FB180F21A8
:10150C000A401A7032E38D4B1B79DBB2022B0CD1E3
:10151C000E23FB1801221A70884B1B78DAB20F23AA
:10152C00FB180F210A401A7020E3844B1B79DBB2A5
:10153C00032B05D0814B1B79DBB2072B00D001E1CB
:10154C007F4B1B78002B2BD17C4B6E229B5CDBB230
:10155C00012B03D10E23FB1801221A70774B1B7938
:10156C00DBB2032B0AD1754B1B7ADBB21B09DAB247
:10157C000F23FB180F210A401A70F4E26F4B1B79F2
:10158C00DBB2072B00D0EEE26C4B40229B5CDBB253
:10159C001B09DAB20F23FB180F210A401A70E2E282
:1015AC00674B1B78012B27D1644B6E229B5CDBB203
:1015BC00012B03D10E23FB1801221A705F4B1B79F0
:1015CC00DBB2032B08D15D4B1B7ADAB20F23FB186D
:1015DC000F210A401A70C6E2584B1B79DBB2072B5D
:1015EC0000D0C0E2554B40229B5CDAB20F23FB18B3
:1015FC000F210A401A70B6E2514B1B78022B25D1F1
:10160C000E23FB1801221A704C4B1B79DBB2032BF7
:10161C000AD14A4B5B7ADBB21B09DAB20F23FB18F7
:10162C000F210A401A709EE2444B1B79DBB2072B48
:10163C0000D098E2414B41229B5CDBB21B09DAB231
:10164C000F23FB180F210A401A708CE23C4B1B78BD
:10165C00032B21D10E23FB1801221A70374B1B7957
:10166C00DBB2032B08D1354B5B7ADAB20F23FB18B4
:10167C000F210A401A7076E2304B1B79DBB2072B34
:10168C0000D070E22D4B41229B5CDAB20F23FB1889
:10169C000F210A401A7066E2294B1B78042B25D1C6
:1016AC000E23FB1801221A70244B1B79DBB2032B7F
:1016BC000AD1224B9B7ADBB21B09DAB20F23FB183F
:1016CC000F210A401A704EE21C4B1B79DBB2072B20
:1016DC0000D048E2194B42229B5CDBB21B09DAB208
:1016EC000F23FB180F210A401A703CE2144B1B7895
:1016FC00052B00D037E20E23FB1801221A700F4B7A
:10170C001B79DBB2032B08D10C4B9B7ADAB20F237B
:10171C00FB180F210A401A7025E2084B1B79DBB22B
:10172C00072B00D01FE2054B42229B5CDAB20F2341
:10173C00FB180F210A401A7015E2C0466C060020F7
:10174C006C000020D14B1B79DBB2042B05D0CF4BA6
:10175C001B79DBB2082B00D0FCE0CD4B1B78002BA7
:10176C0025D10E23FB1801221A70C84B1B79DBB252
:10177C00042B0AD1C54B1B7ADBB21B09DAB20F233F
:10178C00FB180F210A401A70EFE1C04B1B79DBB23A
:10179C00082B00D0E9E1BD4B40229B5CDBB21B095E
:1017AC00DAB20F23FB180F210A401A70DDE1B84B97
:1017BC001B78012B21D10E23FB1801221A70B34B7D
:1017CC001B79DBB2042B08D1B04B1B7ADAB20F2396
:1017DC00FB180F210A401A70C7E1AC4B1B79DBB226
:1017EC00082B00D0C1E1A94B40229B5CDAB20F233D
:1017FC00FB180F210A401A70B7E1A54B1B78022B7E
:10180C002BD1A24B6E229B5CDBB2012B03D10E239E
:10181C00FB1801221A709D4B1B79DBB2042B0AD1E9
:10182C009A4B5B7ADBB21B09DAB20F23FB180F2140
:10183C000A401A7099E1954B1B79DBB2082B00D04A
:10184C0093E1924B41229B5CDBB21B09DAB20F2372
:10185C00FB180F210A401A7087E18D4B1B78032B64
:10186C0027D18A4B6E229B5CDBB2012B03D10E235A
:10187C00FB1801221A70854B1B79DBB2042B08D1A3
:10188C00824B5B7ADAB20F23FB180F210A401A70D5
:10189C006BE17E4B1B79DBB2082B00D065E17B4BF7
:1018AC0041229B5CDAB20F23FB180F210A401A70FD
:1018BC005BE1774B1B78042B25D10E23FB180122FF
:1018CC001A70724B1B79DBB2042B0AD16F4B9B7ACB
:1018DC00DBB21B09DAB20F23FB180F210A401A7076
:1018EC0043E16A4B1B79DBB2082B00D03DE1674B1F
:1018FC0042229B5CDBB21B09DAB20F23FB180F21CF
:10190C000A401A7031E1624B1B78052B00D02CE198
:10191C000E23FB1801221A705C4B1B79DBB2042BD3
:10192C0008D15A4B9B7ADAB20F23FB180F210A40CD
:10193C001A701AE1554B1B79DBB2082B00D014E15D
:10194C00524B42229B5CDAB20F23FB180F210A4048
:10195C001A700AE14D4B1B79DBB2052B05D04B4BB2
:10196C001B79DBB2092B00D000E1494B1B78002B13
:10197C0025D10E23FB1801221A70444B1B79DBB2C4
:10198C00052B0AD1414B1B7ADBB21B09DAB20F23B0
:10199C00FB180F210A401A70E8E03C4B1B79DBB2B4
:1019AC00092B00D0E2E0394B40229B5CDBB21B09D7
:1019BC00DAB20F23FB180F210A401A70D6E0344B11
:1019CC001B78012B21D10E23FB1801221A702F4BEF
:1019DC001B79DBB2052B08D12C4B1B7ADAB20F2307
:1019EC00FB180F210A401A70C0E0284B1B79DBB2A0
:1019FC00092B00D0BAE0254B40229B5CDAB20F23B6
:101A0C00FB180F210A401A70B0E0214B1B78022BF7
:101A1C0025D10E23FB1801221A701C4B1B79DBB24B
:101A2C00052B0AD1194B5B7ADBB21B09DAB20F23F7
:101A3C00FB180F210A401A7098E0144B1B79DBB28B
:101A4C00092B00D092E0114B41229B5CDBB21B09AD
:101A5C00DAB20F23FB180F210A401A7086E00C4BE8
:101A6C001B78032B25D10E23FB1801221A70074B70
:101A7C001B79DBB2052B0DD1044B5B7ADAB20F2349
:101A8C00FB180F210A401A7070E0C0466C0600204B
:101A9C006C000020784B1B79DBB2092B66D1764B9E
:101AAC0041229B5CDAB20F23FB180F210A401A70FB
:101ABC005CE0724B1B78042B2AD16F4B6E229B5C23
:101ACC00DBB2012B03D10E23FB1801221A706A4BD7
:101ADC001B79DBB2052B0AD1674B9B7ADBB21B0956
:101AEC00DAB20F23FB180F210A401A703EE0624B4A
:101AFC001B79DBB2092B39D15F4B42229B5CDBB2E9
:101B0C001B09DAB20F23FB180F210A401A702DE0C3
:101B1C005A4B1B78052B29D1574B6E229B5CDBB2A1
:101B2C00012B03D10E23FB1801221A70524B1B7987
:101B3C00DBB2052B08D1504B9B7ADAB20F23FB1882
:101B4C000F210A401A7011E04B4B1B79DBB2092BA9
:101B5C000CD1494B42229B5CDAB20F23FB180F21AC
:101B6C000A401A7002E0C04600E0C0460E23FB1883
:101B7C001B78002B08D0414B1A780F23FB181B78CD
:101B8C001900100001F08EFF3C4B1B780133DAB2C8
:101B9C003A4B1A70394B1B78062B02D1374B00226B
:101BAC001A70354B1B79DBB2012B09D0324B1B79E8
:101BBC00DBB2022B11D1304B5B79DBB2012B0CD198
:101BCC002F4B01220821180002F063FC2C4B012240
:101BDC001021180002F05DFC0BE0294B00220821BB
:101BEC00180002F056FC264B00221021180002F0BF
:101BFC0050FC214B38229B5CDBB2012B29D1214BB1
:101C0C001B881A00204B5200D25A204B1B685A6377
:101C1C001C4B1B881A001C4B5200D25A1B4B1B68C6
:101C2C009A63184B1B881A00174B5200D25A174B49
:101C3C001B68DA63134B1B88FF2B03D1114B00225B
:101C4C001A8015E00F4B1B8801339AB20D4B1A808A
:101C5C000EE00E4B1B6800225A630C4B1B680022D3
:101C6C009A630A4B1B680022DA63064B00221A8027
:101C7C00C046BD4604B080BD6C0600206C00002040
:101C8C00000400506E00002070AE0008DC00002044
:101C9C0080B582B000AF7860404B1B79DBB2022B71
:101CAC0005D03F4B0221180001F0E6FE06E03B4B4D
:101CBC001B78DBB20133DAB2384B1A70374B9B7896
:101CCC00DBB21A00354BDB78013B9A422ED1334BF9
:101CDC001B78DBB21A00314B5B7801339A4225D169
:101CEC00304B1B68304ADA622E4B2F4ADA602D4B90
:101CFC001B682D4A9A622D4B5A692C4B01210A43C1
:101D0C005A612A4B1A69294B01218A431A61234BC8
:101D1C005B79DAB2224B1100180001F0ADFE1F4BBB
:101D2C0000221A701D4B00229A7032E01D4B1B686A
:101D3C001D4ADA621B4B1C4ADA601A4B1B681922CB
:101D4C009A621A4B5A69194B01210A435A61174B73
:101D5C001A69164B01218A431A61104B1B78DBB2AE
:101D6C001A000E4B5B7801339A4212D10B4B9B78C5
:101D7C00DBB21A00094BDB78013B9A4209D0074BC6
:101D8C0000221A70054B9B78DBB20133DAB2034B9D
:101D9C009A70C046BD4602B080BDC0466C0600209D
:101DAC0070060020CC030020FFFF0000004401401F
:101DBC0080B582B000AF7860094B6E229B5CDBB2C1
:101DCC00012B04D1064B6E220021995403E0044BE5
:101DDC006E2201219954C046BD4602B080BDC0465A
:101DEC006C06002090B583B000AF7860B84B18003B
:101DFC0001F0D6F9B74B6C229B5CDBB2002B00D008
:101E0C00D6E1B54B1B78002B00D0C2E0B34B1B784E
:101E1C00002B00D0BDE0AF4B38229B5CDBB2002B1B
:101E2C0000D0B6E0AE4B1A685B68002B04D140D1F1
:101E3C00FA21C9008A423CD3A94B1A685B68002B73
:101E4C0037D103D1FA2109018A4232D2A24B0122A5
:101E5C001A70A44B0321180001F00EFE01F0BCFE19
:101E6C009C4B9C4A0833203213CA13C303CA03C3C6
:101E7C00984B1B7ADBB2180004F040FC03001A00EC
:101E8C00944B1A77934B5B7ADBB2180004F036FC58
:101E9C0003001A008F4B5A778E4B9B7ADBB21800DB
:101EAC0004F02CFC03001A008A4B9A77FEF712FB05
:101EBC006EE08B4B1A685B68002B03D144D18A49C6
:101ECC008A4241D9864B1A685B68002B3CD102D1FF
:101EDC0086498A4238D8814B01221A70814B0721DE
:101EEC00180001F0C9FD01F077FE7A4B794A4033B6
:101EFC00203213CA13C303CA03C3764B40229B5C24
:101F0C00DBB2180004F0FAFB03001900714B5422E9
:101F1C009954704B41229B5CDBB2180004F0EEFB31
:101F2C00030019006B4B552299546A4B42229B5C5F
:101F3C00DBB2180004F0E2FB03001900654B5622DB
:101F4C009954FEF7EBFA23E0654B1A685B68002B9B
:101F5C0005D100D021E166498A4200D81DE1604BD1
:101F6C001A685B68002B00D017E103D161498A42E3
:101F7C0000D912E1574B39229B5CDBB2012B00D00C
:101F8C000BE1FEF723FC534B78220121995404E119
:101F9C0003E1514B1B78012B00D05EE0504B1A68CB
:101FAC005B68002B04D12FD1FA21C9008A422BD3B4
:101FBC004B4B1A685B68002B26D103D1FA2109011F
:101FCC008A4221D2434B1B79DBB2032B05D1454B03
:101FDC000421180001F050FDE1E03E4B1B79DBB20F
:101FEC00042B05D13F4B0521180001F045FDD6E02F
:101FFC00384B1B79DBB2052B00D0D0E0394B0321D9
:10200C00180001F039FDCAE0354B1A685B68002BEB
:10201C0005D100D0C6E034498A4200D8C2E0304B2A
:10202C001A685B68002B00D0BCE003D12F498A42B0
:10203C0000D9B7E02B4B0121180001F01DFD01F078
:10204C00EDFD254B00221A702B492C4B0122180058
:10205C0003F074FEFEF752FAA4E0204B1B78012B20
:10206C0000D07FE01E4B1A685B68002B04D147D16F
:10207C00FA21C9008A4243D3194B1A685B68002BBA
:10208C003ED103D1FA2109018A4239D2114B1B7975
:10209C00DBB2072B05D1134B0821180001F0ECFC27
:1020AC007FE00C4B1B79DBB2082B05D10D4B0921C2
:1020BC00180001F0E1FC74E0064B1B79DBB2092B34
:1020CC0000D06EE0074B0721180001F0D5FC68E04A
:1020DC00D80600206C060020700000207100002043
:1020EC007800002070060020811400004B1D0000B9
:1020FC0039200000F72A0000740600208000002020
:10210C00384B1A685B68002B03D14BD136498A4295
:10211C0048D9344B1A685B68002B43D102D1334940
:10212C008A423FD8324B0121180001F0A5FC01F086
:10213C0075FD304B00221A702F4B40229B5CD8B29D
:10214C002D4B41229B5CD9B22B4B42229B5CDBB2C8
:10215C001A00FEF7F3FAFEF7FFF9274B392201219B
:10216C0099541FE0244B38229B5CDBB2012B19D114
:10217C001C4B1A685B68002B02D113D1312A11D980
:10218C00184B1A685B68002B0CD103D1FA2149005B
:10219C008A4207D2FEF71AFB04E0C04602E0C046B2
:1021AC0000E0C0460F49002200230A604B600FE09C
:1021BC00114B6C229B5CDBB2012B09D1094B1A68C9
:1021CC005B680120002112184B4106490A604B60E4
:1021DC000A4BFA22FA21180002F044FAC046BD4616
:1021EC0003B090BD78000020811400004B1D00004E
:1021FC0070060020710000206C06002044050020B1
:10220C0080B582B000AF0200BB1D1A80002001F027
:10221C001FFDFEF7F7F9C046BD4602B080BD0000B9
:10222C0080B582B000AF7860034B382201219954FD
:10223C00C046BD4602B080BD6C06002080B584B09F
:10224C0000AF78600F203B1800221A704E4B802292
:10225C009B5CDBB2002B13D14B4B81229B5CDBB222
:10226C001A0013005B019B1A9B009B181B011B0A95
:10227C0099B2454B842299523B1801221A7064E0A2
:10228C00414B80229B5CDBB2012B1FD13E4B812248
:10229C009B5CDBB21A0013005B029B1A1B0A99B2FF
:1022AC00394B88229952384B86229B5CDBB2190041
:1022BC00354B88229B5A9BB234480A00202104F0EB
:1022CC004AFA0F23FB1801221A703EE02E4B802293
:1022DC009B5CDBB2022B38D12B4B81229B5CDBB29B
:1022EC00002B16D1284B862200219954264B86228E
:1022FC009B5CDBB21900244B88229B5A9BB223486F
:10230C000A00202104F027FA0F23FB1801221A706F
:10231C001BE01D4B81229B5CDBB2012B15D11A4BB0
:10232C00862201219954184B86229B5CDBB2190042
:10233C00154B88229B5A9BB214480A00202104F0AA
:10234C000AFA0F23FB1801221A700F4B0F22BA182E
:10235C00822112785A540C4B8022002199540A4B3A
:10236C008122002199540A490A4B0122180006F0D7
:10237C0073FB0949074B0222180006F015FCC046F6
:10238C00BD4604B080BDC0466C0600208000002015
:10239C00EE060020A0050020EC06002080B582B0DF
:1023AC0000AF7860C046BD4602B080BD80B500AFBE
:1023BC00FEF750FA0D4B1B68012252425A620C4B2D
:1023CC0038229B5CDBB2012B05D00A2001F012FDF8
:1023DC0000F032F801E0FEF729F9054B78229B5CFE
:1023EC00DBB2012BEBD1FEF729F8E8E798010020CE
:1023FC006C06002090B583B000AF0E4B1B68DA68FA
:10240C000C4B1B6801210A43DA60FC1D094B0021AF
:10241C00180001F08BFA03002370FB1D1B78002BB6
:10242C0001D0FEF7D9FFFB1D1B781800BD4603B089
:10243C0090BDC0468804002080B598B000AFCC4B4E
:10244C009A6ECB4B5A66CB4B1B685B6A5A08C84BCF
:10245C009A66C74B1B79DBB2032B0AD0C44B1B7992
:10246C00DBB2042B05D0C24B1B79DBB2052B00D0A1
:10247C001EE3BF4B1B79DBB2032B00D0F3E0BC4B4C
:10248C009A6EBB4B5B6E9A4200D876E0B84B5B6E93
:10249C00042B3AD8B64B9B6EB74A934235D9B44B02
:1024AC001B7FDBB21900B24B5A6EB14B9B6ED31A29
:1024BC00CB1A8022120694466344002B15DAAC4BDF
:1024CC001B7FDBB21900AA4B5A6EA94B9B6ED31A19
:1024DC00CB1AAA4A944663447B627B6A17337B62AD
:1024EC007B6ADAB2A24B1A77BDE0A14B1B7FDAB242
:1024FC009F4B9B6ED9B29E4B5B6EDBB2CB1ADBB2A1
:10250C00D318DAB29A4B1A77ADE0994B1B7FDBB23A
:10251C001900974B9A6E964B5B6ED31ACB18172BF0
:10252C001BD9934B1B7FD9B2914B9B6EDAB2904B5C
:10253C005B6EDBB2D31ADAB223203B188A181A70FE
:10254C0001007B187A181278173A1A707B181B78CE
:10255C00013BDAB2864B1A7785E0854B1B7FDAB2EA
:10256C00834B9B6ED9B2824B5B6EDBB2CB1ADBB268
:10257C00D318DAB27E4B1A7775E07D4B9A6E7C4B92
:10258C005B6E9A426FD27A4B9B6E042B3AD8784B87
:10259C005B6E794A934235D9754B1B7FDBB21900C0
:1025AC00734B9A6E724B5B6ED31ACB188022120649
:1025BC0094466344172B15DD6D4B1B7FDBB2190062
:1025CC006B4B9A6E6A4B5B6ED31ACB186C4A944663
:1025DC006344FB62FB6A173BFB62FB6ADAB2644B37
:1025EC001A7740E0624B1B7FDAB2614B9B6ED9B21B
:1025FC005F4B5B6EDBB2CB1ADBB2D318DAB25C4B3F
:10260C001A7730E05A4B1B7FDBB21A00584B5B6ECB
:10261C001900574B9B6ECB1AD31A15D5544B1B7FF5
:10262C00DBB21A00524B5B6E1900514B9B6ECB1AEE
:10263C00D31ABB62BB6A1733BB62BB6ADBB2013312
:10264C00DAB24B4B1A770EE0494B1B7FDAB2484B90
:10265C009B6ED9B2464B5B6EDBB2CB1ADBB2D31896
:10266C00DAB2434B1A77424B1B79DBB2042B00D006
:10267C00FEE03F4B9A6E3E4B5B6E9A4200D881E077
:10268C003B4B5B6E042B3AD8394B9B6E3A4A9342C8
:10269C0035D9374B5B7FDBB21900354B5A6E344B57
:1026AC009B6ED31ACB1A8022120694466344002BDD
:1026BC0015DA2F4B5B7FDBB219002D4B5A6E2C4B6E
:1026CC009B6ED31ACB1A2D4A944663447B617B696B
:1026DC003B337B617B69DAB2254B5A77C8E0244BDC
:1026EC005B7FDAB2224B9B6ED9B2214B5B6EDBB2B5
:1026FC00CB1ADBB2D318DAB21D4B5A77B8E01C4BAD
:10270C005B7FDBB219001A4B9A6E194B5B6ED31AB6
:10271C00CB183B2B1BD9164B5B7FD9B2144B9B6E42
:10272C00DAB2134B5B6EDBB2D31ADAB213203B185E
:10273C008A181A7001007B187A1812783B3A1A70B2
:10274C007B181B78013BDAB2094B5A7790E0084BA7
:10275C005B7FDAB2064B9B6ED9B2054B5B6EDBB27C
:10276C00CB1ADBB2D318DAB2014B5A7780E0C046F1
:10277C006C06002098010020FAFFFF7F010000800A
:10278C00FFFFFF7FC64B9A6EC54B5B6E9A426FD2B2
:10279C00C34B9B6E042B3AD8C14B5B6EC14A934220
:1027AC0035D9BF4B5B7FDBB21900BD4B9A6EBC4B6E
:1027BC005B6ED31ACB1880221206944663443B2BD3
:1027CC0015DDB74B5B7FDBB21900B54B9A6EB44B82
:1027DC005B6ED31ACB18B44A94466344FB61FB6915
:1027EC003B3BFB61FB69DAB2AD4B5A7740E0AC4B3B
:1027FC005B7FDAB2AA4B9B6ED9B2A94B5B6EDBB294
:10280C00CB1ADBB2D318DAB2A54B5A7730E0A44B13
:10281C005B7FDBB21A00A24B5B6E1900A04B9B6E68
:10282C00CB1AD31A15D59E4B5B7FDBB21A009C4B8F
:10283C005B6E19009A4B9B6ECB1AD31ABB61BB69AA
:10284C003B33BB61BB69DBB20133DAB2944B5A77D1
:10285C000EE0934B5B7FDAB2914B9B6ED9B2904BEF
:10286C005B6EDBB2CB1ADBB2D318DAB28C4B5A7775
:10287C008B4B1B79DBB2052B00D0F1E0884B9A6EA9
:10288C00874B5B6E9A4200D874E0854B5B6E042BD1
:10289C003AD8834B9B6E834A934235D9804B9B7FAE
:1028AC00DBB219007E4B5A6E7D4B9B6ED31ACB1A42
:1028BC008022120694466344002B15DA784B9B7FDA
:1028CC00DBB21900764B5A6E754B9B6ED31ACB1A32
:1028DC00764A944663447B607B683B337B607B68C1
:1028EC00DAB26F4B9A77BBE06D4B9B7FDAB26C4BD5
:1028FC009B6ED9B26A4B5B6EDBB2CB1ADBB2D318D0
:10290C00DAB2674B9A77ABE0654B9B7FDBB2190071
:10291C00634B9A6E624B5B6ED31ACB183B2B19D957
:10292C005F4B9B7FD9B25E4B9B6EDAB25C4B5B6E9E
:10293C00DBB2D31ADAB2FB1C8A181A70FB1CFA1C15
:10294C0012783B3A1A70FB1C1B78013BDAB2544BE1
:10295C009A7785E0524B9B7FDAB2514B9B6ED9B282
:10296C004F4B5B6EDBB2CB1ADBB2D318DAB24C4BEB
:10297C009A7775E04A4B9A6E494B5B6E9A426FD2CE
:10298C00474B9B6E042B3AD8454B5B6E454A9342A2
:10299C0035D9434B9B7FDBB21900414B9A6E404BB0
:1029AC005B6ED31ACB1880221206944663443B2BE1
:1029BC0015DD3B4B9B7FDBB21900394B9A6E384BC4
:1029CC005B6ED31ACB18384A94466344FB60FB68A1
:1029DC003B3BFB60FB68DAB2314B9A7740E0304B03
:1029EC009B7FDAB22E4B9B6ED9B22D4B5B6EDBB25A
:1029FC00CB1ADBB2D318DAB2294B9A7730E0284BDA
:102A0C009B7FDBB21A00264B5B6E1900244B9B6E2E
:102A1C00CB1AD31A15D5224B9B7FDBB21A00204B55
:102A2C005B6E19001E4B9B6ECB1AD31ABB60BB6836
:102A3C003B33BB60BB68DBB20133DAB2184B9A771D
:102A4C000EE0174B9B7FDAB2154B9B6ED9B2144B31
:102A5C005B6EDBB2CB1ADBB2D318DAB2104B9A77BF
:102A6C000F4B1B7FDBB2180003F020FE03001A0093
:102A7C000B4B1A720A4B5B7FDBB2180003F016FE8D
:102A8C0003001A00064B5A72054B9B7FDBB21800F1
:102A9C0003F00CFE03001A00014B9A7272E3C0465D
:102AAC006C060020FAFFFF7FFFFFFF7F0100008014
:102ABC00D64B1B79DBB2072B0AD0D44B1B79DBB27C
:102ACC00082B05D0D14B1B79DBB2092B00D059E375
:102ADC00CE4B1B79DBB2072B00D008E1CB4B9A6EA7
:102AEC00CA4B5B6E9A4200D880E0C84B5B6E042BDD
:102AFC003FD8C64B9B6EC64A93423AD9C34B54221D
:102B0C009B5CDBB21900C14B5A6EC04B9B6ED31A47
:102B1C00CB1A8022120694466344002B17DABB4B67
:102B2C0054229B5CDBB21900B84B5A6EB74B9B6EB0
:102B3C00D31ACB1AB74A944663447B657B6D173323
:102B4C007B657B6DD9B2B14B54229954CFE0AF4B1E
:102B5C0054229B5CDAB2AD4B9B6ED9B2AB4B5B6E25
:102B6C00DBB2CB1ADBB2D318D9B2A84B542299548E
:102B7C00BDE0A64B54229B5CDBB21900A34B9A6EB2
:102B8C00A24B5B6ED31ACB18172B1DD99F4B54221B
:102B9C009B5CD9B29D4B9B6EDAB29C4B5B6EDBB2ED
:102BAC00D31ADAB253203B188A181A7001007B181A
:102BBC007A181278173A1A707B181B78013BD9B225
:102BCC00924B5422995492E0904B54229B5CDAB273
:102BDC008E4B9B6ED9B28D4B5B6EDBB2CB1ADBB2DC
:102BEC00D318D9B2894B5422995480E0874B9A6EF2
:102BFC00864B5B6E9A4200D379E0844B9B6E042B20
:102C0C003FD8824B5B6E824A93423AD97F4B542217
:102C1C009B5CDBB219007D4B9A6E7C4B5B6ED31ABE
:102C2C00CB188022120694466344172B17DD774B82
:102C3C0054229B5CDBB21900744B9A6E734B5B6E27
:102C4C00D31ACB18744A94466344FB65FB6D173B4F
:102C5C00FB65FB6DD9B26D4B5422995447E06B4B1D
:102C6C0054229B5CDAB2694B9B6ED9B2674B5B6E9C
:102C7C00DBB2CB1ADBB2D318D9B2644B54229954C1
:102C8C0035E0624B54229B5CDBB21A005F4B5B6EEF
:102C9C0019005E4B9B6ECB1AD31A17D55B4B542283
:102CAC009B5CDBB21A00594B5B6E1900574B9B6E49
:102CBC00CB1AD31ABB65BB6D1733BB65BB6DDBB2CF
:102CCC000133D9B2514B5422995410E04F4B54223A
:102CDC009B5CDAB24D4B9B6ED9B24C4B5B6EDBB24C
:102CEC00CB1ADBB2D318D9B2484B54229954474B68
:102CFC001B79DBB2082B00D011E1444B9A6E434B8D
:102D0C005B6E9A4200D889E0404B5B6E042B3FD837
:102D1C003E4B9B6E3E4A93423AD93C4B55229B5CB0
:102D2C00DBB21900394B5A6E384B9B6ED31ACB1A47
:102D3C008022120694466344002B17DA334B55223B
:102D4C009B5CDBB21900314B5A6E304B9B6ED31A25
:102D5C00CB1A304A944663447B647B6C3B337B6474
:102D6C007B6CD9B2294B55229954D8E0274B55226C
:102D7C009B5CDAB2254B9B6ED9B2244B5B6EDBB2FB
:102D8C00CB1ADBB2D318D9B2204B55229954C6E0DA
:102D9C001E4B55229B5CDBB219001C4B9A6E1B4BD5
:102DAC005B6ED31ACB183B2B1DD9184B55229B5C51
:102DBC00D9B2164B9B6EDAB2144B5B6EDBB2D31AE4
:102DCC00DAB243203B188A181A7001007B187A1863
:102DDC0012783B3A1A707B181B78013BD9B20B4B1B
:102DEC00552299549BE0094B55229B5CDAB2074B58
:102DFC009B6ED9B2054B5B6EDBB2CB1ADBB2D31830
:102E0C00D9B2024B5522995489E0C0466C06002079
:102E1C00FAFFFF7F01000080FFFFFF7FDC4B9A6E03
:102E2C00DB4B5B6E9A4200D379E0D94B9B6E042B43
:102E3C003FD8D74B5B6ED74A93423AD9D44B5522E5
:102E4C009B5CDBB21900D24B9A6ED14B5B6ED31AE2
:102E5C00CB1880221206944663443B2B17DDCC4BD7
:102E6C0055229B5CDBB21900C94B9A6EC84B5B6E4A
:102E7C00D31ACB18C84A94466344FB64FB6C3B3BA7
:102E8C00FB64FB6CD9B2C24B5522995447E0C04B42
:102E9C0055229B5CDAB2BE4B9B6ED9B2BC4B5B6EBF
:102EAC00DBB2CB1ADBB2D318D9B2B94B5522995439
:102EBC0035E0B74B55229B5CDBB21A00B44B5B6E12
:102ECC001900B34B9B6ECB1AD31A17D5B04B5522A6
:102EDC009B5CDBB21A00AE4B5B6E1900AC4B9B6E6D
:102EEC00CB1AD31ABB64BB6C3B33BB64BB6CDBB27D
:102EFC000133D9B2A64B5522995410E0A44B55225C
:102F0C009B5CDAB2A24B9B6ED9B2A14B5B6EDBB26F
:102F1C00CB1ADBB2D318D9B29D4B552299549C4B8A
:102F2C001B79DBB2092B00D008E1994B9A6E984BB8
:102F3C005B6E9A4200D880E0954B5B6E042B3FD8B9
:102F4C00934B9B6E934A93423AD9914B56229B5C7E
:102F5C00DBB219008E4B5A6E8D4B9B6ED31ACB1A6B
:102F6C008022120694466344002B17DA884B5622B3
:102F7C009B5CDBB21900864B5A6E854B9B6ED31A49
:102F8C00CB1A864A944663447B637B6B3B337B63EF
:102F9C007B6BD9B27E4B56229954CFE07C4B562298
:102FAC009B5CDAB27A4B9B6ED9B2794B5B6EDBB21F
:102FBC00CB1ADBB2D318D9B2754B56229954BDE05B
:102FCC00734B56229B5CDBB21900714B9A6E704BA3
:102FDC005B6ED31ACB183B2B1DD96D4B56229B5CC9
:102FEC00D9B26B4B9B6EDAB2694B5B6EDBB2D31A08
:102FFC00DAB233203B188A181A7001007B187A1841
:10300C0012783B3A1A707B181B78013BD9B2604B93
:10301C005622995492E05E4B56229B5CDAB25C4B82
:10302C009B6ED9B25A4B5B6EDBB2CB1ADBB2D318A8
:10303C00D9B2574B5622995480E0554B9A6E544B4B
:10304C005B6E9A4200D379E0514B9B6E042B3FD8B8
:10305C004F4B5B6E4F4A93423AD94D4B56229B5C79
:10306C00DBB219004A4B9A6E494B5B6ED31ACB18E4
:10307C0080221206944663443B2B17DD444B5622A8
:10308C009B5CDBB21900424B9A6E414B5B6ED31AC0
:10309C00CB18414A94466344FB63FB6B3B3BFB639D
:1030AC00FB6BD9B23A4B5622995447E0384B562217
:1030BC009B5CDAB2364B9B6ED9B2354B5B6EDBB296
:1030CC00CB1ADBB2D318D9B2314B5622995435E016
:1030DC002F4B56229B5CDBB21A002D4B5B6E1900FA
:1030EC002B4B9B6ECB1AD31A17D5294B56229B5CB4
:1030FC00DBB21A00264B5B6E1900254B9B6ECB1A6C
:10310C00D31ABB63BB6B3B33BB63BB6BDBB201330F
:10311C00D9B21F4B5622995410E01D4B56229B5C82
:10312C00DAB21B4B9B6ED9B2194B5B6EDBB2CB1A6E
:10313C00DBB2D318D9B2164B56229954144B5422E5
:10314C009B5CDBB2180003F0B1FA03001900104BC2
:10315C00402299540E4B55229B5CDBB2180003F0B5
:10316C00A5FA030019000A4B41229954084B562228
:10317C009B5CDBB2180003F099FA03001900044BB6
:10318C004222995401231800BD4618B080BDC04698
:10319C006C060020FAFFFF7FFFFFFF7F010000801D
:1031AC00B0B584B000AF78600F257C1980231A026B
:1031BC00A023DB051100180001F04EF90300237069
:1031CC007B191B78002B0AD11B4B1B78002B1ED0B4
:1031DC00194B1B78013BDAB2174B1A7017E0164BE0
:1031EC001B780E2B13D0154B1B78042B09D1124BCB
:1031FC001B780133DAB2104B1A70104B00221A7084
:10320C0005E00E4B1B780133DAB20C4B1A700A4BEB
:10321C001B78002B03D17B6801221A7006E0064B49
:10322C001B780E2B02D17B6800221A700123180028
:10323C00BD4604B0B0BDC04600000020F80600201A
:10324C0080B582B000AF0F4B1A6C0E4B01210A43B4
:10325C001A640C4B1B6C012213407B607B68094B7E
:10326C00DA6B084B802149050A43DA63054BDA6BAC
:10327C0080235B0513403B603B68C046BD4602B0F3
:10328C0080BDC0460010024090B58FB000AF786092
:10329C0010243B19180028231A00002107F0AAFD5E
:1032AC007B681B68154A934224D13B1980229202F9
:1032BC001A603B19802252005A623B19180002F026
:1032CC004DFA031E01D0FEF787F80D4BDA6D0C4B4F
:1032DC00802109020A43DA65094BDA6B084B80211D
:1032EC00C9000A43DA63064BDA6B8023DB00134018
:1032FC00FB60FB68C046BD460FB090BD0028004087
:10330C000010024080B582B000AF78607B681B680B
:10331C00094A93420BD1094BDA6D084B08490A4014
:10332C00DA65064BDA6B054B06490A40DA63C04690
:10333C00BD4602B080BDC0460028004000100240CF
:10334C00FF7FFFFFFFFBFFFF90B593B000AF7860EE
:10335C0020243B19180028231A00002107F04AFDED
:10336C007B681B68444A93421DD13B19802292030F
:10337C001A603B1900221A623B19180002F0EEF990
:10338C00031E01D0FEF728F83C4B1A6C3B4B8021F6
:10339C0009010A431A64394B1A6C80231B01134030
:1033AC00FB61FB6964E07B681B68354A93420CD176
:1033BC00324BDA6B314B02210A43DA632F4BDB6B56
:1033CC0002221340BB61BB6952E07B681B682D4A2B
:1033DC00934216D1294B1A6C284B802109020A43BF
:1033EC001A64264B1A6C80231B0213407B617B6989
:1033FC0002220221132000F0CDFD132000F0DFFD8E
:10340C0036E07B681B68204A934216D11B4B1A6C22
:10341C001A4B802189020A431A64184B1A6C8023B8
:10342C009B0213403B613B6902220221152000F0F4
:10343C00B1FD152000F0C3FD1AE07B681B68134A30
:10344C00934215D10D4B1A6C0C4B8021C9020A43C7
:10345C001A640A4B1A6C8023DB021340FB60FB6876
:10346C0000220021162000F095FD162000F0A7FD8B
:10347C00C046BD4613B090BD002C01400010024068
:10348C00000400400020004000440140004801407E
:10349C0090B58BB000AF786014243B19180014233E
:1034AC001A00002107F0A6FC7B681A688023DB0554
:1034BC009A422ED1194BDA6B184B01210A43DA636D
:1034CC00164BDB6B012213403B613B69134B5A6B70
:1034DC00124B01210A435A63104B5B6B01221340C0
:1034EC00FB60FB6821007B1803221A607B18022208
:1034FC005A607B1801229A607B180022DA607B18D4
:10350C0002221A617A18A023DB051100180000F0C2
:10351C003FFEC046BD460BB090BDC04600100240F9
:10352C0090B58BB000AF786014243B1918001423AD
:10353C001A00002107F05EFC7B681B683A4A934234
:10354C0024D13A4B5A6B394B01210A435A63374BFE
:10355C005B6B012213403B613B693B19E022D200BB
:10356C001A6021007B1802225A607B1800229A6094
:10357C007B180022DA607B1802221A617A18A023C9
:10358C00DB051100180000F003FE48E07B681B68A7
:10359C00274A934243D1254B5A6B244B02210A43B1
:1035AC005A63224B5B6B02221340FB60FB681F4B80
:1035BC005A6B1E4B04210A435A631C4B5B6B04224F
:1035CC001340BB60BB6814243B1901221A603B19E1
:1035DC0002225A603B1900229A603B190022DA60E1
:1035EC003B1901221A613B19124A1900100000F014
:1035FC00CFFD21007B1840221A607B1802225A60F2
:10360C007B1800229A607B180022DA607B1801225A
:10361C001A617B18084A1900100000F0B9FDC04669
:10362C00BD460BB090BDC046002C014000100240BE
:10363C0000040040000400500008005090B58BB00E
:10364C0000AF786014243B19180014231A000021D1
:10365C0007F0D0FB7B681B681F4A934238D11F4B85
:10366C00DA6B1E4B802189020A43DA631B4BDA6B3F
:10367C0080239B0213403B613B69184B5A6B174BE1
:10368C0001210A435A63154B5B6B01221340FB600B
:10369C00FB6821007B180C221A607B1802225A60EE
:1036AC007B1801229A607B180022DA607B180122B9
:1036BC001A617A18A023DB051100180000F068FDD0
:1036CC00022202211C2000F065FC1C2000F077FC7B
:1036DC00C046BD460BB090BD0044004000100240F7
:1036EC0090B597B000AF78604423FB1818001423F2
:1036FC001A00002107F07EFB1C243B19180028231C
:10370C001A00002107F076FB7B681B683B4A93424A
:10371C0028D13B19802292001A603B1900225A6171
:10372C003B19180002F01AF8031E01D0FDF754FEE5
:10373C00334BDA6B324B802109060A43DA63304B88
:10374C00DB6BDB0FDB07BB61BB692D4B5A6B2C4B67
:10375C0002210A435A632A4B5B6B022213407B61A2
:10376C007B6946E07B681B68264A934241D11C2149
:10377C007B188022D2001A607B1800229A617B1879
:10378C00180001F0EBFF031E01D0FDF725FE1C4BCA
:10379C00DA6B1B4B8021C9050A43DA63184BDA6BD1
:1037AC008023DB0513403B613B69154B5A6B144B73
:1037BC0001210A435A63124B5B6B01221340FB60DD
:1037CC00FB6844217B18802252001A607B1802226D
:1037DC005A607B1800229A607B180022DA607B18F2
:1037EC0005221A617A18A023DB051100180000F0DD
:1037FC00CFFCC046BD4617B090BDC046007C004013
:10380C00001002400094004080B500AFC046FDE7B8
:10381C0080B500AFC046FDE780B500AFC046BD46E1
:10382C0080BD80B500AFC046BD4680BD80B500AF41
:10383C0000F0C4FAC046BD4680BD80B500AF022082
:10384C0000F044FEC046BD4680BD000080B500AF10
:10385C00034B180005F006FAC046BD4680BDC046B5
:10386C00A005002080B500AF80231B02180000F0DB
:10387C002DFEC046BD4680BD80B500AF034B180081
:10388C0003F0BCFDC046BD4680BDC0461003002001
:10389C0080B500AF034B180003F0B0FDC046BD4629
:1038AC0080BDC046CC03002080B500AF034B180090
:1038BC0003F0A4FDC046BD4680BDC0468804002070
:1038CC0080B500AF034B180002F0FCFDC046BD46AE
:1038DC0080BDC0468000002080B500AF034B1800AF
:1038EC0000F054FFC046BD4680BDC04644050020D4
:1038FC0080B500AFC046BD4680BD000080B500AFAE
:10390C000749084B0122180002F0C0FA0649054B82
:10391C000122180002F0A8FB01231800BD4680BD4F
:10392C008C06002080000020A0060020B0B584B0DA
:10393C0000AF786039600F257C193A687B681100FC
:10394C00180003F0C3F8030023707B191B78002BBD
:10395C0001D0FDF741FD0F23FB181B781800BD4665
:10396C0004B0B0BDB0B584B000AF786039600F253D
:10397C007C193A687B681100180003F0CBF903003E
:10398C0023707B191B78002B01D0FDF725FD0F232D
:10399C00FB181B781800BD4604B0B0BD80B582B0D2
:1039AC0000AF78607B6800221A707B6800229A70E6
:1039BC007B6809225A707B680322DA707B680122CB
:1039CC001A717B6800225A717B686E22012199540E
:1039DC007B6800225A667B6800229A667B6800220C
:1039EC001A727B6800225A727B6800229A727B687A
:1039FC000022DA727B6800225A617B6800229A618D
:103A0C007B684022002199547B6841220021995403
:103A1C007B684222002199547B68432200219954EF
:103A2C007B680022DA647B6800221A657B68382286
:103A3C00002199547B680022DA637B688022002184
:103A4C0099547B688122002199547B688222002141
:103A5C0099547B688422FA21C90099527B6886228A
:103A6C00012199547B6888228221490099520123B3
:103A7C001800BD4602B080BD80B582B000AF786042
:103A8C000A00FB1C1A707B681B78DAB27B685A70D0
:103A9C007B68FA1C12781A7001231800BD4602B01C
:103AAC0080BD000090B585B000AF0200FB1D1A7000
:103ABC00BB1D0A1C1A700F23FB1800221A702AE077
:103ACC000F217A18FB1D12781B789A420ED07B18A6
:103ADC001A78294B9200D0587B181A78274B520031
:103AEC00D35A0122190000F0D4FC0EE00F217B18F0
:103AFC001A78214B9200D0587B181A781F4B520021
:103B0C00D35A0022190000F0C4FC0F217B181A783C
:103B1C007B1801321A700F23FB181B78052BCFD999
:103B2C000E23FB1800221A701CE00E243B191A7885
:103B3C00134B9200D0583B191A78124B5200D15AA1
:103B4C00BB1D1A783B191B781A411300DBB20122FA
:103B5C001340DBB21A0000F09CFC3B191A783B199D
:103B6C0001321A700E23FB181B78032BDDD90123AD
:103B7C001800BD4605B090BD0800002020000020B4
:103B8C002C0000203C00002080B582B000AFFB1D53
:103B9C0000221A7012E0FB1D1A780D4B9200D058BF
:103BAC00FB1D1A780B4B5200D35A0122190000F05E
:103BBC0070FCFB1D1A78FB1D01321A70FB1D1B7863
:103BCC00052BE8D901231800BD4602B080BDC046C4
:103BDC00080000202000002090B583B000AF0E4BF1
:103BEC001B68DA680C4B1B6801210A43DA60FC1D68
:103BFC00094B00211800FFF799FE03002370FB1DF1
:103C0C001B78002B01D0FDF7E7FBFB1D1B78180080
:103C1C00BD4603B090BDC0461003002090B583B0E4
:103C2C0000AFFC1D094B00211800FFF79BFE0300A1
:103C3C002370FB1D1B78002B01D0FDF7CDFBFB1D6A
:103C4C001B781800BD4603B090BDC0461003002081
:103C5C0080B582B000AF0200FB1D1A70FB1D1B78F3
:103C6C00002B06D00A4B01220421180000F011FC95
:103C7C0009E0FB1D1B78002B05D1054B002204210C
:103C8C00180000F006FC01231800BD4602B080BDF0
:103C9C00000400500D488546FFF72AFE0C480D49DC
:103CAC000D4A002302E0D458C4500433C4188C428B
:103CBC00F9D30A4A0A4C002301E013600432A242F1
:103CCC00FBD307F09FF8FEF771FBFEE70020002006
:103CDC00000000204C000020E0B200085000002042
:103CEC0000070020FEE7000080B582B000AFFB1D8E
:103CFC0000221A700B4B1A680A4B802149000A43A8
:103D0C001A60002000F010F8031E03D0FB1D0122E6
:103D1C001A7001E0FFF794FAFB1D1B781800BD46E2
:103D2C0002B080BD0020024090B585B000AF786035
:103D3C000F23FB1800221A701D4B1B78002B2BD065
:103D4C001C4B1C681A4B1B781900FA239800FCF7C3
:103D5C00D3F9030019002000FCF7CEF9030018007A
:103D6C0000F03DF9031E12D17B68032B0AD8796849
:103D7C0001235B420022180000F00CF90E4B7A680C
:103D8C001A600DE00F23FB1801221A7008E00F23B4
:103D9C00FB1801221A7003E00F23FB1801221A7082
:103DAC000F23FB181B781800BD4605B090BDC0460C
:103DBC0048000020040000204400002080B500AF23
:103DCC00054B1B781A00054B1B68D218034B1A6065
:103DDC00C046BD4680BDC04648000020FC06002001
:103DEC0080B500AF024B1B681800BD4680BDC046B5
:103DFC00FC06002080B584B000AF7860FFF7F0FFC0
:103E0C000300BB607B68FB60FB68013305D00A4B89
:103E1C001B781A00FB689B18FB60C046FFF7E0FF9D
:103E2C000200BB68D31AFA689A42F7D8C046C0465B
:103E3C00BD4604B080BDC0464800002080B582B0AD
:103E4C0000AF0200FB1D1A70FB1D1B787F2B09D8DD
:103E5C00FB1D1B781A001F231A40044B01219140B3
:103E6C000A001A60C046BD4602B080BD00E100E009
:103E7C0090B583B000AF02003960FB1D1A70FB1DBA
:103E8C001B787F2B28D82F4AFB1D1B785BB29B0815
:103E9C00C0339B009B58FA1D1278110003220A4074
:103EAC00D200FF2191400A00D2431A4011003B6816
:103EBC009B01FF221A40FB1D1B78180003230340B3
:103ECC00DB009A401F48FB1D1B785BB29B080A4322
:103EDC00C0339B001A5031E01B4AFB1D1B781900A4
:103EEC000F230B40083B9B0806339B00D31804336D
:103EFC001B68FA1D1278110003220A40D200FF2120
:103F0C0091400A00D2431A4011003B689B01FF22EA
:103F1C001A40FB1D1B78180003230340DB009A405A
:103F2C000948FB1D1B781C000F232340083B9B08F2
:103F3C000A4306339B00C31804331A60C046BD46BF
:103F4C0003B090BD00E100E000ED00E080B582B070
:103F5C0000AF78607B685A1E80235B049A4201D3C1
:103F6C00012310E00A4B7A68013A5A6001235B4244
:103F7C0003211800FFF77CFF054B00229A60044BCD
:103F8C0007221A6000231800BD4602B080BDC0464F
:103F9C0010E000E080B584B000AFB9607A600F210A
:103FAC007B18021C1A70BA687B181B785BB2110064
:103FBC001800FFF75DFFC046BD4604B080BD80B55C
:103FCC0082B000AF0200FB1D1A70FB1D1B785BB2A8
:103FDC001800FFF733FFC046BD4602B080BD80B568
:103FEC0082B000AF78607B681800FFF7AFFF03006A
:103FFC001800BD4602B080BD80B582B000AF7860BD
:10400C007B68002B01D1012350E07B6825229B5C4F
:10401C00DBB2022B08D07B680422DA637B68242293
:10402C0000219954012341E07B681B681A687B6866
:10403C001B680E218A431A607B685B6C1A687B686C
:10404C005B6C1C490A401A607B681B681A687B68A9
:10405C001B6801218A431A60174B59687B681B6CDB
:10406C001C22134001229A40134B0A435A607B686E
:10407C009B6C7A68D26C5A607B681B6D002B0CD0E1
:10408C007B681B6D1A687B681B6D0A490A401A60B5
:10409C007B685B6D7A68926D5A607B682522012182
:1040AC0099547B6824220021995400231800BD46A2
:1040BC0002B080BDFFFEFFFF0000024080B584B05F
:1040CC0000AF78600F217B1800221A707B682522C4
:1040DC009B5CDBB2022B06D07B680422DA637B1874
:1040EC0001221A7049E07B681B681A687B681B68A0
:1040FC000E218A431A607B681B681A687B681B68F0
:10410C0001218A431A607B685B6C1A687B685B6C64
:10411C001D490A401A601D4B59687B681B6C1C2298
:10412C00134001229A40194B0A435A607B689B6CDE
:10413C007A68D26C5A607B681B6D002B0CD07B6844
:10414C001B6D1A687B681B6D0F490A401A607B68EF
:10415C005B6D7A68926D5A607B68252201219954B7
:10416C007B682422002199547B689B6B002B04D024
:10417C007B689B6B7A68100098470F23FB181B78A1
:10418C001800BD4604B080BDFFFEFFFF00000240DA
:10419C0080B586B000AF7860396000237B6147E161
:1041AC003B681B6801217A6991400A001340FB604F
:1041BC00FB68002B00D138E13B685B68032213409D
:1041CC00012B05D03B685B6803221340022B30D1D6
:1041DC007B689B683B617B695B0003229A40130000
:1041EC00DA433B6913403B613B68DA687B695B00EF
:1041FC009A4013003A6913433B617B683A699A60B1
:10420C007B685B683B6101227B699A401300DA434F
:10421C003B6913403B613B685B681B0901221A40F8
:10422C007B699A4013003A6913433B617B683A6996
:10423C005A603B685B6803221340032B17D07B68E2
:10424C00DB683B617B695B0003229A401300DA4315
:10425C003B6913403B613B689A687B695B009A4001
:10426C0013003A6913433B617B683A69DA603B6837
:10427C005B6803221340022B23D17B69DA087B682D
:10428C0008329200D3583B617B69072213409B0094
:10429C000F229A401300DA433B6913403B613B68A1
:1042AC001A697B6907210B409B009A4013003A69FD
:1042BC0013433B617B69DA087B68083292003969E9
:1042CC00D1507B681B683B617B695B0003229A4081
:1042DC001300DA433B6913403B613B685B68032284
:1042EC001A407B695B009A4013003A6913433B61A7
:1042FC007B683A691A603B685A68C0239B0213407A
:10430C0000D192E0504A7B699B0818339B009B5864
:10431C003B617B6903221340DB000F229A401300A0
:10432C00DA433B6913403B617A68A023DB059A4270
:10433C0013D07B68454A93420DD07B68444A934224
:10434C0007D07B68434A934201D1032306E005233F
:10435C0004E0022302E0012300E000237A69032138
:10436C000A40D20093403A6913433B6136497B695A
:10437C009B0818339B003A695A50334B1B683B61BE
:10438C00FB68DA433B6913403B613B685A68802306
:10439C005B03134003D03A69FB6813433B612A4B20
:1043AC003A691A60284B5B683B61FB68DA433B69EE
:1043BC0013403B613B685A6880239B03134003D036
:1043CC003A69FB6813433B611F4B3A695A601E4ABA
:1043DC008423D3583B61FB68DA433B6913403B6150
:1043EC003B685A6880239B02134003D03A69FB68F0
:1043FC0013433B61144984223B698B50124A80233E
:10440C00D3583B61FB68DA433B6913403B613B6823
:10441C005A6880235B02134003D03A69FB6813434C
:10442C003B61094980223B698B507B6901337B617D
:10443C003B681A687B69DA40131E00D0B0E6C046B0
:10444C00C046BD4606B080BD0018024000040050B6
:10445C0000080050000C005080B584B000AF7860AC
:10446C000A00BB1C1A807B681B69BA1C128813409B
:10447C0004D00F23FB1801221A7003E00F23FB1842
:10448C0000221A700F23FB181B781800BD4604B0CD
:10449C0080BD80B582B000AF786008001100BB1CF5
:1044AC00021C1A807B1C0A1C1A707B1C1B78002BAC
:1044BC0004D0BB1C1A887B689A6103E0BB1C1A8869
:1044CC007B689A62C046BD4602B080BD80B582B0A2
:1044DC0000AF0200BB1D1A80094BDB68BA1D1288A5
:1044EC00134008D0064BBA1D1288DA60BB1D1B881E
:1044FC001800FDF785FEC046BD4602B080BDC04623
:10450C000018024080B584B000AF78607B68002B47
:10451C0001D1012397E07B6836229B5CDBB2002B38
:10452C0013D17B683522002199547B68180000F068
:10453C008FFA7B689B6B002B02D17B68444A9A6391
:10454C007B689B6B7A68100098477B683622022147
:10455C0099547B681B68DB68FB607B685B68012B8C
:10456C0005D07B689A6A80231B049A4203D1FB68AE
:10457C001E229343FB607B685B69364A934203D0EF
:10458C00FB68354A1340FB60FB68344A1340FB6000
:10459C007B685A687B689B681A437B681B6A1A4362
:1045AC007B685B6A1A437B689B6A1343FA68134304
:1045BC00FB607B685B68002B07D17B68DA697B68E2
:1045CC001B691343FA681343FB607B685B68012B20
:1045DC0005D07B689A6A80231B049A4207D17B68BA
:1045EC00DA687B681B691343FA681343FB607B68CA
:1045FC005B69184A93420AD07B685A697B689B694D
:10460C001A437B68DB691343FA681343FB607B68CE
:10461C001B68FA68DA607B681B68114A934208D100
:10462C007B68D96A7B681A6B7B681B680A435A6281
:10463C0004E07B681B687A68D26A5A627B6836220F
:10464C000121995400231800BD4604B080BDC0461A
:10465C00ED360008FFFF00003F1FFFFFFEF119FFC2
:10466C00007C004080B584B000AFF860B9607A601F
:10467C00FB68362202219954FB681B68DA68FB68D8
:10468C001B68802149030A43DA60FB681B681A69BE
:10469C00FB681B6801210A431A61FB681B68102226
:1046AC005A60FB681B68BA689A61FB681021180095
:1046BC0000F0FAF90300032B01D1032360E0FB683F
:1046CC001B6808225A60FB681B687A685A61FB6891
:1046DC000821180000F0E8F90300032B01D1032393
:1046EC004EE0FB68180000F017FAFB68180000F0A9
:1046FC00A3F90300032B01D1032341E0FB681B68E2
:10470C009A68FB681B6810210A439A60FB681B6857
:10471C009A68FB681B6808210A439A60FB681B684F
:10472C009A68FB681B6802210A439A60FB681B6845
:10473C009A68FB681B6801210A439A60FB685B69F5
:10474C00114A934207D0FB681B689A68FB681B6888
:10475C0004210A439A60FB681B681A69FB681B6892
:10476C0001210A431A61FB681B681A69FB681B6804
:10477C0002210A431A61FB68362201219954002355
:10478C001800BD4604B080BDFFFF000080B582B0AC
:10479C0000AF78607B681B681B6801221340012BFB
:1047AC000FD17B681B689B6801221340012B08D139
:1047BC007B681B6801225A607B681B6C7A6810004E
:1047CC0098477B681B681B6802221340022B0FD191
:1047DC007B681B689B6802221340022B08D17B6804
:1047EC001B6802225A607B685B6C7A6810009847E1
:1047FC007B681B681B6804221340042B0FD17B6859
:10480C001B689B6804221340042B08D17B681B682F
:10481C0004225A607B689B6C7A68100098477B680E
:10482C001B681B6808221340082B0FD17B681B6880
:10483C009B6808221340082B08D17B681B68082250
:10484C005A607B68DB6C7A68100098477B681B6841
:10485C001B6810221340102B0FD17B681B689B68C0
:10486C0010221340102B08D17B681B6810225A6051
:10487C007B681B6D7A68100098477B681B681B6807
:10488C0020221340202B0FD17B681B689B682022B1
:10489C001340202B08D17B681B6820225A607B6850
:1048AC005B6D7A68100098477B681B681B68402218
:1048BC001340402B0FD17B681B689B684022134030
:1048CC00402B08D17B681B6840225A607B689B6D2B
:1048DC007A6810009847C046BD4602B080BD80B5CE
:1048EC0082B000AF7860C046BD4602B080BD80B5D6
:1048FC0082B000AF7860C046BD4602B080BD80B5C6
:10490C0082B000AF7860C046BD4602B080BD80B5B5
:10491C0082B000AF7860C046BD4602B080BD80B5A5
:10492C0082B000AF7860C046BD4602B080BD80B595
:10493C0082B000AF7860C046BD4602B080BD80B585
:10494C0082B000AF7860C046BD4602B080BD0000AA
:10495C0080B586B000AFF8607A600B23FB180A1C98
:10496C001A701723FB1800221A707B68002B01D1D8
:10497C0001235AE0FB6836229B5CDBB2012B32D15F
:10498C000B23FB181B78082B28D89A00294BD3181B
:10499C001B689F46FB687A689A6343E0FB687A68F9
:1049AC00DA633FE0FB687A681A643BE0FB687A687C
:1049BC005A6437E0FB687A689A6433E0FB687A687B
:1049CC00DA642FE0FB687A681A652BE0FB687A687A
:1049DC005A6527E0FB687A689A6523E01723FB1871
:1049EC0001221A701EE0FB6836229B5CDBB2002BA6
:1049FC0014D10B23FB181B78002B02D0012B04D0F5
:104A0C0007E0FB687A689A630CE0FB687A68DA6303
:104A1C0008E01723FB1801221A7003E01723FB1878
:104A2C0001221A701723FB181B781800BD4606B01C
:104A3C0080BDC046D0B0000880B582B000AF7860B1
:104A4C007B6836229B5CDBB21800BD4602B080BD91
:104A5C0080B582B000AF78607B680C4A1A647B68C2
:104A6C000B4A5A647B680B4A9A647B680A4ADA647C
:104A7C007B680A4A1A657B68094A5A657B68094A49
:104A8C009A65C046BD4602B080BDC046EB480008E2
:104A9C00FB4800080B4900081B4900082B4900087B
:104AAC003B4900084B49000880B584B000AF7860E2
:104ABC0039600F23FB1800221A70154B1B6815491F
:104ACC001800FBF719FB03001A0013005B019B1A7B
:104ADC009B009B18DB00BB60BB68013BBB60BB68E9
:104AEC00002B03D10F23FB1803221A707B681B6861
:104AFC001B683A6813403A689A4202D0BB68002B94
:104B0C00EAD10F23FB181B781800BD4604B080BDFA
:104B1C0004000020204E000080B58CB000AF7860FF
:104B2C000023FB62EFF31083FB60FB68BB62012385
:104B3C003B613B6983F31088C0467B681B68724AF3
:104B4C00934203D0714A934207D00DE0704B5A6DDB
:104B5C00C0231B031340FB6206E06D4B5A6DC02350
:104B6C009B031340FB62C0467B681B689B687B629F
:104B7C007B681B68DB683B627B681B685B69FB615D
:104B8C007B681B689B69BB617B681B685B6A7B618C
:104B9C007B681B685C4A934203D05C4A93420ED0FC
:104BAC001BE05B4BDA6A5A4B802109060A43DA6236
:104BBC00574BDA6A564B52005208DA620DE0544BEE
:104BCC00DA6A534B8021C9050A43DA62504BDA6A20
:104BDC004F4B50490A40DA62C046FB69002B03D1A7
:104BEC00BB69002B00D171E07B681B68464A93427D
:104BFC0003D0464A934207D00DE0454B5A6D444BC7
:104C0C0045490A405A6506E0414B5A6D404B4349B1
:104C1C000A405A65C046FB69002B1BD07B681B6899
:104C2C001A697B681B6801210A431A617B681B683F
:104C3C00FA695A617B6808211800FFF735FF0300F9
:104C4C00032B03D17B683622032199547B681B68A4
:104C5C0008225A60BB69002B1BD07B681B681A6941
:104C6C007B681B6801210A431A617B681B68BA695F
:104C7C009A617B6810211800FFF716FF0300032BC5
:104C8C0003D17B683622032199547B681B68102260
:104C9C005A607B681B681C4A934203D01B4A9342A0
:104CAC000AD013E01A4B5B6D1B4A13401900184BCA
:104CBC00FA6A0A435A6509E0154B5B6D174A1340B3
:104CCC001900134BFA6A0A435A65C0467B681B6885
:104CDC001A697B681B6801218A431A617B681B680F
:104CEC007A6A9A607B681B683A6ADA607B681B6830
:104CFC007A695A62BB6ABB60BB6883F31088C04692
:104D0C00C046BD460CB080BD007C00400094004005
:104D1C0000100240FFFFFFBFFFFFF3FFFFFFCFFFBD
:104D2C0080B500AF044B1A68034B802149000A433D
:104D3C001A60C046BD4680BD0070004080B584B08E
:104D4C0000AF7860194B1B68194A13401900174BB8
:104D5C007A680A431A607A6880239B009A421FD1B2
:104D6C00144B1A6813005B009B185B001249180067
:104D7C00FBF7C2F903000133FB6008E0FB68002B72
:104D8C0003D0FB68013BFB6001E0032309E0074B08
:104D9C005A698023DB001A408023DB009A42EDD055
:104DAC0000231800BD4604B080BDC0460070004012
:104DBC00FFF9FFFF0400002040420F0080B500AF58
:104DCC00034B9A68E023DB0113401800BD4680BDFD
:104DDC000010024080B588B000AF78607B68002B73
:104DEC0001D10123FEE27B681B680122134000D134
:104DFC007CE0C34B9B6838221340BB61C04BDB6823
:104E0C00032213407B61BB69102B02D17B69032BFE
:104E1C0002D0BB69082B0BD1B94B1A6880239B02BB
:104E2C00134062D07B685B68002B5ED10123D9E212
:104E3C007B685A6880235B029A4207D1B04B1A6890
:104E4C00AF4B802149020A431A6020E07B685A6804
:104E5C00A023DB029A420ED1A94B1A68A84B8021E1
:104E6C00C9020A431A60A64B1A68A54B8021490255
:104E7C000A431A600BE0A24B1A68A14BA1490A40E5
:104E8C001A609F4B1A689E4B9F490A401A607B68B8
:104E9C005B68002B14D0FEF7A3FF03003B6108E016
:104EAC00FEF79EFF02003B69D31A642B01D9032342
:104EBC0098E2934B1A6880239B021340F0D015E0C4
:104ECC00FEF78EFF03003B6108E0FEF789FF02004E
:104EDC003B69D31A642B01D9032383E2884B1A68EC
:104EEC0080239B021340F0D100E0C0467B681B6816
:104EFC000222134000D199E0814B9B683822134069
:104F0C00BB617F4BDB68032213407B61BB69102BB9
:104F1C0002D17B69022B02D0BB69002B35D1784BB7
:104F2C001A688023DB00134005D07B68DB68002BFC
:104F3C0001D1012356E2724B5B68744A134019008D
:104F4C007B685B691A026E4B0A435A60BB69002B83
:104F5C0012D16B4B1B686E4A134019007B681A699F
:104F6C00674B0A431A60664B1B68DB0A0722134027
:104F7C00684ADA40684B1A60684B1B681800FEF7E9
:104F8C00D3FE031E51D001232CE27B68DB68002B7F
:104F9C0030D05B4B1B685E4A134019007B681A6962
:104FAC00574B0A431A60564B1A68554B80214900DF
:104FBC000A431A60FEF714FF03003B6108E0FEF79A
:104FCC000FFF02003B69D31A022B01D9032309E21C
:104FDC004B4B1A688023DB001340F0D0484B5B68C6
:104FEC004A4A134019007B685B691A02444B0A4316
:104FFC005A601BE0424B1A68414B49490A401A60FF
:10500C00FEF7EEFE03003B6108E0FEF7E9FE02004E
:10501C003B69D31A022B01D90323E3E1384B1A68FD
:10502C008023DB001340F0D100E0C0467B681B6896
:10503C000822134047D0324B9B6838221340182B60
:10504C000AD12F4B1B6E022213403CD07B689B690C
:10505C00002B38D10123C5E17B689B69002B19D04B
:10506C00274B1A6E264B01210A431A66FEF7B8FE2F
:10507C0003003B6108E0FEF7B3FE02003B69D31A64
:10508C00022B01D90323ADE11D4B1B6E02221340F1
:10509C00F1D018E01A4B1A6E194B01218A431A668B
:1050AC00FEF79EFE03003B6108E0FEF799FE02004E
:1050BC003B69D31A022B01D9032393E1104B1B6ECE
:1050CC0002221340F1D17B681B680422134000D1EB
:1050DC00C6E01F23FB1800221A70094B9B6838226C
:1050EC001340202B1ED1064BDB6D0222134000D146
:1050FC00B6E07B689B68002B00D0B1E0012371E126
:10510C0000100240FFFFFEFFFFFFFBFFFF80FFFFD1
:10511C00FFC7FFFF0024F40004000020440000201F
:10512C00FFFEFFFFB14BDA6B80235B05134001D10F
:10513C00012300E00023002B11D0AC4BDA6BAB4BFE
:10514C00802149050A43DA63A84BDA6B80235B059F
:10515C001340FB60FB681F23FB1801221A70A44B41
:10516C001A6880235B0013401AD1A14B1A68A04B1C
:10517C00802149000A431A60FEF732FE03003B61AE
:10518C0008E0FEF72DFE02003B69D31A022B01D971
:10519C00032327E1964B1A6880235B001340F0D061
:1051AC007B689B68012B06D1904BDA6D8F4B0121EC
:1051BC000A43DA651CE07B689B68052B0CD18B4B92
:1051CC00DA6D8A4B04210A43DA65884BDA6D874B1A
:1051DC0001210A43DA650BE0844BDA6D834B012124
:1051EC008A43DA65814BDA6D804B04218A43DA6598
:1051FC007B689B68002B14D0FEF7F2FD03003B612B
:10520C0009E0FEF7EDFD02003B69D31A794A93429F
:10521C0001D90323E6E0754BDB6D02221340F0D07D
:10522C0013E0FEF7DDFD03003B6109E0FEF7D8FD5E
:10523C0002003B69D31A6F4A934201D90323D1E090
:10524C006A4BDB6D02221340F0D11F23FB181B7835
:10525C00012B05D1654BDA6B644B67490A40DA6365
:10526C007B68DB69002B00D1BBE0604B9B6838226C
:10527C001340102B00D17BE07B68DB69022B56D1ED
:10528C005A4B1A68594B5D490A401A60FEF7A8FD43
:10529C0003003B6108E0FEF7A3FD02003B69D31A53
:1052AC00022B01D903239DE0504B1A6880239B04E9
:1052BC001340F0D14D4BDB68514A134019007B6809
:1052CC001A6A7B685B6A1A437B689B6A1B021A43E7
:1052DC007B68DB6A1A437B681B6B1A437B685B6BCE
:1052EC001A43424B0A43DA60404B1A683F4B802109
:1052FC0049040A431A603D4BDA683C4B802149054E
:10530C000A43DA60FEF76CFD03003B6108E0FEF730
:10531C0067FD02003B69D31A022B01D9032361E01C
:10532C00324B1A6880239B041340F0D059E02F4B6A
:10533C001A682E4B31490A401A60FEF751FD0300E2
:10534C003B6108E0FEF74CFD02003B69D31A022BCF
:10535C0001D9032346E0254B1A6880239B04134094
:10536C00F0D1224BDA68214B26490A40DA6038E04A
:10537C007B68DB69012B01D1012333E01B4BDB681C
:10538C007B617B6903221A407B681B6A9A4226D197
:10539C007B6970221A407B685B6A9A421FD17A69DA
:1053AC00FE23DB011A407B689B6A1B029A4216D1D2
:1053BC007A69F8239B031A407B68DB6A9A420ED108
:1053CC007A69E0231B051A407B681B6B9A4206D155
:1053DC007B695B0F5A077B685B6B9A4201D0012398
:1053EC0000E000231800BD4608B080BD001002404C
:1053FC000070004088130000FFFFFFEFFFFFFFFE6F
:10540C008C80C111FCFFFEEE80B584B000AF7860DB
:10541C0039607B68002B01D10123E9E0764B1B68D6
:10542C00072213403A689A421ED9734B1B68072215
:10543C0093431900704B3A680A431A60FEF7D0FC8C
:10544C000300FB6009E0FEF7CBFC0200FB68D31AFB
:10545C006A4A934201D90323CAE0674B1B680722AF
:10546C0013403A689A42EED17B681B6802221340C3
:10547C0015D07B681B680422134006D0604B9A68D9
:10548C005F4BE021C9010A439A605D4B9B685D4A02
:10549C00134019007B689A68594B0A439A607B68E1
:1054AC001B680122134057D07B685B68012B07D126
:1054BC00534B1A6880239B0213402BD1012397E096
:1054CC007B685B68022B07D14D4B1A6880239B04C9
:1054DC0013401FD101238BE07B685B68002B07D145
:1054EC00474B1A688023DB00134013D101237FE064
:1054FC007B685B68032B06D1414B1B6E0222134069
:10550C0008D1012374E03E4BDB6D0222134001D124
:10551C0001236DE03A4B9B680722934319007B688B
:10552C005A68374B0A439A60FEF75AFC0300FB603B
:10553C0009E0FEF755FC0200FB68D31A2F4A934290
:10554C0001D9032354E02E4B9B6838221A407B6808
:10555C005B68DB009A42ECD1274B1B680722134097
:10556C003A689A421ED2244B1B68072293431900B7
:10557C00214B3A680A431A60FEF732FC0300FB60C9
:10558C0009E0FEF72DFC0200FB68D31A1B4A93427C
:10559C0001D903232CE0184B1B68072213403A68EF
:1055AC009A42EED17B681B680422134009D0144B3D
:1055BC009B68154A134019007B68DA68104B0A4344
:1055CC009A6000F029F801000D4B9B681B0A0F2212
:1055DC001A400E4B9200D3581F2213400A00DA4097
:1055EC000B4B1A600B4B1B681800FEF79DFB03005E
:1055FC001800BD4604B080BD002002408813000096
:10560C0000100240FFF0FFFFFF8FFFFF70B000089B
:10561C00040000204400002080B586B000AF3C4B55
:10562C009B68382213400FD1394B1B68DB0A0722C9
:10563C00134001229A4013003B6039683548FAF751
:10564C005BFD03003B615DE0314B9B6838221340EE
:10565C00082B02D1304B3B6154E02D4B9B68382218
:10566C001340102B38D12A4BDB6803221340FB600C
:10567C00274BDB681B09072213400133BB60FB6817
:10568C00032B0DD1B9682448FAF736FD0300190035
:10569C001F4BDB681B0A7F2213404B437B610DE0E1
:1056AC00B9681C48FAF728FD03001900184BDB6891
:1056BC001B0A7F2213404B437B61C046144BDB68B3
:1056CC005B0F0722134001337B6079687869FAF726
:1056DC0013FD03003B6115E00D4B9B683822134012
:1056EC00202B03D180231B023B610BE0084B9B68F2
:1056FC0038221340182B03D1FA23DB013B6101E064
:10570C0000233B613B691800BD4606B080BDC04616
:10571C00001002400024F40000127A0080B500AFA3
:10572C00024B1B681800BD4680BDC046040000201B
:10573C00B0B500AFFFF7F2FF0400FFF73FFB03002B
:10574C001A0B054B9200D3581F221340DC40230048
:10575C001800BD46B0BDC046B0B0000880B586B0DC
:10576C0000AF78601323FB1800221A701223FB1869
:10577C0000221A707B681A6880239B02134000D1A8
:10578C00A3E011203B1800221A70A54BDA6B802382
:10579C005B05134010D1A24BDA6BA14B802149055C
:1057AC000A43DA639E4BDA6B80235B051340BB60C4
:1057BC00BB683B1801221A709A4B1A68994B8021CE
:1057CC0049000A431A60FEF70BFB0300FB600BE079
:1057DC00FEF706FB0200FB68D31A022B04D9132335
:1057EC00FB1803221A7005E08E4B1A6880235B00AD
:1057FC001340EDD01323FB181B78002B54D1884B8E
:10580C00DA6DC0239B0013407B617B69002B19D0A0
:10581C007B685B6A7A699A4214D0814BDB6D824A51
:10582C0013407B617E4BDA6D7D4B802149020A432C
:10583C00DA657B4BDA6D7A4B7C490A40DA65784B3A
:10584C007A69DA657B690122134016D0FEF7C8FA33
:10585C000300FB600CE0FEF7C3FA0200FB68D31AEE
:10586C00734A934204D91323FB1803221A7004E0E1
:10587C006B4BDB6D02221340EDD01323FB181B780E
:10588C00002B0AD1664BDB6D674A134019007B680D
:10589C005A6A634B0A43DA650CE01223FB18132295
:1058AC00BA1812781A7005E01223FB181322BA18D2
:1058BC0012781A701123FB181B78012B05D1584B49
:1058CC00DA6B574B5B490A40DA637B681B68012231
:1058DC00134009D0524B5B6D0322934319007B6834
:1058EC005A684F4B0A435A657B681B681022134059
:1058FC0009D04B4B5B6D504A134019007B689A687A
:10590C00474B0A435A657B681A6880239B001340F7
:10591C0009D0434B5B6D494A134019007B685A69A7
:10592C003F4B0A435A657B681A688023DB0013409F
:10593C0009D03B4B5B6D424A134019007B689A6956
:10594C00374B0A435A657B681B682022134009D0E9
:10595C00334B5B6D3B4A134019007B68DA68304B64
:10596C000A435A657B681A688023DB01134015D003
:10597C002B4B5B6D9B0099087B68DA69284B0A43BB
:10598C005A657B68DA698023DB059A4206D1244B81
:10599C00DA68234B802149020A43DA607B681A6873
:1059AC0080239B03134016D01D4B5B6D264A13407E
:1059BC0019007B681A6A1A4B0A435A657B681A6A83
:1059CC008023DB039A4206D1154BDA68144B8021F5
:1059DC0049040A43DA607B681A6880231B01134070
:1059EC0016D00F4B5B6D194A134019007B681A696E
:1059FC000B4B0A435A657B681A698023DB019A4278
:105A0C0006D1074BDA68064B802149020A43DA605B
:105A1C001223FB181B781800BD4606B080BDC0468B
:105A2C000010024000700040FFFCFFFFFFFFFEFF74
:105A3C0088130000FFFFFFEFFFF3FFFFFFFFF3FFF3
:105A4C00FFFFCFFFFFCFFFFFFFFFBFFFFF3FFFFFBA
:105A5C00B0B584B000AF78600F23FB1801221A7028
:105A6C007B68002B00D1B9E07B6829229B5CDBB200
:105A7C00002B38D17B682822002199547B6888221E
:105A8C0012025A607B68594ADA627B68584A1A6378
:105A9C007B68584A5A637B68574A9A637B68574AB3
:105AAC00DA637B68564A1A647B68564A5A647B6888
:105ABC00554A9A647B68554ADA647B68544A1A657D
:105ACC007B685B6D002B02D17B68524A5A657B6800
