:020000040800F2
:100000000020002021330008D5310008DD31000830
:1000100000000000000000000000000000000000E0
:10002000000000000000000000000000E5310008B2
:100030000000000000000000EF310008F931000866
:1000400071330008713300087532000871330008FD
:1000500071330008073200087133000817320008B6
:10006000000000007133000871330008713300088C
:1000700071330008713300087133000871330008D0
:10008000713300088D320008713300082D320008EA
:1000900000000000453200085D320008713300089E
:1000A00071330008713300087133000871330008A0
:0C00B000713300087133000800000000EC
:1000BC0010B5064C2378002B07D1054B002B02D032
:1000CC00044800E000BF0123237010BD5000002045
:1000DC000000000004890008044B10B5002B03D06D
:1000EC000349044800E000BF10BDC04600000000FA
:1000FC005400002004890008002243088B4274D36A
:10010C0003098B425FD3030A8B4244D3030B8B420C
:10011C0028D3030C8B420DD3FF22090212BA030C15
:10012C008B4202D31212090265D0030B8B4219D3F6
:10013C0000E0090AC30B8B4201D3CB03C01A524116
:10014C00830B8B4201D38B03C01A5241430B8B425E
:10015C0001D34B03C01A5241030B8B4201D30B0347
:10016C00C01A5241C30A8B4201D3CB02C01A52416E
:10017C00830A8B4201D38B02C01A5241430A8B4231
:10018C0001D34B02C01A5241030A8B4201D30B021A
:10019C00C01A5241CDD2C3098B4201D3CB01C01A34
:1001AC00524183098B4201D38B01C01A524143093E
:1001BC008B4201D34B01C01A524103098B4201D32C
:1001CC000B01C01A5241C3088B4201D3CB00C01A99
:1001DC00524183088B4201D38B00C01A5241430811
:1001EC008B4201D34B00C01A5241411A00D2014636
:1001FC00524110467047FFE701B5002000F006F8A9
:10020C0002BDC0460029F7D076E770477047C0465C
:10021C00002B11D1002A0FD1002900D1002802D0C7
:10022C000021C943080007B4024802A140180290FB
:10023C0003BDC046D9FFFFFF03B4684601B5029861
:10024C0000F006F8019B9E4602B00CBC7047C046FD
:10025C00F0B557464E464546DE46E0B504000D0067
:10026C009246994683B08B4230D82DD049465046A1
:10027C0000F0BAF829000600200000F0B5F8331A97
:10028C009846203B34D49B4653465A4693404246AC
:10029C001F00534693401E00AF423BD8AF4200D1E3
:1002AC0079E05B46A41BBD41002B00DA76E000220E
:1002BC0000230092019301235A469340019301239A
:1002CC0042469340009329E08242CFD9002200237A
:1002DC00009201930C9B002B01D01C605D60009878
:1002EC00019903B0F0BCBB46B246A946A046F0BD8E
:1002FC0042469B4620239B1A5246DA404146130045
:10030C004A468A40170042461F43534693401E00FC
:10031C00AF42C3D900220023009201934346002B25
:10032C00D8D0FB0772081A4346467B080EE0AB4256
:10033C0001D1A2420CD8A41A9D41012024196D416F
:10034C000021013E24184D41002E06D0AB42EED9BF
:10035C00013E24196D41002EF8D1009801995B469D
:10036C0000196941002B24DB2B005A464446D3402C
:10037C002A00E2401C005B461500002B2ADB2600FD
:10038C009E40330026004746BE403200801A9941F9
:10039C00009001919EE7A342BCD882E742462023FD
:1003AC0000219B1A0022009101920122DA40019255
:1003BC0085E7424620239B1A2A0046469A40230092
:1003CC00F340444613432A00E2401C005B461500F0
:1003DC00002BD4DA42462F002023260097409B1A8C
:1003EC00DE403B003343CDE710B5002903D100F0CC
:1003FC0007F8203002E0080000F002F810BDC046FB
:10040C001C2101231B04984201D3000C10391B0A38
:10041C00984201D3000A08391B09984201D30009FC
:10042C00043902A2105C40187047C0460403020253
:10043C00010101010000000000000000B0B584B013
:10044C0000AF78600F23FB1800221A700E23FB18E4
:10045C0000221A700D243B1900221A700C257B19EE
:10046C0000221A703B191B78002B0BD002F0A4F859
:10047C007B191A787B1901321A703B1901221A70F8
:10048C0000F02AFC02F098F8C64B1B79DBB2062B65
:10049C0005D10E23FB1800221A7000F09BFBC14BF8
:1004AC001B79DBB2012B63D102F0BAF90E23FB18D6
:1004BC0001221A70BC4B1B78002B0CD1B94B40227B
:1004CC009B5CDBB21B09DAB20F23FB180F210A402D
:1004DC001A7000F07FFBB44B1B78012B0AD1B14B87
:1004EC0040229B5CDAB20F23FB180F210A401A70D2
:1004FC0000F070FBAC4B1B78022B0CD1A94B4122AA
:10050C009B5CDBB21B09DAB20F23FB180F210A40EC
:10051C001A7000F05FFBA44B1B78032B09D1A14B85
:10052C0041229B5CDAB20F23FB180F210A401A7090
:10053C0050E39D4B1B78042B0BD19A4B42229B5CB6
:10054C00DBB21B09DAB20F23FB180F210A401A7019
:10055C0040E3954B1B78052B00D03BE3914B42229B
:10056C009B5CDAB20F23FB180F210A401A7031E39F
:10057C008C4B1B79DBB2022B0CD10E23FB18012206
:10058C001A70884B1B78DAB20F23FB180F210A4024
:10059C001A701FE3834B1B79DBB2032B05D0814B05
:1005AC001B79DBB2072B00D000E17F4B1B78002BB3
:1005BC002BD17C4B6E229B5CDBB2012B03D10E2327
:1005CC00FB1801221A70774B1B79DBB2032B0AD173
:1005DC00744B1B7ADBB21B09DAB20F23FB180F2109
:1005EC000A401A70F3E26F4B1B79DBB2072B00D079
:1005FC00EDE26C4B28229B5CDBB21B09DAB20F23B9
:10060C00FB180F210A401A70E1E2674B1B78012B93
:10061C0027D1644B6E229B5CDBB2012B03D10E23E2
:10062C00FB1801221A705F4B1B79DBB2032B08D12C
:10063C005C4B1B7ADAB20F23FB180F210A401A709D
:10064C00C5E2584B1B79DBB2072B00D0BFE2554BF0
:10065C0028229B5CDAB20F23FB180F210A401A7078
:10066C00B5E2514B1B78022B25D10E23FB1801222E
:10067C001A704C4B1B79DBB2032B0AD1494B5B7ABA
:10068C00DBB21B09DAB20F23FB180F210A401A70D8
:10069C009DE2444B1B79DBB2072B00D097E2414B18
:1006AC0029229B5CDBB21B09DAB20F23FB180F214A
:1006BC000A401A708BE23C4B1B78032B21D10E2382
:1006CC00FB1801221A70374B1B79DBB2032B08D1B4
:1006DC00344B5B7ADAB20F23FB180F210A401A70E5
:1006EC0075E2304B1B79DBB2072B00D06FE22D4B40
:1006FC0029229B5CDAB20F23FB180F210A401A70D7
:10070C0065E2294B1B78042B25D10E23FB18012203
:10071C001A70244B1B79DBB2032B0AD1214B9B7A29
:10072C00DBB21B09DAB20F23FB180F210A401A7037
:10073C004DE21C4B1B79DBB2072B00D047E2194B67
:10074C002A229B5CDBB21B09DAB20F23FB180F21A8
:10075C000A401A703BE2144B1B78052B00D036E292
:10076C000E23FB1801221A700E4B1B79DBB2032BE4
:10077C0008D10C4B9B7ADAB20F23FB180F210A40DD
:10078C001A7024E2074B1B79DBB2072B00D01EE258
:10079C00044B2A229B5CDAB20F23FB180F210A4070
:1007AC001A7014E26C0600206C000020D14B1B79EF
:1007BC00DBB2042B05D0CF4B1B79DBB2082B00D05E
:1007CC00FCE0CD4B1B78002B25D10E23FB1801220E
:1007DC001A70C84B1B79DBB2042B0AD1C54B1B7AA0
:1007EC00DBB21B09DAB20F23FB180F210A401A7077
:1007FC00EFE1C04B1B79DBB2082B00D0E9E1BD4B1C
:10080C0028229B5CDBB21B09DAB20F23FB180F21E9
:10081C000A401A70DDE1B84B1B78012B21D10E2355
:10082C00FB1801221A70B34B1B79DBB2042B08D1D5
:10083C00B04B1B7ADAB20F23FB180F210A401A7047
:10084C00C7E1AC4B1B79DBB2082B00D0C1E1A94B43
:10085C0028229B5CDAB20F23FB180F210A401A7076
:10086C00B7E1A54B1B78022B2BD1A24B6E229B5CC4
:10087C00DBB2012B03D10E23FB1801221A709D4B06
:10088C001B79DBB2042B0AD19A4B5B7ADBB21B09C6
:10089C00DAB20F23FB180F210A401A7099E1954B1D
:1008AC001B79DBB2082B00D093E1924B29229B5C85
:1008BC00DBB21B09DAB20F23FB180F210A401A70A6
:1008CC0087E18D4B1B78032B27D18A4B6E229B5CC7
:1008DC00DBB2012B03D10E23FB1801221A70854BBE
:1008EC001B79DBB2042B08D1824B5B7ADAB20F2373
:1008FC00FB180F210A401A706BE17E4B1B79DBB29F
:10090C00082B00D065E17B4B29229B5CDAB20F23CC
:10091C00FB180F210A401A705BE1774B1B78042BF4
:10092C0025D10E23FB1801221A70724B1B79DBB2F6
:10093C00042B0AD16F4B9B7ADBB21B09DAB20F2363
:10094C00FB180F210A401A7043E16A4B1B79DBB28A
:10095C00082B00D03DE1674B2A229B5CDBB21B09C4
:10096C00DAB20F23FB180F210A401A7031E1624BE7
:10097C001B78052B00D02CE10E23FB1801221A70DA
:10098C005C4B1B79DBB2042B08D15A4B9B7ADAB245
:10099C000F23FB180F210A401A701AE1554B1B79D3
:1009AC00DBB2082B00D014E1524B2A229B5CDAB24A
:1009BC000F23FB180F210A401A700AE14D4B1B79CB
:1009CC00DBB2052B05D04B4B1B79DBB2092B00D0CE
:1009DC0000E1494B1B78002B25D10E23FB1801227B
:1009EC001A70444B1B79DBB2052B0AD1414B1B7A95
:1009FC00DBB21B09DAB20F23FB180F210A401A7065
:100A0C00E8E03C4B1B79DBB2092B00D0E2E0394B20
:100A1C0028229B5CDBB21B09DAB20F23FB180F21D7
:100A2C000A401A70D6E0344B1B78012B21D10E23CF
:100A3C00FB1801221A702F4B1B79DBB2052B08D146
:100A4C002C4B1B7ADAB20F23FB180F210A401A70B9
:100A5C00C0E0284B1B79DBB2092B00D0BAE0254B48
:100A6C0028229B5CDAB20F23FB180F210A401A7064
:100A7C00B0E0214B1B78022B25D10E23FB18012251
:100A8C001A701C4B1B79DBB2052B0AD1194B5B7A04
:100A9C00DBB21B09DAB20F23FB180F210A401A70C4
:100AAC0098E0144B1B79DBB2092B00D092E0114B70
:100ABC0029229B5CDBB21B09DAB20F23FB180F2136
:100ACC000A401A7086E00C4B1B78032B25D10E23A1
:100ADC00FB1801221A70074B1B79DBB2052B0DD1C9
:100AEC00044B5B7ADAB20F23FB180F210A401A7001
:100AFC0070E0C0466C0600206C000020784B1B791F
:100B0C00DBB2092B66D1764B29229B5CDAB20F2320
:100B1C00FB180F210A401A705CE0724B1B78042BF7
:100B2C002AD16F4B6E229B5CDBB2012B03D10E23BF
:100B3C00FB1801221A706A4B1B79DBB2052B0AD108
:100B4C00674B9B7ADBB21B09DAB20F23FB180F2120
:100B5C000A401A703EE0624B1B79DBB2092B39D18B
:100B6C005F4B2A229B5CDBB21B09DAB20F23FB180A
:100B7C000F210A401A702DE05A4B1B78052B29D1F6
:100B8C00574B6E229B5CDBB2012B03D10E23FB185F
:100B9C0001221A70524B1B79DBB2052B08D1504B3A
:100BAC009B7ADAB20F23FB180F210A401A7011E05E
:100BBC004B4B1B79DBB2092B0CD1494B2A229B5C8A
:100BCC00DAB20F23FB180F210A401A7002E0C0465C
:100BDC0000E0C0460E23FB181B78002B08D0414BBD
:100BEC001A780F23FB181B781900100001F072FC07
:100BFC003C4B1B780133DAB23A4B1A70394B1B78E9
:100C0C00062B02D1374B00221A70354B1B79DBB205
:100C1C00012B09D0324B1B79DBB2022B11D1304B9B
:100C2C005B79DBB2012B0CD12F4B01220821180070
:100C3C0002F0A3FE2C4B01221021180002F09DFEA5
:100C4C000BE0294B00220821180002F096FE264BDF
:100C5C0000221021180002F090FE214B20229B5CF8
:100C6C00DBB2012B29D1214B1B881A00204B5200DF
:100C7C00D25A204B1B685A631C4B1B881A001C4B06
:100C8C005200D25A1B4B1B689A63184B1B881A00D4
:100C9C00174B5200D25A174B1B68DA63134B1B8845
:100CAC00FF2B03D1114B00221A8015E00F4B1B8830
:100CBC0001339AB20D4B1A800EE00E4B1B680022CA
:100CCC005A630C4B1B6800229A630A4B1B68002268
:100CDC00DA63064B00221A80C046BD4604B0B0BD94
:100CEC006C0600206C000020000400506E000020F8
:100CFC001C890008DC00002080B582B000AF786051
:100D0C00404B1B79DBB2022B05D03F4B0221180064
:100D1C0001F04EFD06E03B4B1B78DBB20133DAB23F
:100D2C00384B1A70374B9B78DBB21A00354BDB789B
:100D3C00013B9A422ED1334B1B78DBB21A00314B5C
:100D4C005B7801339A4225D1304B1B68304ADA620A
:100D5C002E4B2F4ADA602D4B1B682D4A9A622D4B75
:100D6C005A692C4B01210A435A612A4B1A69294BA7
:100D7C0001218A431A61234B5B79DAB2224B1100B1
:100D8C00180001F015FD1F4B00221A701D4B00229C
:100D9C009A7032E01D4B1B681D4ADA621B4B1C4AD1
:100DAC00DA601A4B1B6819229A621A4B5A69194B52
:100DBC0001210A435A61174B1A69164B01218A43C8
:100DCC001A61104B1B78DBB21A000E4B5B780133A7
:100DDC009A4212D10B4B9B78DBB21A00094BDB7891
:100DEC00013B9A4209D0074B00221A70054B9B78A5
:100DFC00DBB20133DAB2034B9A70C046BD4602B087
:100E0C0080BDC0466C06002070060020CC0300207C
:100E1C00FFFF00000044014080B582B000AF786055
:100E2C00094B6E229B5CDBB2012B04D1064B6E226C
:100E3C000021995403E0044B6E2201219954C046C1
:100E4C00BD4602B080BDC0466C06002090B583B094
:100E5C0000AF7860BF4B180001F0FAFCBE4B6C225F
:100E6C009B5CDBB2002B00D0AEE1BC4B1B78002BA3
:100E7C0000D0A1E0BA4B1B78002B00D09CE0B64B05
:100E8C0020229B5CDBB2002B00D095E0B54B1A689E
:100E9C005B68002B04D140D1FA21C9008A423CD3B3
:100EAC00B04B1A685B68002B37D103D1FA210901CA
:100EBC008A4232D2A94B01221A70AB4B0321180083
:100ECC0001F076FC01F0E4FBA34BA34A083340325B
:100EDC0013CA13C303CA03C39F4B1B7ADBB218009C
:100EEC0004F080FE03001A009B4B1A779A4B5B7A36
:100EFC00DBB2180004F076FE03001A00964B5A770A
:100F0C00954B9B7ADBB2180004F06CFE03001A00C0
:100F1C00914B9A7701F06AFD4BE1924B1A685B6832
:100F2C00002B05D100D044E190498A4200D840E121
:100F3C008C4B1A685B68002B00D03AE103D18C49CA
:100F4C008A4200D935E1864B01221A70864B072163
:100F5C00180001F02DFC01F09BFB7F4B7E4A2833DF
:100F6C00403213CA13C303CA03C37B4B28229B5CB6
:100F7C00DBB2180004F036FE03001900764B3C225D
:100F8C009954754B29229B5CDBB2180004F02AFEA5
:100F9C0003001900704B3D2299546F4B2A229B5C25
:100FAC00DBB2180004F01EFE030019006A4B3E224F
:100FBC00995401F03FFDFCE0684B1B78012B00D0ED
:100FCC005EE0684B1A685B68002B04D12FD1FA21C4
:100FDC00C9008A422BD3634B1A685B68002B26D15D
:100FEC0003D1FA2109018A4221D25B4B1B79DBB276
:100FFC00032B05D15C4B0421180001F0D9FBDAE07E
:10100C00554B1B79DBB2042B05D1574B052118002E
:10101C0001F0CEFBCFE0504B1B79DBB2052B00D09F
:10102C00C9E0514B0321180001F0C2FBC3E04D4B4A
:10103C001A685B68002B05D100D0BFE04B498A428F
:10104C0000D8BBE0474B1A685B68002B00D0B5E0BA
:10105C0003D147498A4200D9B0E0434B0121180023
:10106C0001F0A6FB01F036FB3C4B00221A70414903
:10107C00414B0122180004F0D5F801F0CBFC9DE0A7
:10108C00374B1B78012B00D078E0364B1A685B6825
:10109C00002B04D12FD1FA21C9008A422BD3314B1A
:1010AC001A685B68002B26D103D1FA2109018A4208
:1010BC0021D2294B1B79DBB2072B05D12A4B0821F6
:1010CC00180001F075FB78E0234B1B79DBB2082B81
:1010DC0005D1254B0921180001F06AFB6DE01E4B70
:1010EC001B79DBB2092B00D067E01F4B07211800DE
:1010FC0001F05EFB61E01B4B1A685B68002B03D1AF
:10110C005CD11A498A4259D9164B1A685B68002B74
:10111C0054D102D116498A4250D8134B01211800E0
:10112C0001F046FB01F0D6FA0D4B00221A700A4B67
:10113C0028229B5CD8B2084B29229B5CD9B2064B67
:10114C002A229B5CDBB21A0001F0E6FB01F090FC5A
:10115C0034E0C046D80600206C0600207000002049
:10116C007100002078000020700600207B15000024
:10117C004B1D000074060020800000201F4B202215
:10118C009B5CDBB2012B19D11D4B1A685B68002BE1
:10119C0002D113D1312A11D9194B1A685B68002B73
:1011AC000CD103D1FA2149008A4207D201F0FCFB91
:1011BC0004E0C04602E0C04600E0C04610490022F0
:1011CC0000230A604B600FE00C4B6C229B5CDBB283
:1011DC00012B09D10A4B1A685B68012000211218F7
:1011EC004B4107490A604B60064BFA22FA21180062
:1011FC0002F0ACFCC046BD4603B090BD6C060020AE
:10120C00780000204405002080B582B000AF0200B9
:10121C00BB1D1A80002001F0E1FA01F069FBC04609
:10122C00BD4602B080BD000080B582B000AF7860D2
:10123C00034B202201219954C046BD4602B080BD0B
:10124C006C06002080B586B000AF02F08DF800F07F
:10125C0047FC01F047F800F0AFFC00F0C7FD00F0D0
:10126C0027FE01F00BF800F0DDFC00F081FF00F030
:10127C00F9FE00F0A9FE01F0EFF8D64AD64B0E218C
:10128C00180005F0DFFED54AD54B0E21180005F0ED
:10129C00D9FED44AD44B0E21180005F0D3FED34A04
:1012AC00D34B0221180002F0C7FDD24AD24B0021C9
:1012BC00180003F029FF00F0D7FBDC23FF33CE48E6
:1012CC000122202104F0BBFCCC4B180001F01CFACD
:1012DC0001F09AF901F0BAF9012001F07FFAC84B3C
:1012EC003C21180005F05AFAC14BFA22FA211800D9
:1012FC0002F02CFC01F0CCFB01F0E8FBBF4B2022F0
:10130C009B5CDBB2012B01D100F0A8FB322002F078
:10131C00B1F8BA4B9A6EB94B5A66B94B1B685B6AFB
:10132C005A08B64B9A66B54B1B79DBB2032B0AD025
:10133C00B24B1B79DBB2042B05D0B04B1B79DBB263
:10134C00052B00D0B8E1AD4B1B79DBB2032B00D0E1
:10135C007AE0AA4B9A6EA94B5B6E9A4237D3A74B95
:10136C001B7FDBB21900A54B9A6EA44B5B6ED31A94
:10137C00CB18172B1BD9A14B1B7FD9B29F4B9B6E44
:10138C00DAB29E4B5B6EDBB2D31ADAB20D203B188D
:10139C008A181A7001007B187A181278173A1A708A
:1013AC007B181B78013BDAB2944B1A7766E1934BAE
:1013BC001B7FDAB2914B9B6ED9B2904B5B6EDBB25A
:1013CC00CB1ADBB2D318DAB28C4B1A7756E18B4BB3
:1013DC001B7FDBB21A00894B5B6E1BB21900874B6B
:1013EC009B6E1BB2CB1AD31A1ED5844B1B7FDBB260
:1013FC001900824B9B6E9AB2804B5B6E9BB2D31AD8
:10140C009BB2CB189AB20E217B181A807B181B88C2
:10141C0017339AB27B181A807B181B88DBB2013306
:10142C00DAB2764B1A7729E1744B1B7FDAB2734B25
:10143C009B6ED9B2714B5B6EDBB2CB1ADBB2D3189D
:10144C00DAB26E4B1A7719E16C4B1B79DBB2042BB9
:10145C0000D07AE0694B9A6E684B5B6E9A4237D338
:10146C00664B5B7FDBB21900644B9A6E634B5B6E11
:10147C00D31ACB183B2B1BD9604B5B7FD9B25F4B7C
:10148C009B6EDAB25D4B5B6EDBB2D31ADAB2112013
:10149C003B188A181A7001007B187A1812783B3A9C
:1014AC001A707B181B78013BDAB2544B5A77E5E083
:1014BC00524B5B7FDAB2514B9B6ED9B24F4B5B6E8A
:1014CC00DBB2CB1ADBB2D318DAB24C4B5A77D5E07D
:1014DC004A4B5B7FDBB21A00484B5B6E1BB21900A8
:1014EC00464B9B6E1BB2CB1AD31A1ED5434B5B7F5C
:1014FC00DBB21900414B9B6E9AB2404B5B6E9BB2B8
:10150C00D31A9BB2CB189AB212217B181A807B1873
:10151C001B883B339AB27B181A807B181B88DBB272
:10152C000133DAB2354B5A77A8E0344B5B7FDAB231
:10153C00324B9B6ED9B2314B5B6EDBB2CB1ADBB24A
:10154C00D318DAB22D4B5A7798E02C4B1B79DBB2BF
:10155C00052B00D092E0294B9A6E284B5B6E9A4279
:10156C0050D3264B9B7FDBB21900244B9A6E234B36
:10157C005B6ED31ACB183B2B1BD9204B9B7FD9B25C
:10158C001E4B9B6EDAB21D4B5B6EDBB2D31ADAB21A
:10159C0015203B188A181A7001007B187A181278DB
:1015AC003B3A1A707B181B78013BDAB2134B9A77D3
:1015BC0064E0124B9B7FDAB2104B9B6ED9B20F4B8F
:1015CC005B6EDBB2CB1ADBB2D318DAB20B4B9A7769
:1015DC0054E0C0464904000888040020050D0008AA
:1015EC00CC030020250E000810030020590E000823
:1015FC004405002035120008800000206C060020F5
:10160C0098010020E14B9B7FDBB21A00DF4B5B6E35
:10161C001BB21900DD4B9B6E1BB2CB1AD31A1ED515
:10162C00DA4B9B7FDBB21900D84B9B6E9AB2D74B2F
:10163C005B6E9BB2D31A9BB2CB189AB216217B1855
:10164C001A807B181B883B339AB27B181A807B1844
:10165C001B88DBB20133DAB2CC4B9A770EE0CB4B62
:10166C009B7FDAB2C94B9B6ED9B2C84B5B6EDBB2B7
:10167C00CB1ADBB2D318DAB2C44B9A77C34B1B7FAD
:10168C00DBB2180004F086FA03001A00BF4B1A7282
:10169C00BE4B5B7FDBB2180004F07CFA03001A002F
:1016AC00BA4B5A72B94B9B7FDBB2180004F072FA3A
:1016BC0003001A00B54B9A72B44B1B79DBB2072BA3
:1016CC000AD0B24B1B79DBB2082B05D0AF4B1B7980
:1016DC00DBB2092B00D011E6AC4B1B79DBB2072B2C
:1016EC0000D081E0A94B9A6EA84B5B6E9A423AD31C
:1016FC00A64B3C229B5CDBB21900A44B9A6EA34B0D
:10170C005B6ED31ACB18172B1BD9A04B3C229B5CBE
:10171C00D9B29E4B9B6EDAB29C4B5B6EDBB2D31A8A
:10172C00DAB27B1C8A181A707B1C7A1C1278173A56
:10173C001A707B1C1B78013BD9B2944B3C229954F8
:10174C0067E1924B3C229B5CDAB2904B9B6ED9B218
:10175C008E4B5B6EDBB2CB1ADBB2D318D9B28B4B90
:10176C003C22995455E1894B3C229B5CDBB21A001C
:10177C00864B5B6E1BB21900844B9B6E1BB2CB1A53
:10178C00D31A1FD5814B3C229B5CDBB219007F4BDB
:10179C009B6E9AB27D4B5B6E9BB2D31A9BB2CB18ED
:1017AC009AB2BB1C1A80BB1C1B8817339AB2BB1C89
:1017BC001A80BB1C1B88DBB20133D9B2734B3C22A1
:1017CC00995426E1714B3C229B5CDAB26F4B9B6EB9
:1017DC00D9B26E4B5B6EDBB2CB1ADBB2D318D9B27B
:1017EC006A4B3C22995414E1684B1B79DBB2082BF1
:1017FC0000D081E0654B9A6E644B5B6E9A423AD393
:10180C00624B3D229B5CDBB21900604B9A6E5F4BC6
:10181C005B6ED31ACB183B2B1BD95C4B3D229B5CCC
:10182C00D9B25A4B9B6EDAB2584B5B6EDBB2D31A01
:10183C00DAB27B1D8A181A707B1D7A1D12783B3A1E
:10184C001A707B1D1B78013BD9B2504B3D22995429
:10185C00DFE04E4B3D229B5CDAB24C4B9B6ED9B217
:10186C004A4B5B6EDBB2CB1ADBB2D318D9B2474B07
:10187C003D229954CDE0454B3D229B5CDBB21A00D6
:10188C00424B5B6E1BB21900404B9B6E1BB2CB1ACA
:10189C00D31A1FD53D4B3D229B5CDBB219003B4B51
:1018AC009B6E9AB2394B5B6E9BB2D31A9BB2CB1820
:1018BC009AB2BB1D1A80BB1D1B883B339AB2BB1D51
:1018CC001A80BB1D1B88DBB20133D9B22F4B3D22D2
:1018DC0099549EE02D4B3D229B5CDAB22B4B9B6EB8
:1018EC00D9B22A4B5B6EDBB2CB1ADBB2D318D9B2AE
:1018FC00264B3D2299548CE0244B1B79DBB2092BEF
:10190C0000D086E0214B9A6E204B5B6E9A423FD3FF
:10191C001E4B3E229B5CDBB219001C4B9A6E1B4B80
:10192C005B6ED31ACB183B2B1DD9184B3E229B5CFC
:10193C00D9B2164B9B6EDAB2144B5B6EDBB2D31A78
:10194C00DAB209203B188A181A7001007B187A1831
:10195C0012783B3A1A707B181B78013BD9B20B4BAF
:10196C003E22995455E0094B3E229B5CDAB2074B60
:10197C009B6ED9B2054B5B6EDBB2CB1ADBB2D318C4
:10198C00D9B2024B3E22995443E0C0466C0600206B
:10199C00344B3E229B5CDBB21A00324B5B6E1BB2AB
:1019AC001900304B9B6E1BB2CB1AD31A20D52D4B82
:1019BC003E229B5CDBB219002A4B9B6E9AB2294BE0
:1019CC005B6E9BB2D31A9BB2CB189AB20A217B18CE
:1019DC001A807B181B883B339AB27B181A807B18B1
:1019EC001B88DBB20133D9B21E4B3E22995410E056
:1019FC001C4B3E229B5CDAB21A4B9B6ED9B2194B34
:101A0C005B6EDBB2CB1ADBB2D318D9B2154B3E22CC
:101A1C009954144B3C229B5CDBB2180004F0BAF8CE
:101A2C00030019000F4B282299540E4B3D229B5C4E
:101A3C00DBB2180004F0AEF803001900094B2922A0
:101A4C009954084B3E229B5CDBB2180004F0A2F8C0
:101A5C0003001900034B2A2299544FE401F05EF85D
:101A6C004CE4C0466C06002080B586B000AF3B004D
:101A7C001622DA703B0002225A703B0018229A7030
:101A8C003B0002221A703900144B0122180003F09B
:101A9C00CDFC031E01D000F017FD3B1D00221A7077
:101AAC003B1D00225A703B1D00229A703B1D0022E8
:101ABC00DA703B1D0022DA603B1D00221A61391DD1
:101ACC00064B0122180003F0ADFB031E01D000F001
:101ADC00FBFCC046BD4606B080BDC0468000002061
:101AEC0090B593B000AF10243B19180038231A009E
:101AFC00002106F0D5FE3B00180010231A0000212F
:101B0C0006F0CEFE80239B00180002F08BFB02F047
:101B1C007BFB284BDA6D274B18210A43DA653B19FE
:101B2C0006221A603B1901229A603B19802252004E
:101B3C00DA6021007B1800221A617B1840225A615E
:101B4C007B180222DA617B1802221A627B180022AF
:101B5C005A627B1808229A627B1880229202DA62FF
:101B6C007B18802292041A637B18802292055A6398
:101B7C007B18180002F0A2FB031E01D000F0A4FC9D
:101B8C003B0007221A603B0002225A603B000022F5
:101B9C009A603B000022DA603B000221180002F040
:101BAC00A7FE031E01D000F08FFCC046BD4613B04B
:101BBC0090BDC0460010024080B500AF174B184ACC
:101BCC001A60164B00229A60144B7F22DA60134B7A
:101BDC00FF221A61114B00225A61104B00229A61AC
:101BEC000E4B0022DA610D4B8022D2051A620B4B90
:101BFC0000225A62094B180003F09EF9031E01D013
:101C0C0000F062FC00220021022001F003FD022002
:101C1C0001F015FDC046BD4680BDC04680000020C9
:101C2C000028004080B59CB000AF6023FB18180062
:101C3C0010231A00002106F033FE5423FB18180061
:101C4C000C231A00002106F02BFE3823FB18180079
:101C5C001C231A00002106F023FE3B1D1800342320
:101C6C001A00002106F01CFE5D4B5E4A1A605C4BAC
:101C7C0000225A605A4B00229A60594B5A4ADA6039
:101C8C00574B802292001A61554B00225A61544BDB
:101C9C0080229A61524B180004F06CF8031E01D09C
:101CAC0000F012FC60217B18802252011A607A1815
:101CBC004B4B1100180005F09FF8031E01D000F0EB
:101CCC0003FC474B180004F067FB031E01D000F027
:101CDC00FBFB54217B1800221A607B1800225A60EF
:101CEC007B1800229A607A183D4B1100180005F001
:101CFC00EBFE031E01D000F0E7FB38217B186022BD
:101D0C001A607B18FA2212015A607B1800229A6022
:101D1C007B180022DA607B1800221A617B180022E3
:101D2C005A617B1800229A6179182D4B00221800F9
:101D3C0004F062FF031E01D000F0C6FB3823F91833
:101D4C00274B0422180004F057FF031E01D000F0AB
:101D5C00BBFB3823F918224B0822180004F04CFF67
:101D6C00031E01D000F0B0FB3B1D00221A603B1D8E
:101D7C0000225A603B1D00229A603B1D0022DA6053
:101D8C003B1D00221A613B1D802292015A613B1DB2
:101D9C0000229A613B1D0022DA613B1D00221A626F
:101DAC003B1D802292045A623B1D00229A623B1D0D
:101DBC000022DA623B1D00221A633A1D084B110007
:101DCC00180005F0E9FE031E01D000F07DFB044B6A
:101DDC00180001F08DF8C046BD461CB080BDC04651
:101DEC00DC000020002C0140FFFF000090B58DB0FE
:101DFC0000AF0C243B19180024231A00002106F014
:101E0C004FFD3B0018000C231A00002106F048FD82
:101E1C00264B8022D2051A60244B00225A60234B99
:101E2C0000229A60214B01225242DA601F4B0022A1
:101E3C001A611E4B00229A6121007B1801221A6044
:101E4C007B1802225A607B1801229A607B180022B0
:101E5C00DA607B180F221A617B1802225A617B18F8
:101E6C0001229A617B180022DA617B1800221A6227
:101E7C007A180E4B1100180004F0DAFB031E01D087
:101E8C0000F022FB3B0000221A603B0000229A600B
:101E9C003A00064B1100180005F016FE031E01D087
:101EAC0000F012FBC046BD460DB090BD980100205D
:101EBC0080B58EB000AF2823FB18180010231A0031
:101ECC00002106F0EDFC1C23FB1818000C231A0053
:101EDC00002106F0E5FC3B0018001C231A00002131
:101EEC0006F0DEFC354B364A1A60344B00225A6041
:101EFC00324B00229A60314B324ADA602F4B8022EF
:101F0C0092001A612D4B80229A612C4B180003F021
:101F1C0031FF031E01D000F0D7FA28217B18802254
:101F2C0052011A607A18254B1100180004F064FF56
:101F3C00031E01D000F0C8FA204B180004F02CFA54
:101F4C00031E01D000F0C0FA1C217B1800221A607D
:101F5C007B1800229A607A18184B1100180005F0B3
:101F6C00B3FD031E01D000F0AFFA3B0060221A60F3
:101F7C003B0000225A603B0000229A603B0000228A
:101F8C001A6139000D4B0022180004F035FE031EB7
:101F9C0001D000F099FA3900084B0822180004F01F
:101FAC002BFE031E01D000F08FFA044B180000F03A
:101FBC009FFFC046BD460EB080BDC04654020020F7
:101FCC0000040040FFFF000080B588B000AF3B1D4F
:101FDC0018001C231A00002106F062FC1E4B1F4A3D
:101FEC001A601D4B7822FF325A601B4B00229A60FC
:101FFC00194B1B4ADA60184B802292001A61164B5F
:10200C0080229A61144B180003F0B4FE031E01D019
:10201C0000F05AFA104B180003F05EFF031E01D0BB
:10202C0000F052FA3B1D00221A603B1D00225A6040
:10203C003B1D00229A603B1D00221A61391D064B84
:10204C000022180004F078FD031E01D000F03CFAC9
:10205C00C046BD4608B080BD1003002000200040E3
:10206C00FFFF000080B594B000AF3423FB181800BC
:10207C001C231A00002106F013FC3B00180034232B
:10208C001A00002106F00CFC364B374A1A60354B0F
:10209C00364A5A60334B00229A60324B334ADA602C
:1020AC00304B802292001A612E4B00225A612D4B2C
:1020BC0080229A612B4B180003F05CFE031E01D0AA
:1020CC0000F002FA274B180003F006FF031E01D0A4
:1020DC0000F0FAF934217B1800221A607B180022D8
:1020EC005A607B1800229A607B180022DA607B18F9
:1020FC0000221A617B1800225A617B1800229A6117
:10210C007918184B0022180004F016FD031E01D09C
:10211C0000F0DAF93B0000221A603B0000225A6002
:10212C003B0000229A603B000022DA603B00002258
:10213C001A613B00802292015A613B0000229A6195
:10214C003B0000221A633A00064B1100180005F000
:10215C0023FD031E01D000F0B7F9C046BD4614B0F4
:10216C0080BDC046CC03002000440140FFFF0000AE
:10217C0080B594B000AF3423FB1818001C231A0050
:10218C00002106F08DFB3B00180034231A000021BF
:10219C0006F086FB364B374A1A60354B03225A60E1
:1021AC00334B00229A60324B334ADA60304B802238
:1021BC0092001A612E4B00225A612D4B80229A619B
:1021CC002B4B180003F0D6FD031E01D000F07CF958
:1021DC00274B180003F080FE031E01D000F074F9A9
:1021EC0034217B1800221A607B1800225A607B185D
:1021FC0000229A607B180022DA607B1800221A6198
:10220C007B1800225A617B1800229A617918184BAE
:10221C000022180004F090FC031E01D000F054F9C9
:10222C003B0000221A603B0000225A603B00002257
:10223C009A603B000022DA603B0000221A613B00EE
:10224C00802292015A613B0000229A613B000022DD
:10225C001A633A00064B1100180005F09DFC031E92
:10226C0001D000F031F9C046BD4614B080BDC04667
:10227C008804002000480140409C000080B500AF5D
:10228C00164B174A1A60154B962292015A60134B43
:10229C0000229A60114B0022DA60104B00221A6166
:1022AC000E4B0C225A610D4B00229A610B4B0022F3
:1022BC00DA610A4B00221A62084B00225A62074B61
:1022CC0000229A62054B180005F022FD031E01D076
:1022DC0000F0FAF8C046BD4680BDC046A0050020FF
:1022EC000044004090B58BB000AF14243B1918008B
:1022FC0014231A00002106F0D3FA534B5A6B524B9D
:10230C0002210A435A63504B5B6B022213403B6120
:10231C003B694D4B5A6B4C4B04210A435A634A4B55
:10232C005B6B04221340FB60FB68474B5A6B464BBC
:10233C0020210A435A63444B5B6B20221340BB6041
:10234C00BB68414B5A6B404B01210A435A633E4BCD
:10235C005B6B012213407B607B683B19FF22920070
:10236C001A603B1901225A603B1900229A603B19F2
:10237C000022DA603B19354A1900100001F07CF993
:10238C0021007B1804221A607B18882252035A60A1
:10239C000C003B1900229A603B192D4A19001000C1
:1023AC0001F06AF93B192B4A1A603B1901225A6059
:1023BC003B1900229A603B190022DA603A19A023DB
:1023CC00DB051100180001F057F921007B180222DF
:1023DC001A607B18882252035A607B1800229A607C
:1023EC000C007B18194A1900100001F045F9210066
:1023FC007B18802212021A607B1800225A607B180C
:10240C0001229A607A18A023DB051100180001F054
:10241C0033F9FF239B000D480022190001F0ADFA9F
:10242C000C49A023DB050122180001F0A6FA0022BA
:10243C000021052001F0EEF8052001F000F9C0465E
:10244C00BD460BB090BDC0460010024000040050C9
:10245C0000140050F018000080B500AF174B184A5C
:10246C001A60164B00225A60144BE02212019A603B
:10247C00124B144A5A61114B00221A620F4B8022E4
:10248C00D2035A620D4B00229A620C4B0022DA6284
:10249C000A4B00221A63094B180001F0A7FA031E1D
:1024AC0001D000F011F802220221112001F0B2F843
:1024BC00112001F0C4F8C046BD4680BD4405002083
:1024CC00007C0040FFFF000080B500AF72B6C04634
:1024DC00C046FDE790B585B000AF0200FB1D1A7039
:1024EC00BB1D0A1C1A700F23FB1800221A702AE05D
:1024FC000F217A18FB1D12781B789A420ED07B188C
:10250C001A78294B9200D0587B181A78274B520016
:10251C00D35A0122190001F030FA0EE00F217B187A
:10252C001A78214B9200D0587B181A781F4B520006
:10253C00D35A0022190001F020FA0F217B181A78C7
:10254C007B1801321A700F23FB181B78052BCFD97F
:10255C000E23FB1800221A701CE00E243B191A786B
:10256C00134B9200D0583B191A78124B5200D15A87
:10257C00BB1D1A783B191B781A411300DBB20122E0
:10258C001340DBB21A0001F0F8F93B191A783B1929
:10259C0001321A700E23FB181B78032BDDD9012393
:1025AC001800BD4605B090BD0000002018000020AA
:1025BC00240000203400002080B582B000AFFB1D49
:1025CC0000221A7012E0FB1D1A780D4B9200D058A5
:1025DC00FB1D1A780B4B5200D35A0122190001F043
:1025EC00CCF9FB1D1A78FB1D01321A70FB1D1B78F0
:1025FC00052BE8D901231800BD4602B080BDC046AA
:10260C00000000201800002090B583B000AF0E4BE6
:10261C001B68DA680C4B1B6801210A43DA60FC1D4D
:10262C00094B0021180000F03CFE03002370FB1D39
:10263C001B78002B01D0FFF747FFFB1D1B78180000
:10264C00BD4603B090BDC0468804002090B583B051
:10265C0000AF0E4B1B68DA680C4B1B6801210A4358
:10266C00DA60FC1D094B0021180000F01AFE030073
:10267C002370FB1D1B78002B01D0FFF725FFFB1DE2
:10268C001B781800BD4603B090BDC046CC0300209B
:10269C0090B583B000AF0E4B1B68DA680C4B1B680F
:1026AC0001210A43DA60FC1D094B0021180000F0DF
:1026BC00F8FD03002370FB1D1B78002B01D0FFF7E6
:1026CC0003FFFB1D1B781800BD4603B090BDC04630
:1026DC001003002090B583B000AFFC1D094B002106
:1026EC00180000F0FAFD03002370FB1D1B78002B73
:1026FC0001D0FFF7E9FEFB1D1B781800BD4603B0A7
:10270C0090BDC0461003002080B582B000AF786049
:10271C007B6800221A707B6800229A707B68092201
:10272C005A707B680322DA707B6801221A717B680D
:10273C0000225A717B686E22012199547B68002219
:10274C005A667B6800229A667B6800221A727B6844
:10275C0000225A727B6800229A727B680022DA721D
:10276C007B6800225A617B6800229A617B68282270
:10277C00002199547B682922002199547B682A22D4
:10278C00002199547B682B22002199547B680022EC
:10279C005A637B6800229A637B682022002199543B
:1027AC007B6800225A6201231800BD4602B080BD2E
:1027BC0080B582B000AF78600A00FB1C1A707B6891
:1027CC001B78DAB27B685A707B68FA1C12781A7024
:1027DC0001231800BD4602B080BD000080B582B058
:1027EC0000AF0200FB1D1A70FB1D1B78002B06D0DE
:1027FC000A4B01220421180001F0BFF809E0FB1D6F
:10280C001B78002B05D1054B00220421180001F088
:10281C00B4F801231800BD4602B080BD000400507E
:10282C0080B500AF0749084B0122180002F0A2FD49
:10283C000649054B0122180002F08AFE01231800FC
:10284C00BD4680BDAC06002080000020C0060020E4
:10285C00B0B584B000AF78600F257C1980231A02C4
:10286C00A023DB051100180001F06AF803002370A7
:10287C007B191B78002B0AD11B4B1B78002B1ED00D
:10288C00194B1B78013BDAB2174B1A7017E0164B39
:10289C001B780E2B13D0154B1B78042B09D1124B24
:1028AC001B780133DAB2104B1A70104B00221A70DD
:1028BC0005E00E4B1B780133DAB20C4B1A700A4B45
:1028CC001B78002B03D17B6801221A7006E0064BA3
:1028DC001B780E2B02D17B6800221A700123180082
:1028EC00BD4604B0B0BDC0463C000020DC06002054
:1028FC0080B500AF064B0821180003F0BBFD044B5C
:10290C001B68044ADA6301231800BD4680BDC0462B
:10291C0054020020FFFF000090B58DB000AF040002
:10292C0008001100FB1D221C1A70BB1D021C1A7022
:10293C007B1D0A1C1A7008203B18802252005A6218
:10294C003B1820220121995401007B188022D205CA
:10295C00DA617B18802212065A617B1800229A6178
:10296C007B180022DA707B18FA1D12781A707B180B
:10297C00BA1D12785A707B187A1D12789A707B18CF
:10298C0000225A607918074B0122180002F02EFE23
:10299C00031E01D0FFF798FD01231800BD460DB0B2
:1029AC0090BDC0468000002080B500AF80235A0047
:1029BC000B4B1100180002F059FF0A4B00225A620F
:1029CC00084B20220021995480239B0006480022AA
:1029DC00190000F0D2FF01231800BD4680BDC0468F
:1029EC00800000206C0600200004005080B500AF71
:1029FC00064B0021180003F03DFD044B1B68044AF4
:102A0C005A6301231800BD4680BDC0465402002005
:102A1C001027000080B500AF054B1B6800225A63DD
:102A2C00034B1B680022DA6301231800BD4680BDEE
:102A3C005402002080B500AF0A4B0021180003F0AF
:102A4C0019FD084B1B68084A5A63064B08211800ED
:102A5C0003F010FD034B1B68044ADA6301231800D2
:102A6C00BD4680BD5402002088130000204E00009B
:102A7C0080B500AF054B1B6800225A63034B1B68E3
:102A8C000022DA6301231800BD4680BD54020020E9
:102A9C0080B500AF0C4B180003F0D2F90A4B08219B
:102AAC00180003F0E7FC084B1B680022DA63064BA6
:102ABC000021180003F0DEFC034B1B6800225A6354
:102ACC0001231800BD4680BD5402002080B500AF24
:102ADC00114B180003F0B4F90F4B0021180003F050
:102AEC00C9FC0D4B1B6800225A630B4B04211800C8
:102AFC0003F0C0FC084B1B6800229A63064B0821AC
:102B0C00180003F0B7FC044B1B680022DA630123A6
:102B1C001800BD4680BDC046DC00002080B584B0E6
:102B2C0000AF364BFB60354BBB60354B7B60354B98
:102B3C005B6A354A934259D0324B5B6AFA689A42C7
:102B4C0007D380239B0031480122190000F015FFA8
:102B5C0046E02C4B5B6AFA689A420ED2294B5A6AB1
:102B6C00F968BB68CB189A4207D880239B0027488A
:102B7C000022190000F001FF32E0224B5A6AF9687A
:102B8C00BB68CB189A4210D91E4B5A6AF968BB68BD
:102B9C00C918FB68CB189A4207D880239B001B48A6
:102BAC000122190000F0E9FE1AE0164B5A6AF96886
:102BBC00BB68C918FB68CB189A4211D9114B5A6AD9
:102BCC00F968BB68C918FB68C9187B68CB189A42AE
:102BDC0006D880239B000D480022190000F0CDFE82
:102BEC00084B5B6A5A1C074B5A6202E0054B0022E9
:102BFC005A6201231800BD4604B080BD204E00006F
:102C0C00409C00006C060020A086010000040050CF
:102C1C0080B582B000AF0F4B1A6C0E4B01210A43EA
:102C2C001A640C4B1B6C012213407B607B68094BB4
:102C3C00DA6B084B802149050A43DA63054BDA6BE2
:102C4C0080235B0513403B603B68C046BD4602B029
:102C5C0080BDC0460010024090B58FB000AF7860C8
:102C6C0010243B19180028231A00002105F018FE27
:102C7C007B681B68154A934224D13B19802292022F
:102C8C001A603B19802252005A623B19180001F05D
:102C9C00D9FF031E01D0FFF717FC0D4BDA6D0C4B5F
:102CAC00802109020A43DA65094BDA6B084B802153
:102CBC00C9000A43DA63064BDA6B8023DB0013404E
:102CCC00FB60FB68C046BD460FB090BD00280040BD
:102CDC000010024080B582B000AF78607B681B6842
:102CEC00094A93420BD1094BDA6D084B08490A404B
:102CFC00DA65064BDA6B054B06490A40DA63C046C7
:102D0C00BD4602B080BDC046002800400010024005
:102D1C00FF7FFFFFFFFBFFFF90B593B000AF786024
:102D2C0020243B19180028231A00002105F0B8FDB7
:102D3C007B681B68444A93421DD13B198022920345
:102D4C001A603B1900221A623B19180001F07AFF35
:102D5C00031E01D0FFF7B8FB3C4B1A6C3B4B802198
:102D6C0009010A431A64394B1A6C80231B01134066
:102D7C00FB61FB6964E07B681B68354A93420CD1AC
:102D8C00324BDA6B314B02210A43DA632F4BDB6B8C
:102D9C0002221340BB61BB6952E07B681B682D4A61
:102DAC00934216D1294B1A6C284B802109020A43F5
:102DBC001A64264B1A6C80231B0213407B617B69BF
:102DCC0002220221132000F025FC132000F037FC16
:102DDC0036E07B681B68204A934216D11B4B1A6C59
:102DEC001A4B802189020A431A64184B1A6C8023EF
:102DFC009B0213403B613B6902220221152000F02B
:102E0C0009FC152000F01BFC1AE07B681B68134AB8
:102E1C00934215D10D4B1A6C0C4B8021C9020A43FD
:102E2C001A640A4B1A6C8023DB021340FB60FB68AC
:102E3C0000220021162000F0EDFB162000F0FFFB15
:102E4C00C046BD4613B090BD002C0140001002409E
:102E5C0000040040002000400044014000480140B4
:102E6C0090B58BB000AF786014243B191800142374
:102E7C001A00002105F014FD7B681A688023DB051D
:102E8C009A422ED1194BDA6B184B01210A43DA63A3
:102E9C00164BDB6B012213403B613B69134B5A6BA6
:102EAC00124B01210A435A63104B5B6B01221340F6
:102EBC00FB60FB6821007B1803221A607B1802223E
:102ECC005A607B1801229A607B180022DA607B180A
:102EDC0002221A617A18A023DB051100180000F0F9
:102EEC00CBFBC046BD460BB090BDC04600100240A7
:102EFC0090B58BB000AF786014243B1918001423E4
:102F0C001A00002105F0CCFC7B681B683A4A9342FE
:102F1C0024D13A4B5A6B394B01210A435A63374B34
:102F2C005B6B012213403B613B693B19E022D200F1
:102F3C001A6021007B1802225A607B1800229A60CA
:102F4C007B180022DA607B1802221A617A18A023FF
:102F5C00DB051100180000F08FFB48E07B681B6854
:102F6C00274A934243D1254B5A6B244B02210A43E7
:102F7C005A63224B5B6B02221340FB60FB681F4BB6
:102F8C005A6B1E4B04210A435A631C4B5B6B042285
:102F9C001340BB60BB6814243B1901221A603B1917
:102FAC0002225A603B1900229A603B190022DA6017
:102FBC003B1901221A613B19124A1900100000F04A
:102FCC005BFB21007B1840221A607B1802225A609E
:102FDC007B1800229A607B180022DA607B18012291
:102FEC001A617B18084A1900100000F045FBC04616
:102FFC00BD460BB090BDC046002C014000100240F5
:10300C0000040040000400500008005090B58BB044
:10301C0000AF786014243B19180014231A00002107
:10302C0005F03EFC7B681B681B4A934230D11B4B5E
:10303C00DA6B1A4B802189020A43DA63174BDA6B7D
:10304C0080239B0213403B613B69144B5A6B134B1F
:10305C0001210A435A63114B5B6B01221340FB6045
:10306C00FB6821007B180C221A607B1802225A6024
:10307C007B1801229A607B180022DA607B180122EF
:10308C001A617A18A023DB051100180000F0F4FA7D
:10309C00C046BD460BB090BD00440040001002403D
:1030AC0090B597B000AF78604423FB181800142338
:1030BC001A00002105F0F4FB1C243B1918002823EE
:1030CC001A00002105F0ECFB7B681B683B4A93421D
:1030DC0028D13B19802292001A603B1900225A61B8
:1030EC003B19180001F0AEFD031E01D0FFF7ECF9FF
:1030FC00334BDA6B324B802109060A43DA63304BCF
:10310C00DB6BDB0FDB07BB61BB692D4B5A6B2C4BAD
:10311C0002210A435A632A4B5B6B022213407B61E8
:10312C007B6946E07B681B68264A934241D11C218F
:10313C007B188022D2001A607B1800229A617B18BF
:10314C00180001F07FFD031E01D0FFF7BDF91C4BE9
:10315C00DA6B1B4B8021C9050A43DA63184BDA6B17
:10316C008023DB0513403B613B69154B5A6B144BB9
:10317C0001210A435A63124B5B6B01221340FB6023
:10318C00FB6844217B18802252001A607B180222B3
:10319C005A607B1800229A607B180022DA607B1838
:1031AC0005221A617A18A023DB051100180000F023
:1031BC0063FAC046BD4617B090BDC046007C0040C7
:1031CC00001002400094004080B500AFC046FDE7FF
:1031DC0080B500AFC046FDE780B500AFC046BD4628
:1031EC0080BD80B500AFC046BD4680BD80B500AF88
:1031FC0000F024F9C046BD4680BD80B500AF02206A
:10320C0000F0D8FBC046BD4680BD80B500AF802322
:10321C001B02180000F0CEFBC046BD4680BD00006E
:10322C0080B500AF034B180003F05CFBC046BD46F5
:10323C0080BDC0461003002080B500AF034B1800C2
:10324C0003F050FBC046BD4680BDC046CC030020F9
:10325C0080B500AF034B180003F044FBC046BD46DD
:10326C0080BDC0468804002080B500AF034B180019
:10327C0002F09CFBC046BD4680BDC04680000020CD
:10328C0080B500AF034B180000F0F4FCC046BD46FF
:10329C0080BDC0464405002080B500AFC046BD4689
:1032AC0080BDB0B584B000AF786039600F257C1953
:1032BC003A687B681100180002F07CFE0300237052
:1032CC007B191B78002B01D0FFF7FEF80F23FB189E
:1032DC001B781800BD4604B0B0BDB0B584B000AFCB
:1032EC00786039600F257C193A687B6811001800EA
:1032FC0002F084FF030023707B191B78002B01D094
:10330C00FFF7E2F80F23FB181B781800BD4604B03A
:10331C00B0BD00000D488546FFF7BEFF0C480D49B7
:10332C000D4A002302E0D458C4500433C4188C4214
:10333C00F9D30A4A0A4C002301E013600432A2427A
:10334C00FBD305F0B5FAFDF77DFFFEE7002000206A
:10335C00000000204C000020588D00085000002078
:10336C00E4060020FEE7000080B582B000AFFB1D34
:10337C0000221A700B4B1A680A4B802149000A4331
:10338C001A60002000F010F8031E03D0FB1D012270
:10339C001A7001E0FFF73CFCFB1D1B781800BD46C2
:1033AC0002B080BD0020024090B585B000AF7860BF
:1033BC000F23FB1800221A701D4B1B78002B2BD0EF
:1033CC001C4B1C681A4B1B781900FA239800FCF74D
:1033DC0093FE030019002000FCF78EFE030018007A
:1033EC0000F03DF9031E12D17B68032B0AD87968D3
:1033FC0001235B420022180000F00CF90E4B7A6896
:10340C001A600DE00F23FB1801221A7008E00F233D
:10341C00FB1801221A7003E00F23FB1801221A700B
:10342C000F23FB181B781800BD4605B090BDC04695
:10343C0048000020400000204400002080B500AF70
:10344C00054B1B781A00054B1B68D218034B1A60EE
:10345C00C046BD4680BDC04648000020E0060020A6
:10346C0080B500AF024B1B681800BD4680BDC0463E
:10347C00E006002080B584B000AF7860FFF7F0FF65
:10348C000300BB607B68FB60FB68013305D00A4B13
:10349C001B781A00FB689B18FB60C046FFF7E0FF27
:1034AC000200BB68D31AFA689A42F7D8C046C046E5
:1034BC00BD4604B080BDC0464800002080B582B037
:1034CC0000AF0200FB1D1A70FB1D1B787F2B09D867
:1034DC00FB1D1B781A001F231A40044B012191403D
:1034EC000A001A60C046BD4602B080BD00E100E093
:1034FC0090B583B000AF02003960FB1D1A70FB1D44
:10350C001B787F2B28D82F4AFB1D1B785BB29B089E
:10351C00C0339B009B58FA1D1278110003220A40FD
:10352C00D200FF2191400A00D2431A4011003B689F
:10353C009B01FF221A40FB1D1B781800032303403C
:10354C00DB009A401F48FB1D1B785BB29B080A43AB
:10355C00C0339B001A5031E01B4AFB1D1B7819002D
:10356C000F230B40083B9B0806339B00D3180433F6
:10357C001B68FA1D1278110003220A40D200FF21A9
:10358C0091400A00D2431A4011003B689B01FF2274
:10359C001A40FB1D1B78180003230340DB009A40E4
:1035AC000948FB1D1B781C000F232340083B9B087C
:1035BC000A4306339B00C31804331A60C046BD4649
:1035CC0003B090BD00E100E000ED00E080B582B0FA
:1035DC0000AF78607B685A1E80235B049A4201D34B
:1035EC00012310E00A4B7A68013A5A6001235B42CE
:1035FC0003211800FFF77CFF054B00229A60044B57
:10360C0007221A6000231800BD4602B080BDC046D8
:10361C0010E000E080B584B000AFB9607A600F2193
:10362C007B18021C1A70BA687B181B785BB21100ED
:10363C001800FFF75DFFC046BD4604B080BD80B5E5
:10364C0082B000AF0200FB1D1A70FB1D1B785BB231
:10365C001800FFF733FFC046BD4602B080BD80B5F1
:10366C0082B000AF78607B681800FFF7AFFF0300F3
:10367C001800BD4602B080BD80B586B000AF786042
:10368C00396000237B6147E13B681B6801217A6943
:10369C0091400A001340FB60FB68002B00D138E11D
:1036AC003B685B6803221340012B05D03B685B68C9
:1036BC0003221340022B30D17B689B683B617B69F2
:1036CC005B0003229A401300DA433B6913403B61D1
:1036DC003B68DA687B695B009A4013003A691343D4
:1036EC003B617B683A699A607B685B683B6101224D
:1036FC007B699A401300DA433B6913403B613B689A
:10370C005B681B0901221A407B699A4013003A69D5
:10371C0013433B617B683A695A603B685B680322E0
:10372C001340032B17D07B68DB683B617B695B0024
:10373C0003229A401300DA433B6913403B613B6818
:10374C009A687B695B009A4013003A6913433B61AA
:10375C007B683A69DA603B685B6803221340022B92
:10376C0023D17B69DA087B6808329200D3583B611D
:10377C007B69072213409B000F229A401300DA4307
:10378C003B6913403B613B681A697B6907210B401D
:10379C009B009A4013003A6913433B617B69DA083A
:1037AC007B68083292003969D1507B681B683B6199
:1037BC007B695B0003229A401300DA433B69134098
:1037CC003B613B685B6803221A407B695B009A4053
:1037DC0013003A6913433B617B683A691A603B6892
:1037EC005A68C0239B02134000D192E0504A7B6977
:1037FC009B0818339B009B583B617B690322134049
:10380C00DB000F229A401300DA433B6913403B6103
:10381C007A68A023DB059A4213D07B68454A934211
:10382C000DD07B68444A934207D07B68434A93424D
:10383C0001D1032306E0052304E0022302E0012367
:10384C0000E000237A6903210A40D20093403A69D0
:10385C0013433B6136497B699B0818339B003A69DB
:10386C005A50334B1B683B61FB68DA433B6913408E
:10387C003B613B685A6880235B03134003D03A6971
:10388C00FB6813433B612A4B3A691A60284B5B680F
:10389C003B61FB68DA433B6913403B613B685A6808
:1038AC0080239B03134003D03A69FB6813433B61AD
:1038BC001F4B3A695A601E4A8423D3583B61FB68FC
:1038CC00DA433B6913403B613B685A6880239B0297
:1038DC00134003D03A69FB6813433B6114498422BB
:1038EC003B698B50124A8023D3583B61FB68DA4307
:1038FC003B6913403B613B685A6880235B02134071
:10390C0003D03A69FB6813433B61094980223B6948
:10391C008B507B6901337B613B681A687B69DA40A9
:10392C00131E00D0B0E6C046C046BD4606B080BDF2
:10393C00001802400004005000080050000C005019
:10394C0080B584B000AF78600A00BB1C1A807B681D
:10395C001B69BA1C1288134004D00F23FB180122D8
:10396C001A7003E00F23FB1800221A700F23FB18A8
:10397C001B781800BD4604B080BD80B582B000AF86
:10398C00786008001100BB1C021C1A807B1C0A1CEE
:10399C001A707B1C1B78002B04D0BB1C1A887B680C
:1039AC009A6103E0BB1C1A887B689A62C046BD46CC
:1039BC0002B080BD80B582B000AF0200BB1D1A8082
:1039CC00094BDB68BA1D1288134008D0064BBA1D90
:1039DC001288DA60BB1D1B881800FDF715FCC04669
:1039EC00BD4602B080BDC0460018024080B584B010
:1039FC0000AF78607B68002B01D1012397E07B68D6
:103A0C0036229B5CDBB2002B13D17B683522002164
:103A1C0099547B68180000F08FFA7B689B6B002B25
:103A2C0002D17B68444A9A637B689B6B7A6810006E
:103A3C0098477B683622022199547B681B68DB68A7
:103A4C00FB607B685B68012B05D07B689A6A8023DE
:103A5C001B049A4203D1FB681E229343FB607B68D4
:103A6C005B69364A934203D0FB68354A1340FB60CE
:103A7C00FB68344A1340FB607B685A687B689B6820
:103A8C001A437B681B6A1A437B685B6A1A437B6820
:103A9C009B6A1343FA681343FB607B685B68002BDB
:103AAC0007D17B68DA697B681B691343FA68134397
:103ABC00FB607B685B68012B05D07B689A6A80236E
:103ACC001B049A4207D17B68DA687B681B69134335
:103ADC00FA681343FB607B685B69184A93420AD00F
:103AEC007B685A697B689B691A437B68DB69134363
:103AFC00FA681343FB607B681B68FA68DA607B68C2
:103B0C001B68114A934208D17B68D96A7B681A6B8F
:103B1C007B681B680A435A6204E07B681B687A68FE
:103B2C00D26A5A627B68362201219954002318000C
:103B3C00BD4604B080BDC046AD300008FFFF00009C
:103B4C003F1FFFFFFEF119FF007C004080B584B0E1
:103B5C0000AFF860B9607A60FB6836220221995494
:103B6C00FB681B68DA68FB681B68802149030A4301
:103B7C00DA60FB681B681A69FB681B6801210A4341
:103B8C001A61FB681B6810225A60FB681B68BA68D4
:103B9C009A61FB681021180000F0FAF90300032B5E
:103BAC0001D1032360E0FB681B6808225A60FB68A4
:103BBC001B687A685A61FB680821180000F0E8F964
:103BCC000300032B01D103234EE0FB68180000F027
:103BDC0017FAFB68180000F0A3F90300032B01D1BE
:103BEC00032341E0FB681B689A68FB681B68102183
:103BFC000A439A60FB681B689A68FB681B6808217B
:103C0C000A439A60FB681B689A68FB681B68022170
:103C1C000A439A60FB681B689A68FB681B68012161
:103C2C000A439A60FB685B69114A934207D0FB68B0
:103C3C001B689A68FB681B6804210A439A60FB683E
:103C4C001B681A69FB681B6801210A431A61FB682F
:103C5C001B681A69FB681B6802210A431A61FB681E
:103C6C0036220121995400231800BD4604B080BDB2
:103C7C00FFFF000080B582B000AF78607B681B68E6
:103C8C001B6801221340012B0FD17B681B689B68BA
:103C9C0001221340012B08D17B681B6801225A605A
:103CAC007B681B6C7A68100098477B681B681B68E4
:103CBC0002221340022B0FD17B681B689B680222E7
:103CCC001340022B08D17B681B6802225A607B6868
:103CDC005B6C7A68100098477B681B681B68042231
:103CEC001340042B0FD17B681B689B680422134084
:103CFC00042B08D17B681B6804225A607B689B6C80
:103D0C007A68100098477B681B681B680822134070
:103D1C00082B0FD17B681B689B6808221340082B6B
:103D2C0008D17B681B6808225A607B68DB6C7A6858
:103D3C00100098477B681B681B6810221340102BDF
:103D4C000FD17B681B689B6810221340102B08D185
:103D5C007B681B6810225A607B681B6D7A681000A8
:103D6C0098477B681B681B6820221340202B0FD1BF
:103D7C007B681B689B6820221340202B08D17B6832
:103D8C001B6820225A607B685B6D7A68100098472C
:103D9C007B681B681B6840221340402B0FD17B684B
:103DAC001B689B6840221340402B08D17B681B6822
:103DBC0040225A607B689B6D7A6810009847C04619
:103DCC00BD4602B080BD80B582B000AF7860C04601
:103DDC00BD4602B080BD80B582B000AF7860C046F1
:103DEC00BD4602B080BD80B582B000AF7860C046E1
:103DFC00BD4602B080BD80B582B000AF7860C046D1
:103E0C00BD4602B080BD80B582B000AF7860C046C0
:103E1C00BD4602B080BD80B582B000AF7860C046B0
:103E2C00BD4602B080BD80B582B000AF7860C046A0
:103E3C00BD4602B080BD000080B586B000AFF86012
:103E4C007A600B23FB180A1C1A701723FB1800222C
:103E5C001A707B68002B01D101235AE0FB683622D3
:103E6C009B5CDBB2012B32D10B23FB181B78082B8C
:103E7C0028D89A00294BD3181B689F46FB687A6890
:103E8C009A6343E0FB687A68DA633FE0FB687A6820
:103E9C001A643BE0FB687A685A6437E0FB687A681E
:103EAC009A6433E0FB687A68DA642FE0FB687A681E
:103EBC001A652BE0FB687A685A6527E0FB687A681C
:103ECC009A6523E01723FB1801221A701EE0FB6889
:103EDC0036229B5CDBB2002B14D10B23FB181B7816
:103EEC00002B02D0012B04D007E0FB687A689A63A0
:103EFC000CE0FB687A68DA6308E01723FB180122F0
:103F0C001A7003E01723FB1801221A701723FB18F1
:103F1C001B781800BD4606B080BDC0467C8B0008DF
:103F2C0080B582B000AF78607B6836229B5CDBB2D8
:103F3C001800BD4602B080BD80B582B000AF78607D
:103F4C007B680C4A1A647B680B4A5A647B680B4A80
:103F5C009A647B680A4ADA647B680A4A1A657B6849
:103F6C00094A5A657B68094A9A65C046BD4602B043
:103F7C0080BDC046D33D0008E33D0008F33D00087A
:103F8C00033E0008133E0008233E0008333E0008A1
:103F9C0080B584B000AF786039600F23FB18002225
:103FAC001A70154B1B6815491800FCF7A5F803008F
:103FBC001A0013005B019B1A9B009B18DB00BB6073
:103FCC00BB68013BBB60BB68002B03D10F23FB1804
:103FDC0003221A707B681B681B683A6813403A68A6
:103FEC009A4202D0BB68002BEAD10F23FB181B7836
:103FFC001800BD4604B080BD40000020204E0000DB
:10400C0080B58CB000AF78600023FB62EFF31083B7
:10401C00FB60FB68BB6201233B613B6983F3108847
:10402C00C0467B681B68724A934203D0714A934224
:10403C0007D00DE0704B5A6DC0231B031340FB627D
:10404C0006E06D4B5A6DC0239B031340FB62C046C8
:10405C007B681B689B687B627B681B68DB683B62C8
:10406C007B681B685B69FB617B681B689B69BB6138
:10407C007B681B685B6A7B617B681B685C4A93424C
:10408C0003D05C4A93420ED01BE05B4BDA6A5A4B6E
:10409C00802109060A43DA62574BDA6A564B520002
:1040AC005208DA620DE0544BDA6A534B8021C90591
:1040BC000A43DA62504BDA6A4F4B50490A40DA62D3
:1040CC00C046FB69002B03D1BB69002B00D171E00A
:1040DC007B681B68464A934203D0464A934207D0FA
:1040EC000DE0454B5A6D444B45490A405A6506E074
:1040FC00414B5A6D404B43490A405A65C046FB69D7
:10410C00002B1BD07B681B681A697B681B6801211C
:10411C000A431A617B681B68FA695A617B6808213B
:10412C001800FFF735FF0300032B03D17B68362201
:10413C00032199547B681B6808225A60BB69002BC9
:10414C001BD07B681B681A697B681B6801210A43BA
:10415C001A617B681B68BA699A617B681021180028
:10416C00FFF716FF0300032B03D17B6836220321D4
:10417C0099547B681B6810225A607B681B681C4A28
:10418C00934203D01B4A93420AD013E01A4B5B6D47
:10419C001B4A13401900184BFA6A0A435A6509E086
:1041AC00154B5B6D174A13401900134BFA6A0A43FF
:1041BC005A65C0467B681B681A697B681B680121BD
:1041CC008A431A617B681B687A6A9A607B681B68F1
:1041DC003A6ADA607B681B687A695A62BB6ABB60B0
:1041EC00BB6883F31088C046C046BD460CB080BD8A
:1041FC00007C00400094004000100240FFFFFFBF15
:10420C00FFFFF3FFFFFFCFFF80B500AF044B1A6831
:10421C00034B802149000A431A60C046BD4680BD4D
:10422C000070004080B584B000AF7860194B1B68FB
:10423C00194A13401900174B7A680A431A607A68B6
:10424C0080239B009A421FD1144B1A6813005B0009
:10425C009B185B0012491800FBF74EFF030001335B
:10426C00FB6008E0FB68002B03D0FB68013BFB60A4
:10427C0001E0032309E0074B5A698023DB001A4055
:10428C008023DB009A42EDD000231800BD4604B019
:10429C0080BDC04600700040FFF9FFFF40000020C9
:1042AC0040420F0080B500AF034B9A68E023DB015E
:1042BC0013401800BD4680BD0010024080B588B088
:1042CC0000AF78607B68002B01D10123FEE27B6894
:1042DC001B680122134000D17CE0C34B9B68382241
:1042EC001340BB61C04BDB68032213407B61BB698D
:1042FC00102B02D17B69032B02D0BB69082B0BD18D
:10430C00B94B1A6880239B02134062D07B685B68B0
:10431C00002B5ED10123D9E27B685A6880235B02B3
:10432C009A4207D1B04B1A68AF4B802149020A431D
:10433C001A6020E07B685A68A023DB029A420ED1F7
:10434C00A94B1A68A84B8021C9020A431A60A64BD4
:10435C001A68A54B802149020A431A600BE0A24B54
:10436C001A68A14BA1490A401A609F4B1A689E4BD0
:10437C009F490A401A607B685B68002B14D0FFF7DA
:10438C006FF803003B6108E0FFF76AF802003B6935
:10439C00D31A642B01D9032398E2934B1A68802318
:1043AC009B021340F0D015E0FFF75AF803003B6175
:1043BC0008E0FFF755F802003B69D31A642B01D9CA
:1043CC00032383E2884B1A6880239B021340F0D1AD
:1043DC0000E0C0467B681B680222134000D199E0C4
:1043EC00814B9B6838221340BB617F4BDB680322F7
:1043FC0013407B61BB69102B02D17B69022B02D06D
:10440C00BB69002B35D1784B1A688023DB00134035
:10441C0005D07B68DB68002B01D1012356E2724B7F
:10442C005B68744A134019007B685B691A026E4B17
:10443C000A435A60BB69002B12D16B4B1B686E4A46
:10444C00134019007B681A69674B0A431A60664B64
:10445C001B68DB0A07221340684ADA40684B1A6073
:10446C00684B1B681800FEF79FFF031E51D00123F9
:10447C002CE27B68DB68002B30D05B4B1B685E4A00
:10448C00134019007B681A69574B0A431A60564B44
:10449C001A68554B802149000A431A60FEF7E0FF69
:1044AC0003003B6108E0FEF7DBFF02003B69D31A17
:1044BC00022B01D9032309E24B4B1A688023DB0042
:1044CC001340F0D0484B5B684A4A134019007B6894
:1044DC005B691A02444B0A435A601BE0424B1A6850
:1044EC00414B49490A401A60FEF7BAFF03003B6191
:1044FC0008E0FEF7B5FF02003B69D31A022B01D985
:10450C000323E3E1384B1A688023DB001340F0D11E
:10451C0000E0C0467B681B680822134047D0324B32
:10452C009B6838221340182B0AD12F4B1B6E02228A
:10453C0013403CD07B689B69002B38D10123C5E12B
:10454C007B689B69002B19D0274B1A6E264B0121D7
:10455C000A431A66FEF784FF03003B6108E0FEF78E
:10456C007FFF02003B69D31A022B01D90323ADE173
:10457C001D4B1B6E02221340F1D018E01A4B1A6E21
:10458C00194B01218A431A66FEF76AFF03003B614F
:10459C0008E0FEF765FF02003B69D31A022B01D934
:1045AC00032393E1104B1B6E02221340F1D17B6865
:1045BC001B680422134000D1C6E01F23FB18002205
:1045CC001A70094B9B6838221340202B1ED1064BC6
:1045DC00DB6D0222134000D1B6E07B689B68002B98
:1045EC0000D0B1E0012371E100100240FFFFFEFF9B
:1045FC00FFFFFBFFFF80FFFFFFC7FFFF0024F4005E
:10460C004000002044000020FFFEFFFFB14BDA6B9E
:10461C0080235B05134001D1012300E00023002B14
:10462C0011D0AC4BDA6BAB4B802149050A43DA63F2
:10463C00A84BDA6B80235B051340FB60FB681F23E0
:10464C00FB1801221A70A44B1A6880235B001340DC
:10465C001AD1A14B1A68A04B802149000A431A6059
:10466C00FEF7FEFE03003B6108E0FEF7F9FE0200D8
:10467C003B69D31A022B01D9032327E1964B1A6805
:10468C0080235B001340F0D07B689B68012B06D124
:10469C00904BDA6D8F4B01210A43DA651CE07B6885
:1046AC009B68052B0CD18B4BDA6D8A4B04210A438A
:1046BC00DA65884BDA6D874B01210A43DA650BE02A
:1046CC00844BDA6D834B01218A43DA65814BDA6DB9
:1046DC00804B04218A43DA657B689B68002B14D0DD
:1046EC00FEF7BEFE03003B6109E0FEF7B9FE0200D7
:1046FC003B69D31A794A934201D90323E6E0754BFF
:10470C00DB6D02221340F0D013E0FEF7A9FE03008C
:10471C003B6109E0FEF7A4FE02003B69D31A6F4A25
:10472C00934201D90323D1E06A4BDB6D0222134083
:10473C00F0D11F23FB181B78012B05D1654BDA6BCD
:10474C00644B67490A40DA637B68DB69002B00D154
:10475C00BBE0604B9B6838221340102B00D17BE0F0
:10476C007B68DB69022B56D15A4B1A68594B5D4951
:10477C000A401A60FEF774FE03003B6108E0FEF786
:10478C006FFE02003B69D31A022B01D903239DE073
:10479C00504B1A6880239B041340F0D14D4BDB68BF
:1047AC00514A134019007B681A6A7B685B6A1A438A
:1047BC007B689B6A1B021A437B68DB6A1A437B6823
:1047CC001B6B1A437B685B6B1A43424B0A43DA60E0
:1047DC00404B1A683F4B802149040A431A603D4BF9
:1047EC00DA683C4B802149050A43DA60FEF738FE53
:1047FC0003003B6108E0FEF733FE02003B69D31A6D
:10480C00022B01D9032361E0324B1A6880239B04ED
:10481C001340F0D059E02F4B1A682E4B31490A4007
:10482C001A60FEF71DFE03003B6108E0FEF718FE60
:10483C0002003B69D31A022B01D9032346E0254B16
:10484C001A6880239B041340F0D1224BDA68214B69
:10485C0026490A40DA6038E07B68DB69012B01D11C
:10486C00012333E01B4BDB687B617B6903221A401D
:10487C007B681B6A9A4226D17B6970221A407B683E
:10488C005B6A9A421FD17A69FE23DB011A407B686E
:10489C009B6A1B029A4216D17A69F8239B031A4031
:1048AC007B68DB6A9A420ED17A69E0231B051A40B9
:1048BC007B681B6B9A4206D17B695B0F5A077B683E
:1048CC005B6B9A4201D0012300E000231800BD4627
:1048DC0008B080BD0010024000700040881300003A
:1048EC00FFFFFFEFFFFFFFFE8C80C111FCFFFEEE10
:1048FC0080B584B000AF786039607B68002B01D143
:10490C000123E9E0764B1B68072213403A689A4270
:10491C001ED9734B1B68072293431900704B3A68DE
:10492C000A431A60FEF79CFD0300FB6009E0FEF7EA
:10493C0097FD0200FB68D31A6A4A934201D90323FC
:10494C00CAE0674B1B68072213403A689A42EED1C3
:10495C007B681B680222134015D07B681B680422FD
:10496C00134006D0604B9A685F4BE021C9010A43A3
:10497C009A605D4B9B685D4A134019007B689A688E
:10498C00594B0A439A607B681B680122134057D02D
:10499C007B685B68012B07D1534B1A6880239B0201
:1049AC0013402BD1012397E07B685B68022B07D166
:1049BC004D4B1A6880239B0413401FD101238BE0BD
:1049CC007B685B68002B07D1474B1A688023DB00A0
:1049DC00134013D101237FE07B685B68032B06D166
:1049EC00414B1B6E0222134008D1012374E03E4B55
:1049FC00DB6D0222134001D101236DE03A4B9B6821
:104A0C000722934319007B685A68374B0A439A6014
:104A1C00FEF726FD0300FB6009E0FEF721FD020016
:104A2C00FB68D31A2F4A934201D9032354E02E4B2F
:104A3C009B6838221A407B685B68DB009A42ECD199
:104A4C00274B1B68072213403A689A421ED2244B0C
:104A5C001B68072293431900214B3A680A431A60DA
:104A6C00FEF7FEFC0300FB6009E0FEF7F9FC020018
:104A7C00FB68D31A1B4A934201D903232CE0184B31
:104A8C001B68072213403A689A42EED17B681B6878
:104A9C000422134009D0144B9B68154A134019008B
:104AAC007B68DA68104B0A439A6000F029F8010021
:104ABC000D4B9B681B0A0F221A400E4B9200D358C9
:104ACC001F2213400A00DA400B4B1A600B4B1B6879
:104ADC001800FEF769FC03001800BD4604B080BD49
:104AEC00002002408813000000100240FFF0FFFF7E
:104AFC00FF8FFFFF1C8B00084000002044000020AB
:104B0C0080B586B000AF3C4B9B68382213400FD168
:104B1C00394B1B68DB0A0722134001229A40130011
:104B2C003B6039683548FBF7E7FA03003B615DE011
:104B3C00314B9B6838221340082B02D1304B3B6120
:104B4C0054E02D4B9B6838221340102B38D12A4B44
:104B5C00DB6803221340FB60274BDB681B09072231
:104B6C0013400133BB60FB68032B0DD1B96824489B
:104B7C00FBF7C2FA030019001F4BDB681B0A7F22EC
:104B8C0013404B437B610DE0B9681C48FBF7B4FA4A
:104B9C0003001900184BDB681B0A7F2213404B43A0
:104BAC007B61C046144BDB685B0F0722134001335B
:104BBC007B6079687869FBF79FFA03003B6115E02D
:104BCC000D4B9B6838221340202B03D180231B02F2
:104BDC003B610BE0084B9B6838221340182B03D128
:104BEC00FA23DB013B6101E000233B613B691800C8
:104BFC00BD4606B080BDC046001002400024F40043
:104C0C0000127A0080B500AF024B1B681800BD463D
:104C1C0080BDC04640000020B0B500AFFFF7F2FFEA
:104C2C000400FFF73FFB03001A0B054B9200D3580F
:104C3C001F221340DC4023001800BD46B0BDC04607
:104C4C005C8B000880B586B000AF78601323FB182E
:104C5C0000221A701223FB1800221A707B681A6843
:104C6C0080239B02134000D1A3E011203B180022AB
:104C7C001A70A54BDA6B80235B05134010D1A24B45
:104C8C00DA6BA14B802149050A43DA639E4BDA6B40
:104C9C0080235B051340BB60BB683B1801221A7074
:104CAC009A4B1A68994B802149000A431A60FEF707
:104CBC00D7FB0300FB600BE0FEF7D2FB0200FB68A6
:104CCC00D31A022B04D91323FB1803221A7005E004
:104CDC008E4B1A6880235B001340EDD01323FB1816
:104CEC001B78002B54D1884BDA6DC0239B001340EA
:104CFC007B617B69002B19D07B685B6A7A699A426D
:104D0C0014D0814BDB6D824A13407B617E4BDA6D94
:104D1C007D4B802149020A43DA657B4BDA6D7A4B75
:104D2C007C490A40DA65784B7A69DA657B6901223D
:104D3C00134016D0FEF794FB0300FB600CE0FEF76B
:104D4C008FFB0200FB68D31A734A934204D91323D6
:104D5C00FB1803221A7004E06B4BDB6D022213402C
:104D6C00EDD01323FB181B78002B0AD1664BDB6D9F
:104D7C00674A134019007B685A6A634B0A43DA6529
:104D8C000CE01223FB181322BA1812781A7005E0E3
:104D9C001223FB181322BA1812781A701123FB185D
:104DAC001B78012B05D1584BDA6B574B5B490A40EA
:104DBC00DA637B681B680122134009D0524B5B6D90
:104DCC000322934319007B685A684F4B0A435A6578
:104DDC007B681B681022134009D04B4B5B6D504A0B
:104DEC00134019007B689A68474B0A435A657B68E5
:104DFC001A6880239B00134009D0434B5B6D494AD2
:104E0C00134019007B685A693F4B0A435A657B680B
:104E1C001A688023DB00134009D03B4B5B6D424A80
:104E2C00134019007B689A69374B0A435A657B68B3
:104E3C001B682022134009D0334B5B6D3B4A134057
:104E4C0019007B68DA68304B0A435A657B681A682C
:104E5C008023DB01134015D02B4B5B6D9B00990815
:104E6C007B68DA69284B0A435A657B68DA698023C8
:104E7C00DB059A4206D1244BDA68234B8021490288
:104E8C000A43DA607B681A6880239B03134016D0B0
:104E9C001D4B5B6D264A134019007B681A6A1A4B2E
:104EAC000A435A657B681A6A8023DB039A4206D14F
:104EBC00154BDA68144B802149040A43DA607B688D
:104ECC001A6880231B01134016D00F4B5B6D194AD7
:104EDC00134019007B681A690B4B0A435A657B68AF
:104EEC001A698023DB019A4206D1074BDA68064B1C
:104EFC00802149020A43DA601223FB181B78180040
:104F0C00BD4606B080BDC046001002400070004097
:104F1C00FFFCFFFFFFFFFEFF88130000FFFFFFEF0A
:104F2C00FFF3FFFFFFFFF3FFFFFFCFFFFFCFFFFFFD
:104F3C00FFFFBFFFFF3FFFFFB0B584B000AF78604D
:104F4C000F23FB1801221A707B68002B00D1B9E0EB
:104F5C007B6829229B5CDBB2002B38D17B68282232
:104F6C00002199547B68882212025A607B68594A46
:104F7C00DA627B68584A1A637B68584A5A637B68C2
:104F8C00574A9A637B68574ADA637B68564A1A64B5
:104F9C007B68564A5A647B68554A9A647B68554AC2
:104FAC00DA647B68544A1A657B685B6D002B02D10E
:104FBC007B68524A5A657B685B6D7A68100098472B
:104FCC007B689B6D002B02D17B684D4A9A657B6890
:104FDC002922022199547B681B68DB68102213403C
:104FEC00102B62D07B681B68CA225A627B681B68D4
:104FFC0053225A620F257C197B68180000F044FD7F
:10500C000300237028003B181B78002B2CD17B68E5
:10501C001B689A697B681B683A490A409A617B68ED
:10502C001B6899697B689A687B685B691A437B6823
:10503C00DB691A437B681B680A439A617B681B68AF
:10504C007A6812691A617B681B6819697B68DB686E
:10505C001A047B681B680A431A613C187B681800A9
:10506C0000F054FD030023700F23FB181B78002B5A
:10507C0016D17B681B689A697B681B68D200D208C2
:10508C009A617B681B6899697B685A6A7B681B6AA2
:10509C001A437B689B691A437B681B680A439A61B5
:1050AC007B681B68FF225A6203E00F23FB18002267
:1050BC001A700F23FB181B78002B03D17B68292255
:1050CC00012199540F23FB181B781800BD4604B01E
:1050DC00B0BDC046395A00080F5D00082B5C0008B3
:1050EC003B5C00081F5D00082F5D00083F5D000859
:1050FC004F5D00085F5D00086F5D0008652C0008BF
:10510C00E12C0008BFFF8FFB80B586B000AFF860C4
:10511C007A600B23FB180A1C1A701723FB18002249
:10512C001A707B68002B01D1012375E0FB682822E3
:10513C009B5C012B01D102236EE0FB68282201212C
:10514C009954FB6829229B5CDBB2012B3ED10B23CB
:10515C00FB181B780F2B34D89A00314BD3181B68D3
:10516C009F46FB687A68DA624FE0FB687A681A63DC
:10517C004BE0FB687A685A6347E0FB687A689A638D
:10518C0043E0FB687A68DA633FE0FB687A681A648C
:10519C003BE0FB687A685A6437E0FB687A689A648B
:1051AC0033E0FB687A68DA642FE0FB687A681A658A
:1051BC002BE0FB687A685A6527E0FB687A689A6589
:1051CC0023E01723FB1801221A701EE0FB6829222A
:1051DC009B5CDBB2002B14D10B23FB181B780E2B22
:1051EC0002D00F2B04D007E0FB687A685A650CE0FC
:1051FC00FB687A689A6508E01723FB1801221A707D
:10520C0003E01723FB1801221A70FB6828220021E7
:10521C0099541723FB181B781800BD4606B080BDA7
:10522C00A08B0008B0B586B000AFF860B9607A60AA
:10523C00FB6828229B5C012B01D1022392E0FB68C6
:10524C00282201219954FB68292202219954FB68D8
:10525C001B68CA225A62FB681B6853225A621325C8
:10526C007C19FB68180000F00FFC030023707B19FD
:10527C001B78002B62D17B68002B25D1FB681B6847
:10528C009B694022134002D1BB680022DA70BB68D4
:10529C001B78180000F07EFC03001C04BB685B78D4
:1052AC00180000F077FC03001B021C43BB689B78C2
:1052BC00180000F06FFC030022001A43BB68DB7877
:1052CC009B0513437B6117E0FB681B689B694022BD
:1052DC00134002D1BB680022DA70BB681B781A0439
:1052EC00BB685B781B021343BA6892781A43BB689D
:1052FC00DB789B0513437B61FB681B687A691B4950
:10530C000A401A60FB681B689A69FB681B6818499D
:10531C000A409A61FB681B689969BB68DA68BB68CC
:10532C001B691A43FB681B680A439A611323FC1818
:10533C00FB68180000F0EAFB03002370FB681B6895
:10534C00FF225A621323FB181B78002B03D1FB6836
:10535C00292201219954FB682822002199541323F6
:10536C00FB181B781800BD4606B0B0BD7F7F7F00D0
:10537C00FFFFFBFF80B586B000AFF860B9607A60C4
:10538C00FB681B689A68BB685A60FB681B681B69E2
:10539C005B045A0CBB689A60FB681B681B68224A4A
:1053AC0013407B617B691B0CDBB23F221340DAB2EA
:1053BC00BB681A707B691B0ADBB27F221340DAB21E
:1053CC00BB685A707B69DBB27F221340DAB2BB68D0
:1053DC009A707B699B0DDBB201221340DAB2BB6879
:1053EC00DA707B68002B1AD1BB681B78180000F0B0
:1053FC00F9FB03001A00BB681A70BB685B781800D5
:10540C0000F0F0FB03001A00BB685A70BB689B7875
:10541C00180000F0E7FB03001A00BB689A70002329
:10542C001800BD4606B080BD7F7F7F00B0B586B04A
:10543C0000AFF860B9607A60FB6828229B5C012B96
:10544C0001D102237EE0FB68282201219954FB68DC
:10545C002922022199547B68002B0ED1BB685B7802
:10546C001A001023134008D0BB685B7810229343BA
:10547C00DBB20A33DAB2BB685A707B68002B1CD1E2
:10548C00BB68DB78180000F085FB03001C04BB68CC
:10549C005B78180000F07EFB03001B021C43BB680A
:1054AC009B78180000F076FB030022001A43BB68BF
:1054BC001B785B0313437B610EE0BB68DB781A043B
:1054CC00BB685B781B021343BA6892781A43BB68BB
:1054DC001B785B0313437B61FB681B68CA225A620F
:1054EC00FB681B6853225A6213257C19FB68180051
:1054FC0000F0CAFA0300237028003B181B78002B1D
:10550C000CD1FB681B687A6910490A405A603C1838
:10551C00FB68180000F0FAFA03002370FB681B68A4
:10552C00FF225A621323FB181B78002B03D1FB6854
:10553C00292201219954FB68282200219954132314
:10554C00FB181B781800BD4606B0B0BD3FFFFF002E
:10555C0080B586B000AFF860B9607A60FB681B68F4
:10556C005B68214A13407B617B691B0CDAB2BB6818
:10557C00DA707B691B0ADBB21F221340DAB2BB68FC
:10558C005A707B69DBB23F221340DAB2BB689A7067
:10559C007B695B0BDBB207221340DAB2BB681A7073
:1055AC007B68002B1AD1BB68DB78180000F01AFB63
:1055BC0003001A00BB68DA70BB685B78180000F057
:1055CC0011FB03001A00BB685A70BB689B7818006B
:1055DC0000F008FB03001A00BB689A700023180047
:1055EC00BD4606B080BDC0463FFFFF0090B589B0F8
:1055FC0000AFF860B9607A60FB6828229B5C012BD5
:10560C0001D1022327E1FB68282201219954FB6870
:10561C002922022199547B68002B36D1FB681B6828
:10562C009B694022134002D1BB680022DA70BB6830
:10563C001B78180000F0AEFA03001C04BB685B7802
:10564C00180000F0A7FA03001B021C43BB689B78F0
:10565C00180000F09FFA030022001A43BB68DB78A5
:10566C009B051A431400BB6820229B5C180000F0B9
:10567C0091FA03001B0622001A43BB68DB691A432C
:10568C00BB685B691343FB6122E0FB681B689B6989
:10569C004022134002D1BB680022DA70BB681B7831
:1056AC001A04BB685B781B021343BA6892781A43DE
:1056BC00BB68DB789B051A43BB6820215B5C1B062F
:1056CC001A43BB68DB691A43BB685B691343FB6114
:1056DC00BB685A68BB689B691343BB61FB681B685A
:1056EC00CA225A62FB681B6853225A62BB685A6A08
:1056FC0080235B009A424CD1FB681B689A69FB685B
:10570C001B6857490A409A61FB681B68DA6DFB6895
:10571C001B6801210A43DA65FDF7A2FE03007B61D9
:10572C0016E0FDF79DFE02007B69D21AFA239B005E
:10573C009A420DD9FB681B68FF225A62FB6829222A
:10574C0003219954FB68282200219954032382E0F9
:10575C00FB681B68DB6801221340E2D0FB681B6806
:10576C00FA691A64FB681B68BA695A64FB681B689F
:10577C009A69FB681B68802149000A439A61FB689F
:10578C001B689A69FB681B68802149010A439A616E
:10579C004BE0FB681B689A69FB681B6831490A403F
:1057AC009A61FB681B68DA6DFB681B6802210A436F
:1057BC00DA65FDF755FE03007B6116E0FDF750FE40
:1057CC0002007B69D21AFA239B009A420DD9FB681E
:1057DC001B68FF225A62FB68292203219954FB683B
:1057EC00282200219954032335E0FB681B68DB68F1
:1057FC0002221340E2D0FB681B68FA699A64FB68CA
:10580C001B68BA69DA64FB681B689A69FB681B68D9
:10581C00802189000A439A61FB681B689A69FB68BE
:10582C001B68802189010A439A610F4A8023D3584F
:10583C000D4980221203134380228B50FB681B6896
:10584C00FF225A62FB68292201219954FB68282205
:10585C000021995400231800BD4609B090BDC046E4
:10586C00FFFEFFFFFFFDFFFF0018024080B584B074
:10587C0000AF786039607B6828229B5C012B01D1DA
:10588C00022386E07B682822012199547B68292217
:10589C00022199547B681B68CA225A627B681B6878
:1058AC0053225A623A6880235B009A4232D17B6859
:1058BC001B689A697B681B6838490A409A617B6847
:1058CC001B689A697B681B6835490A409A61FDF729
:1058DC00C7FD0300FB6016E0FDF7C2FD0200FB688C
:1058EC00D21AFA239B009A420DD97B681B68FF22BF
:1058FC005A627B682922032199547B682822002153
:10590C009954032345E07B681B68DB680122134034
:10591C00E2D031E07B681B689A697B681B6821497F
:10592C000A409A617B681B689A697B681B681E49F0
:10593C000A409A61FDF794FD0300FB6016E0FDF749
:10594C008FFD0200FB68D21AFA239B009A420DD9F4
:10595C007B681B68FF225A627B68292203219954B9
:10596C007B68282200219954032312E07B681B6872
:10597C00DB6802221340E2D07B681B68FF225A626C
:10598C007B682922012199547B6828220021995493
:10599C0000231800BD4604B080BDC046FFFEFFFFCB
:1059AC00FFEFFFFFFFFDFFFFFFDFFFFF80B582B0C2
:1059BC0000AF78607B681B689A6980235B01134099
:1059CC0012D07B681B681B6D012213400CD07B68C6
:1059DC001B68DA6D7B681B6801210A43DA657B68FA
:1059EC00DB6A7A68100098477B681B689A69802389
:1059FC009B01134012D07B681B681B6D0222134065
:105A0C000CD07B681B68DA6D7B681B6802210A432B
:105A1C00DA657B681B6B7A68100098477B682922D3
:105A2C0001219954C046BD4602B080BD80B582B0FC
:105A3C0000AF7860C046BD4602B080BD80B584B072
:105A4C0000AF78607B681B680E4ADA60FDF708FDD2
:105A5C000300FB600AE0FDF703FD0200FB68D21AAD
:105A6C00FA239B009A4201D9032306E07B681B684A
:105A7C00DB6820221340EED000231800BD4604B092
:105A8C0080BDC0465F00010080B584B000AF786077
:105A9C000F23FB1800221A707B681B68DB684022FE
:105AAC0013402CD17B681B68DA687B681B688021EB
:105ABC000A43DA60FDF7D4FC0300BB6014E0FDF789
:105ACC00CFFC0200BB68D21A0F203B18391809789A
